:100000000C9432150C945A150C945A150C945A15DC
:100010000C945A150C945A150C945A150C945A15A4
:100020000C945A150C945A150C9414250C94832591
:100030000C945A150C945A150C945A150C945A1584
:100040000C945A150C945A150C945A150C945A1574
:100050000C945A150C945A150C945A150C94B527F7
:100060000C945A150C945A150C945A150C945A1554
:100070000C945A150C945A150C945A150C945A1544
:100080000C94FF270C945A150C945A150C945A157D
:100090000C945A150C945A150C945A150C945A1524
:1000A0000C945A150C945A150C945A15780045580E
:1000B000504C41494E00415050524F41434800542A
:1000C000485245415400434F4E54494E5545002334
:1000D00000004D2E204D454E5500532E204F4646D4
:1000E00000532E204F4E004F4646004F4E005354B3
:1000F0004152540052554E004241434B005350412F
:1001000052450052454C494300534F554E4400411F
:100110004354494F4E0054414C4B004154544143C9
:100120004B004F5054494F4E5300504F54494F4E7F
:100130000052454C494300534849454C44005357ED
:100140004F5244004445460053545200485000006A
:10015000594F5520484954205749544820414E474B
:100160004552004849545320594F5520414E442090
:1001700052554E53204157415900554E4445525314
:1001800054414E44004C454156455320494E204170
:100190004E474552004E4F44532C20474956455335
:1001A00020504F54494F4E00414343455054532C27
:1001B0002052454C494320464F554E44004154542B
:1001C00041434B530041545441434B532C20594F0E
:1001D00055204C4F53452042414C414E434500571A
:1001E000494C4C204E4F54204C495354454E0048E6
:1001F00049545320414E4420455343415045004803
:1002000049545320414E442052554E5300474956BD
:10021000455320412052454C4943004749564553D8
:1002200020594F55204120504F54494F4E005354B0
:1002300045414C532046524F4D20594F550049538C
:10024000204146524149440041545441434B532CB0
:1002500020594F55204645454C205745414B004EAF
:100260004F5420425241564520454E4F5547480075
:100270004849545320414E442052554E5300534355
:100280004152452C20594F55204741494E2042416B
:100290004C414E4345004146524149442C20594F60
:1002A00055204741494E2042414C414E434500466E
:1002B00041494E54530041545441434B532C20590F
:1002C0004F55204C4F53452042414C414E43450031
:1002D00041545441434B532C20594F5520415245D2
:1002E00020485552540059454C4C53204241434BF1
:1002F00000594F55205245465553450043414E271E
:10030000542054414C4B205749544820534C494D9C
:100310004553004255542C204E4F572057484154C6
:100320003F00594F55204D41444520495421004B31
:10033000455920464F554E442100474F20464153D2
:1003400054004341524546554C004441524B204CC9
:100350004F4F4D5300464C4F574552533F004D456C
:1003600054414C20434C414E4B494E4700434F4C67
:100370004400534C494D453F004D4158204C455693
:10038000454C3A0054525920414741494E3F002EB6
:100390002E2E00594F552041524520544952454474
:1003A00000594F552041524520484F504546554C25
:1003B00000594F5520415245205749534500594F48
:1003C000552041524520534D41525400594F55201C
:1003D000415245205354524F4E4700544F4F2053E3
:1003E00054524F4E472C2043414E275420455343EF
:1003F0004150450056312E322E31004E4F2052458D
:100400004C494320415641494C41424C4500544FD0
:100410004F205354524F4E472C2043414E275420D7
:100420005350415245004C45415645532C20504FA6
:1004300054494F4E20464F554E4400454E454D5968
:10044000204C454156455300594F55204645454C93
:10045000205041494E00454E454D59205741495481
:100460005300454E454D59205641504F52495A452B
:100470004400594F55204645454C205354524F4E49
:1004800047455200594F552043414E2054414B455A
:1004900020412042454154494E4700594F5520467E
:1004A00045454C20454E4552474554494300594F18
:1004B00055204645454C205354524F4E4745520017
:1004C000594F55204645454C205245414C4C5920EA
:1004D000474F4F4400594F55204641494C45442E03
:1004E0002E2054525920414741494E3F004B455917
:1004F000204E454544454400594F55204645454CFE
:10050000205745414B005041494E20494E464C49E9
:100510004354454400424F5448204449442E2E2021
:100520005041494E2053484152454400594F5520AF
:100530004645454C205245564954414C495A45443C
:10054000004E4F20504F54494F4E20415641494C88
:1005500041424C4500455343415045205355434388
:1005600045535346554C004641494C2C20594F5554
:10057000204645454C205041494E00504F54494F6C
:100580004E20464F554E4420494E20434845535433
:100590000052454C494320464F554E4420494E2079
:1005A000434845535400534849454C4420464F5511
:1005B0004E4420494E2043484553540053574F5210
:1005C0004420464F554E4420494E204348455354FD
:1005D00000454D50545920434845535420464F55EB
:1005E0004E4400454E454D5920454E434F554E54BF
:1005F000455200504F54494F4E20464F554E4400EF
:1006000052454C494320464F554E4400594F5520C2
:100610004645454C204245545445520053484945AF
:100620004C4420464F554E4400504F434B45545385
:100630002046554C4C0053574F524420464F554E80
:100640004400544F57455220454E5452414E434565
:1006500000544F574552204C4556454C004F014CD5
:1006600001480144013E01370131012A0122011BE9
:100670000116010F0109010301FD00F800F400EE6D
:1006800000EB00E700E100DA00D200D100CF00C6A5
:1006900000BF00B600AE00AC005106420636062987
:1006A000061C060C060006F305E305D105BC05A6ED
:1006B0000591057B056705550541052C05150506C2
:1006C00005F804ED04D504C004AE049B0484047250
:1006D000046204560448043B0426040E04FB03F49D
:1006E00003DB03CC03BE03B103A10393038F038495
:1006F00003790372036D035E0355034A0342033A11
:10070000032F0322031303FC02F102E602D002B618
:1007100002AF0296027E0270025F0248023E022E83
:10072000021B020D02FF01EF01DF01C501BD01A89F
:1007300001950185017A016301500100000000006C
:100740003E5B4F5B3E3E6B4F6B3E1C3E7C3E1C183F
:100750003C7E3C181C577D571C1C5E7F5E1C00189D
:100760003C1800FFE7C3E7FF0018241800FFE7DB91
:10077000E7FF30483A060E2629792926407F0505ED
:1007800007407F05253F5A3CE73C5A7F3E1C1C082A
:10079000081C1C3E7F14227F22145F5F005F5F06EF
:1007A000097F017F006689956A606060606094A23D
:1007B000FFA29408047E040810207E201008082A56
:1007C0001C08081C2A08081E101010100C1E0C1EF5
:1007D0000C30383E3830060E3E0E06000000000099
:1007E00000005F00000007000700147F147F14243E
:1007F0002A7F2A12231308646236495620500008C3
:10080000070300001C2241000041221C002A1C7F1B
:100810001C2A08083E0808008070300008080808F4
:1008200008000060600020100804023E5149453E67
:1008300000427F400072494949462141494D3318E1
:1008400014127F1027454545393C4A494931412119
:100850001109073649494936464949291E000014FD
:100860000000004034000000081422411414141445
:1008700014004122140802015909063E415D594EF7
:100880007C1211127C7F494949363E414141227F09
:100890004141413E7F494949417F090909013E41A2
:1008A0004151737F0808087F00417F41002040418B
:1008B0003F017F081422417F404040407F021C02DC
:1008C0007F7F0408107F3E4141413E7F09090906B0
:1008D0003E4151215E7F0919294626494949320383
:1008E000017F01033F4040403F1F2040201F3F4009
:1008F00038403F63140814630304780403615949C2
:100900004D43007F41414102040810200041414114
:100910007F040201020440404040400003070800F9
:1009200020545478407F284444383844444428387C
:100930004444287F385454541800087E090218A4EF
:10094000A49C787F0804047800447D400020404047
:100950003D007F1028440000417F40007C04780463
:10096000787C080404783844444438FC182424185B
:1009700018242418FC7C0804040848545454240403
:10098000043F44243C4040207C1C2040201C3C4030
:1009900030403C44281028444C9090907C4464544F
:1009A0004C44000836410000007700000041360842
:1009B0000002010204023C2623263C1EA1A1611272
:1009C0003A4040207A38545455592155557941219F
:1009D00054547841215554784020545579400C1E88
:1009E0005272123955555559395454545939555430
:1009F00054580000457C410002457D420001457C81
:100A000040F0292429F0F0282528F07C5455450091
:100A10002054547C547C0A097F4932494949323276
:100A200048484832324A4848303A4141217A3A42AD
:100A3000402078009DA0A07D39444444393D404089
:100A4000403D3C24FF2424487E4943662B2FFC2F45
:100A50002BFF0929F620C0887E09032054547941D0
:100A60000000447D413048484A32384040227A00F4
:100A70007A0A0A727D0D19317D2629292F28262907
:100A800029292630484D4020380808080808080859
:100A900008382F10C8ACBA2F102834FA00007B0099
:100AA0000008142A142222142A1408950022009502
:100AB000AA005500AAAA55AA55AA000000FF0010D6
:100AC0001010FF00141414FF001010FF00FF10108E
:100AD000F010F0141414FC001414F700FF0000FFD1
:100AE00000FF1414F404FC141417101F10101F102E
:100AF0001F1414141F00101010F0000000001F102D
:100B00001010101F10101010F010000000FF101037
:100B100010101010101010FF10000000FF14000043
:100B2000FF00FF00001F10170000FC04F41414174E
:100B300010171414F404F40000FF00F71414141434
:100B4000141414F700F7141414171410101F101FA6
:100B5000141414F4141010F010F000001F101F00F3
:100B600000001F14000000FC140000F010F0101032
:100B7000FF10FF141414FF141010101F00000000C9
:100B8000F010FFFFFFFFFFF0F0F0F0F0FFFFFF00BD
:100B900000000000FFFF0F0F0F0F0F3844443844D0
:100BA0007C2A2A3E147E02020606027E027E026330
:100BB000554941633844443C04407E201E200602CF
:100BC0007E020299A5E7A5991C2A492A1C4C7201AC
:100BD000724C304A4D4D303048784830BC625A46ED
:100BE0003D3E494949007E0101017E2A2A2A2A2ADE
:100BF00044445F444440514A444040444A514000C8
:100C000000FF0103E080FF000008086B6B0836124C
:100C1000362436060F090F060000181800000010D1
:100C200010003040FF0101001F01011E00191D17B7
:100C300012003C3C3C3C000000000000B00000A161
:100C400070E150964F26900F1D070C009669004AE0
:100C5000E44A0048444000806810000F99FB8F9DD3
:100C6000BDBBFB77D4D4DF1F1A1AFE7F5D5DFF800A
:100C70005A0000A0A4AA0010BA3400FF5953F3FF91
:100C80009B9B9EFFB9B996FF9595D19FF4940FFC5D
:100C9000295F91FF1838F8FF9294FFFF95D5F7BFB1
:100CA000B5DDD7F18F81F1F788C8F779C6467909A4
:100CB000FD9B090196F80082818280507162007765
:100CC00056560076763700A2B77301077206007891
:100CD00027500073347400775176007F55F7004732
:100CE000711000324772007364730015A2750061C1
:100CF000679400009F6060F4F2F6F2F0F89C8E8733
:100D000083878E9CF8F00000FEFF030303030307B4
:100D10000EFCF80000FEFF0303030303070EFCF8BC
:100D20000000FFFF00000000000000FFFF0000FEC9
:100D3000FF8383838383C7EE7C380000F8FC0E07B3
:100D4000030303070EFCF800003F7FE0C08080C073
:100D5000E07F3FFFFF01010101010101FFFF0000F2
:100D6000FFFF0C0C0C0C1C3E77E3C100007FFFC0A2
:100D7000C0C0C0C0E0703F1F00001F3F70E0C0C097
:100D8000C0E0703F1F00007FFFC1C1C1C1C1E37758
:100D90003E1C00001F3F70E0C0C0C0E0703F1F005D
:100DA0000000000001FFFF01000000D5F08D14A13C
:100DB000C881CFD9F1AF200008244E4E4A4E2408F6
:100DC00008244E4E4E4A2408E0180482020101898C
:100DD000FDFDFAFEFCF8E0030C1B3F3F7F7F7F7FA9
:100DE0007F3F3F1F0F030000E0F0F8FCFC7C7C7CA1
:100DF000D830E00000000003070F1B171410100983
:100E0000040300000C0C0C0C0CFCFC0C0C0C0C0C6B
:100E10000C0000F0F00C0C0C0C0C0CF0F00000FCC2
:100E2000FC000000000000FCFC0000FCFC8C8C8C32
:100E30008C8C8C0C0C0000FCFC0C0C8C8C8C8C7046
:100E4000700000000000000000000000000000FF33
:100E5000FF0000008080808080870718181898980D
:100E600098878780809F9F86061F1F06061F1F800A
:100E7000809F9F999999991919181800009F9F8030
:100E800000010101819E1E00808000000000808022
:100E900000000000001F1F00FEFE01010101010112
:100EA000FEFE0000FFFF3131313131310101000020
:100EB0000000000000FFFF0101313131310E0E0052
:100EC00000FEFE313131FEFE0000FFFF0000FFFF9B
:100ED00003060C18FFFF00000000000000000000E7
:100EE00003030303030300000000030300000000EA
:100EF00000000000000000000000000303000000EC
:100F000000000000000000030300000003030000D5
:100F100003030000030300000000030307060504A9
:100F20000100080A0B0C0D09101FFF3000F8FF002C
:100F3000002F771C3F7DFDED9FF37D3F00000001FA
:100F400001000000002C3038001C0C34080B00029B
:100F50000202000009040000010202000005240052
:100F600010010524010101042402060524060001E4
:100F70000705810310004009040100020A00000077
:100F80000705020240000007058302400000040339
:100F9000090412010002EF020140412336800001E2
:100FA0000102030141726475696E6F204C4C43006D
:100FB00041726475696E6F204C656F6E6172646F0B
:100FC0000003FF0202020202020202020202020205
:100FD000020202020202020202020202020202FFF4
:100FE0000300FF00000000000080402020101010CF
:100FF00010101010102020C000000000000000FFA2
:101000000000FF00000000003BCC00009669418119
:1010100009390101827C840403000000000000FF04
:101020000000FF0000000000000102E418080000BA
:10103000A161010934C2010000000000000000FFAE
:101040000000FF0000000000001C3360E0C0202012
:1010500020202040C0C0271800000000000000FF32
:1010600000C0FF4040404040404040404040404081
:10107000404040404040404040404040404040FFB1
:10108000C003FF0202020202020202020202020284
:10109000020202020202020202020202020202FF33
:1010A0000300FF00000000000000804040202020DE
:1010B000202020202040408000000000000000FF91
:1010C0000000FF0000000000769900002CD2820290
:1010D0001272020204F8080906000000000000FF76
:1010E0000000FF0000000000000304C831100001F0
:1010F00042C202126984030000000000000000FFE9
:101100000000FF0000000000001C3360E0C0202051
:1011100021202040C0C1261800000000000000FF70
:1011200000C0FF40404040404040404040404040C0
:10113000404040404040404040404040404040FFF0
:10114000C003FF02020202020202020202020202C3
:10115000020202020202020202020202020202FF72
:101160000300FF000000000000008040402020201D
:10117000202020202040408000000000000000FFD0
:101180000000FF00000000007699000028D88808C1
:101190004848080850F010130C000000000000FF41
:1011A0000000FF0000000000000304C8311000012F
:1011B00042C202126984030000000000000000FF28
:1011C0000000FF0000000000001C3360E0C0202091
:1011D00021202040C0C1261800000000000000FFB0
:1011E00000C0FF4040404040404040404040404000
:1011F000404040404040404040404040404040FF30
:10120000C0FF000000000000FF8181818181818199
:1012100081FF010101010101FFFF8080808080804A
:10122000FF81818181818181FFFF81818181818134
:1012300081007050781C061208007C464A4A467CA1
:1012400000E0B8A8A8A8A8B8E000103C3E763C1082
:101250000000103C7E363C10000020546E6E54207E
:1012600000003C4E5E4A623C00001E22727A3E1E26
:101270000000401030180C0600003060500A060CC8
:1012800000001E224242261E00000C1E3C3C1E0C8A
:101290000000000000000000FFFF00000000000050
:1012A0000080808080808080800101010101010137
:1012B0000180808080808080FFFF808080808080AF
:1012C0008001010101010101FFFF01010101010193
:1012D0000103FF02020202020202020202020202F1
:1012E000028242824202020202020202020202FF61
:1012F0000300FF0000000004CC3804080464242428
:101300006447C0030E38C000008000F7000000FFF3
:101310000000FF00E010C86825A2B9AD850585ADC5
:10132000B9A22469CA14EF0000F700FB000000FF17
:101330000000FF00073803A62646946800C0006836
:10134000944426A603B807000007BD00000000FF74
:101350000000FF00000000000304012AEAE92A0A55
:1013600001041318FEFB1C0000007F00000000FFBA
:1013700000C0FF404040404040404040404040406E
:10138000404040404040404040404040404040FF9E
:10139000C003FF0202020202020202020202020271
:1013A000028242824202020202020202020202FFA0
:1013B0000300FF0000000004CC38040804A4242427
:1013C0006447C0030E38C000008000EF000000FF3B
:1013D0000000FF00C02090D04B44725A0A0A0A5AFB
:1013E000724449D3962CCF0000EF00F7000000FFB5
:1013F0000000FF000F70074C4C8D29D1018001D1F6
:1014000029894C4C07700F0000077B00000000FF8B
:101410000000FF000000000106080354D4D3541458
:1014200003081619FCFB1C0000007F00000000FFF1
:1014300000C0FF40404040404040404040404040AD
:10144000404040404040404040404040404040FFDD
:10145000C000104C3B2E741C00001C742E3B4C1022
:101460000003FF0202020202020202020202020260
:10147000020202020202020202020202020202FF4F
:101480000300FF000000000000C020100888104882
:101490008408041820C0000000000000000000FFC5
:1014A0000000FF0000000000030418C49781000141
:1014B000859D8181463A010000000000000000FF88
:1014C0000000FF000000000080000F986E03328CC7
:1014D0005030518E2867408080C00000000000FF1F
:1014E0000000FF000010081609070300B4FE1108F1
:1014F00004040408B3FC000103040B04080000FF0B
:1015000000C0FF40404040404040404040404040DC
:10151000404040404040404040404040404040FF0C
:10152000C003FF02020202020202020202020202DF
:10153000020202020202020202020202020202FF8E
:101540000300FF000000000000C0201008881048C1
:101550008408041820C0000000000000000000FF04
:101560000000FF00000000000304984457C1000180
:10157000859D818146BA010000000000000000FF47
:101580000000FF00000000000000070CF701328C93
:101590005030518E34C3800000800000000000FFF6
:1015A0000000FF000020102C130E0601B4FE1108ED
:1015B00004040408B3FC000307091608100000FF28
:1015C00000C0FF404040404040404040404040401C
:1015D000404040404040404040404040404040FF4C
:1015E000C00000603A2E5000000000502E3A60000B
:1015F00000890440800102209103FF0202020202DE
:1016000002020202020202020282428242222242BA
:1016100082020202020202FF0300FF000000000437
:10162000CC38040804A424246447C0030E38C00442
:101630000B040000000000FF0000FF00000000009D
:101640008366984457E9E040829E8183463C0F00C0
:10165000808A540850A040FF0000FF000000008274
:1016600045A8D7AC54A485C46320309BEC0C060578
:1016700052291709050201FF0000FF0000000101C7
:1016800009051422E1E934180A151A14FCFB1C00A0
:1016900000000000000000FF00C0FF40404040404C
:1016A000404040404040404040404040404040403A
:1016B00040404040404040FFC003FF02020202029F
:1016C00002020202020202020202020202828202FA
:1016D00002020202020202FF0300FF0000000010EB
:1016E00030E0102010909090901E010E39E0001113
:1016F0002E100000000000FF0000FF0000000000AE
:101700000F9860105CA680000979070C18F03F80E4
:1017100040C5AA84A850A0FF0000FF0000000008F8
:1017200016A15EB1519397D16E22329AED06030253
:1017300029140B04020100FF0000FF000000040652
:101740000B051522E1E93418142A3428F8F738007B
:1017500000000000000000FF00C0FF40404040408B
:101760004040404040404040404040404040404079
:1017700040404040404040FFC00C14483B2E4C10BD
:101780000000104C2E3B48140C080440800102203D
:101790001003FF020202020202020202020202021D
:1017A000028242824202020202020202020202FF9C
:1017B0000300FF0000000004CC38040804A4242423
:1017C0006447C0030E38C00000000000000000FFA6
:1017D0000000FF00000000008366984457E9E040E5
:1017E000829E8183463C0F0080804080000000FF85
:1017F0000000FF000000008245A8D7AC54A485C4B7
:101800006320309BEC0C06057E81F907000000FF89
:101810000000FF000000010109051422E1E934186D
:101820000A151A14FCFB1C00000F0100000000FF49
:1018300000C0FF40404040404040404040404040A9
:10184000404040404040404040404040404040FFD9
:10185000C003FF02020202020202020202020202AC
:10186000020202020202020202020202020202FF5B
:101870000300FF000000001030E010201090909056
:10188000901E010E39E0000000000000000000FF83
:101890000000FF00000000000F9860105CA68000B0
:1018A0000979070C18F03F8040C0A0C0000000FF7D
:1018B0000000FF000000000816A15EB1519397D10F
:1018C0006E22329AED0603023FC0FC03000000FFC7
:1018D0000000FF00000004060B051522E1E93418A2
:1018E000142A3428F8F7380000070000000000FF31
:1018F00000C0FF40404040404040404040404040E9
:10190000404040404040404040404040404040FF18
:10191000C000104C3B2E4C100000104C2E3B4C10C5
:101920000000244A200452240003FF0202020202A3
:101930000202020202020202828282020202020207
:1019400002020202020202FF0300FF000000007018
:1019500088060104F8003E410001C23C000000007E
:1019600000000000000000FF0000FF000000000079
:1019700001364880203101012121E1020408F000F4
:1019800000000000000000FF0000FF000000000059
:10199000804030060D080814C41212D2124D800087
:1019A00000000000000000FF0000FF000000000B2E
:1019B00034102010E0E030103B00183FF0E81F002A
:1019C00000000000000000FF00C0FF404040404019
:1019D0004040404040404040404040404040404007
:1019E00040404040404040FFC003FF02020202026C
:1019F0000202824202020282422262A20202020227
:101A000002020202020202FF0300FF0000000000C7
:101A10007C820100215E808FB080C0300F0000000A
:101A200000000000000000FF0000FF0000000000B8
:101A3000001D2240901C00001010700102847800EC
:101A400000000000000000FF0000FF000000000098
:101A5000804030030604040AE20909E909668000AF
:101A600000000000000000FF0000FF000000001563
:101A70003A102010E0E030103B000C1FF8F40F008B
:101A800000000000000000FF00C0FF404040404058
:101A90004040404040404040404040404040404046
:101AA00040404040404040FFC000005439374800AB
:101AB00000000048363954000003FF02020202828F
:101AC0000282828202020202020202020202020276
:101AD00002020202020202FF0300FF000000804037
:101AE00021320E01018182828406020202C44C4826
:101AF00090400000000000FF0000FF00001E0904ED
:101B00000C9261105CA600000979070C18F03F8068
:101B100070A900B890A000FF0000FF0000000000C6
:101B200016A940B6498191CD6A2A329AE90C06037A
:101B300000030002010000FF0000FF000000040697
:101B40000B051522E1E934180A151A14FCFB1C00D8
:101B500000000000000000FF00C0FF404040404087
:101B60004040404040404040404040404040404075
:101B700040404040404040FFC003FF02020202429A
:101B8000824242C282820202020202020202020275
:101B900002020202020202FF0300FF000000C02056
:101BA0001019870000404141C28381010162A624CF
:101BB00048A00000000000FF0000FF00000F04022A
:101BC00006C93008AED38080043C03068C781F80A1
:101BD000701840A830A000FF0000FF0000000000C7
:101BE0008B74009B448080D669253599EC060302EE
:101BF00001030003010000FF0000FF0000000406D5
:101C00000B051522E1E93418142A3428F8F73800B6
:101C100000000000000000FF00C0FF4040404040C6
:101C200040404040404040404040404040404040B4
:101C300040404040404040FFC00008503A2E500015
:101C4000000000502E3A50080091201A25A4580494
:101C50008903FF02020202020202020202020202DF
:101C6000020202020202020202020202020202FF57
:101C70000300FF000000000000806018102040A05A
:101C80001E040808D0E0C00000000000000000FFB3
:101C90000000FF0000000000020588708C020012A6
:101CA000127202040BF68F0000000000000000FF1B
:101CB0000000FF00000000207E972E4021DF0098EA
:101CC000C20A1A029D60B091FE000000000000FFF1
:101CD0000000FF000000007C7310090BFBFD1C7767
:101CE000711818FCFF01000000000000000000FF58
:101CF00000C0FF40404040404040404040404040E5
:101D0000404040404040404040404040404040FF14
:101D1000C003FF02020202020202020202020202E7
:101D2000020202020202020202020202020202FF96
:101D30000300FF000000000000806018102040A099
:101D40001E040808D0E0C00000000000000000FFF2
:101D50000000FF0000000000020508708C02001265
:101D6000127202040BF50F0000000000000000FFDB
:101D70000000FF000000000078ECBE4121DF009869
:101D8000C20A1A029D6022FC00000000000000FF51
:101D90000000FF000000007C7310090AFBFD1C77A7
:101DA0007108081CFFF2030100000000000000FFA2
:101DB00000C0FF4040404040404040404040404024
:101DC000404040404040404040404040404040FF54
:101DD000C00000547B2E5860000060582E7B5400D9
:101DE0000003FF02020202028202820202020202D7
:101DF000020202020202020202020202020202FFC6
:101E00000300FF00007886E1100DC06A349810507E
:101E10009010101020C0000000000000000000FF23
:101E20000000FF00000007010006994447C10001BF
:101E3000859D8181423A010000000000808000FF02
:101E40000000FF00000000000000070CF7414B38C5
:101E50008CC65CA93618080D32080504020100FF83
:101E60000000FF000000201010080804B5FA130954
:101E700004040408B3FC000000000000000000FFA0
:101E800000C0FF4040404040404040404040404053
:101E9000404040404040404040404040404040FF83
:101EA000C003FF0202020202020202020202020256
:101EB000020202020202020202020202020202FF05
:101EC0000300FF0000C03008846804A8D0604040D0
:101ED000404040408000000000000000000000FF83
:101EE0000000FF0000033C0F001867111C060005EE
:101EF0001674040408EB040000000000000000FF5A
:101F00000000FF000000000000001E31DD072C6013
:101F1000B29A526629B0101A64100A08050300FF2D
:101F20000000FF000000201010080804F5FA130953
:101F300005040811E6F8000000000000000000FFA2
:101F400000C0FF4040404040404040404040404092
:101F5000404040404040404040404040404040FFC2
:101F6000C000104C3B2E483F00003F482E3B4C1019
:101F7000000804508C310A201003FF020202020202
:101F800002020202028202828202020202020202B1
:101F900002020202020202FF0300FF000000000032
:101FA000C060F008E8140102040932C2040810E01D
:101FB00000000000000000FF0000FF000000000023
:101FC00007091020438418E000F04F201E0B070380
:101FD00000000000000000FF0000FF000000000003
:101FE0000000000000000103000608E000000000FF
:101FF00000000000000000FF0000FF0000000000E3
:102000000000000000000038C002010000000000D5
:1020100000000000000000FF00C0FF4040404040C2
:1020200040404040404040404040404040404040B0
:1020300040404040404040FFC003FF020202020215
:1020400002020202020282028282020202020202F0
:1020500002020202020202FF0300FF000000000071
:10206000C0E0D008E8140001020431C2048850E046
:1020700000000000000000FF0000FF000000000062
:10208000070D1320438418E000F04F20100F0703C2
:1020900000000000000000FF0000FF000000000042
:1020A000000000000000010300060408F00000002A
:1020B00000000000000000FF0000FF000000000022
:1020C0000000000000003840840200010000000011
:1020D00000000000000000FF00C0FF404040404002
:1020E00040404040404040404040404040404040F0
:1020F00040404040404040FFC0000E1428540A0AAF
:1021000004040A0A5428140E0003FF020202020209
:10211000020202020202020202020202020202029F
:1021200002020202020202FF0300FF0000008080A0
:1021300040402020101070F0F0F0D0F0701010200F
:1021400020404080800000FF0000FF0000000001F0
:102150000102020404080808080808080808040422
:1021600002020101000000FF0000FF00000000006B
:1021700000000000B4000000006700000000D8006C
:1021800000000000000000FF0000FF000000000051
:10219000000000001B000000001200000000DB0037
:1021A00000000000000000FF00C0FF404040404031
:1021B000404040404040404040404040404040401F
:1021C00040404040404040FFC003FF020202020284
:1021D00002020202020202020202020202020202DF
:1021E00002020202020202FF0300FF0000008080E0
:1021F00040402020101070F0F0F0F0D0701010204F
:1022000020404080800000FF0000FF00000000012F
:102210000102020404080808080808080808040461
:1022200002020101000000FF0000FF0000000000AA
:1022300000000000DC000000003300000000A800E7
:1022400000000000000000FF0000FF000000000090
:102250000000000015000000001300000000BF0097
:1022600000000000000000FF00C0FF404040404070
:10227000404040404040404040404040404040405E
:1022800040404040404040FFC000081C541408003B
:10229000000008145C140800000814408241022861
:1022A0001003FF020202020202020202020202C242
:1022B00032C202020202020202020202020202FF11
:1022C0000300FF000000808040402020101076F1C5
:1022D000F0F0D3D47010102020404080800000FF28
:1022E0000000FF0000000001010202C424108888E1
:1022F00084844444C444C4C4C8D261C1000000FF03
:102300000000FF000000406050584E412020109017
:10231000102222A424252525150C0601000000FF0B
:102320000000FF00000000000000000000000003AB
:102330001C700F000000000000000000000000FF03
:1023400000C0FF404040404040404040404040408E
:10235000404040404040404040404040404040FFBE
:10236000C003FF020202020202020202020202C2D1
:1023700032C202020202020202020202020202FF50
:102380000300FF000000808040402020101076F104
:10239000F0F0F3D47010102020404080800000FF47
:1023A0000000FF00000000010102E2100848442282
:1023B00022121272D2F2F2F47812E101000000FF50
:1023C0000000FF0000000000F84720101008688897
:1023D000111112D21212120A06030000000000FFAF
:1023E0000000FF00000000000000000000000003EB
:1023F0001C700F000000000000000000000000FF43
:1024000000C0FF40404040404040404040404040CD
:10241000404040404040404040404040404040FFFD
:10242000C000083C5614080000000814563C080080
:102430000003FF020202020202020202020202FA88
:1024400002020202FA02020202020202020202FF77
:102450000300FF000000008080C04040C0C0F00FBB
:10246000000000000FF0000000000000000000FF6E
:102470000000FF00000001020404898B4B3F0300B1
:102480000000000000033C4080800000000000FFCE
:102490000000FF0000000000000102824424240428
:1024A000ACAC54540464C48402020100000000FF78
:1024B0000000FF000000000000000003444C5880B2
:1024C0008A2A5505C060201F00000000000000FFA0
:1024D00000C0FF40404040404040404040404040FD
:1024E000404141414040404040404040404040FF2A
:1024F000C003FF020202020202020202020202FA08
:1025000002020202FA02020202020202020202FFB6
:102510000300FF000000008040C06020E0E0F807FA
:102520000000000007F8000000000000000000FFAD
:102530000000FF00000001020484494B2B1F010032
:102540000000000000011E2040408000000000FF4D
:102550000000FF0000000000000001E1120A0A0272
:102560005656AAAA0262C28201010000000000FFC2
:102570000000FF0000000000000000004143468012
:102580008595AA82C060201F00000000000000FFA7
:1025900000C0FF404040404040404040404040403C
:1025A000404040404040404040404040404040FF6C
:1025B000C000081C54360900000008145C360900ED
:1025C0000003FF02020202020202020202020202EF
:1025D000828282828282820202020202020202FF5E
:1025E0000300FF0000000000000000F80C261309A3
:1025F000000000003038000123320408F00000FF22
:102600000000FF0000000000000000030C12161480
:10261000141414101410101010100806030000FFFA
:102620000000FF000000F018CC26120A0101010191
:10263000E1F1010102C6E40810608000000000FF23
:102640000000FF0000000F10262E2C28282820282C
:10265000202020202020202820180F00000000FF2C
:1026600000C0FF404040404040404040404040406B
:10267000404040404040404040404040404040FF9B
:10268000C003FF020202020202020202020202026E
:10269000020202020202020202020202020202FF1D
:1026A0000300FF0000000000000000F0184C26129C
:1026B000010101016171010246640810E00000FFA0
:1026C0000000FF0000000000000000038C929694C0
:1026D000949494901410101010100806030000FF3A
:1026E0000000FF000000F80C661309050000000060
:1026F00070780000016372040830C000000000FF21
:102700000000FF0000000F10262E2E2C2828202865
:10271000202020202020202820180F00000000FF6B
:1027200000C0FF40404040404040404040404040AA
:10273000404040404040404040404040404040FFDA
:10274000C02424CB300CD3242403FF020202020253
:102750000202020202028282828282828282020259
:1027600002020202020202FF0300FF00000000005A
:10277000C038040211111050488898A8B8B8B99A06
:10278000CC380000000000FF0000FF00080C0A0B1E
:10279000090804048282828484848484840402017B
:1027A00000000000000000FF0000FF000000F80C27
:1027B0006613090500000000E0F000000001C3E21C
:1027C000040830C0000000FF0000FF0000000F18E8
:1027D000262E2E2C282828202820202020202020AB
:1027E0002820180F000000FF00C0FF40404040407C
:1027F00040404040404040404040404040404040D9
:1028000040404040404040FFC003FF02020202023D
:102810000202020202028282828282828282020298
:1028200002020202020202FF0300FF000000000099
:10283000C03804021111084844849CB4BCBCBD9E3D
:10284000C4380000000000FF0000FF000000003E50
:102850001188848442424244444444444484820172
:1028600000000000000000FF0000FF000000FC0668
:102870003309040200000000F07800000000E1715C
:10288000020418E0000000FF0000FF0000000F1825
:10289000272F2F2E2C2828202820202020202020E1
:1028A0002820180F000000FF00C0FF4040404040BB
:1028B0004040404040404040404040404040404018
:1028C00040404040404040FFC042A902481240956D
:1028D0004203FF020202020202020202020202029A
:1028E000020202020202020202020202020202FFCB
:1028F0000300FF00000000000000000000000000D6
:10290000000000000000000000000000000000FFC8
:102910000000FF0000000000008080804040404038
:10292000404040404080800000000000000000FF68
:102930000000FF000000FC06330904020000000054
:10294000F07800000000E171020418E0000000FFD0
:102950000000FF0000000F18272F2F2E2C28282002
:1029600028202020202020202820180F000000FFF1
:1029700000C0FF4040404040404040404040404058
:10298000404040404040404040404040404040FF88
:10299000C003FF020202020202020202020202025B
:1029A000020202020202020202020202020202FF0A
:1029B0000300FF0000000000000000000000000015
:1029C000000000000000000000000000000000FF08
:1029D0000000FF00000000000000000080808080F8
:1029E000808080808000000000000000000000FF68
:1029F0000000FF000000F80C66130905000000004D
:102A00007078000000016372040830C0000000FF0D
:102A10000000FF0000000F18262E2E2C282828204A
:102A200028202020202020202820180F000000FF30
:102A300000C0FF4040404040404040404040404097
:102A4000404040404040404040404040404040FFC7
:102A5000C0007068687878700000605050707060D6
:102A60000000932811241FBECFEFDAE0DEBFCDBFF8
:102A700011E0A0E0B1E0E0E1FFE602C005900D92B8
:102A8000AE36B107D9F726E0AEE6B1E001C01D923F
:102A9000AA3FB207E1F715E1C2E3D5E104C02197EF
:102AA000FE010E948037C133D107C9F70E94072970
:102AB0000C9486370C94000080916E010895E0918B
:102AC0009C0698E0E99F90011124E0919D06E20F99
:102AD000F32FF11DEB5EF94F93E080A3878F868F74
:102AE000915038979111F9CF0895CF93DF93E82F44
:102AF000F0E070E0DF0123E0AA0FBB1F2A95E1F7A9
:102B0000AB5EB94FA60FB71F57962C915797213040
:102B100019F5EF0193E0CC0FDD1F9A95E1F7C35F44
:102B2000D94FC60FD71F2F892230B0F456962C915B
:102B30005697223088F483E0EE0FFF1F8A95E1F765
:102B4000E35EF94FE60FF71F8789823028F481E0B2
:102B500058969C91923008F080E0DF91CF910895D3
:102B6000E9E0F2E0A0E0B8E000800EBC8111012CA9
:102B70001197A0FDFDCF0192B9F70DB408954F92C2
:102B80005F926F927F928F929F92AF92BF92CF92FD
:102B9000DF92EF92FF920F931F93CF93DF9330E07A
:102BA000F901E80FF91F1E161F060CF09BC08038B4
:102BB00091050CF097C0FB01E00FF11D1E161F06DA
:102BC0000CF090C0603471050CF08CC0DB0177FF15
:102BD00004C0AA27BB27A61BB70BA770BB27FB0106
:102BE00077FD3796C3E0F595E795CA95E1F777FF4E
:102BF00007C0319768E070E0EB01CA1BDB0BDE0118
:102C0000802E869486948694912C077019F0DFEFBD
:102C10008D1A9D0ABF018A01AF015695542F442792
:102C200057954795480F591F475F5D4F860E971E72
:102C3000E8E0F0E03F016A1A7B0A6F3FEFEF7E07A2
:102C40000CF443C07C01D0E0C0E05A01E0E8AE0ED5
:102C5000B11CF7FC2EC06F3F760709F454C0F80191
:102C6000EC0FFD1FE4916A01CC0EDD1EF0E02F0198
:102C70000A2E01C0440C0A94EAF7F6015080452858
:102C800040821097B1F06730710599F0F801EC0FB0
:102C9000FD1FE4916501CC0EDD1EF0E02F01062C36
:102CA00002C0559447940A94E2F7F60150804528F3
:102CB00040822196FFEFEF1AFF0AC217D3072CF4C8
:102CC000F0E8EF16F10409F0C4CF6F5F7F4F020FF9
:102CD000131F40585F4F8616970621F06830710524
:102CE00009F0ABCFDF91CF911F910F91FF90EF9043
:102CF000DF90CF90BF90AF909F908F907F906F901C
:102D00005F904F900895109709F0C0CFD2CF8F9267
:102D10009F92AF92BF92CF92DF92EF92FF920F936A
:102D20001F93CF93DF93D82FC62F08E028E049ECFC
:102D300052E170E060E090E080E00E94BF158D2FCE
:102D40008250990B5C016C0123E0CC0CDD1C2A95B0
:102D5000E1F728E041EC52E170E060E0C6010E943A
:102D6000BF158C2F8250990B7C014C0133E0880CED
:102D7000991C3A95E1F728E049EB52E1B40190E063
:102D800080E00E94BF1528E041EB52E1B401C6018A
:102D90000E94BF1511E0C12FD0E0CA15DB05BCF4BD
:102DA00093E0CC0FDD1F9A95E1F708E028E049EAAF
:102DB00052E170E060E0CE010E94BF1528E041EAD8
:102DC00052E1B401CE010E94BF151F5FE4CF11E0B4
:102DD000C12FD0E0CE15DF05BCF483E0CC0FDD1FA2
:102DE0008A95E1F708E028E049E952E1BE0190E068
:102DF00080E00E94BF1528E041E952E1BE01C60112
:102E00000E94BF151F5FE4CFDF91CF911F910F91FB
:102E1000FF90EF90DF90CF90BF90AF909F908F90FA
:102E20000895DF92EF92FF920F931F93CF93DF935A
:102E30008C01D0909C06ED2DF0E0AF01480F591F9A
:102E400090919D06E92EF12CE701C60FD71FDA01FC
:102E500033E0AA0FBB1F3A95E1F7AB5EB94FAC0F59
:102E6000BD1F57968C91882319F123E0EE0FFF1FA9
:102E70002A95E1F7EB5EF94FEE0DFF1D2789233010
:102E800010F021E0278B0D0D00939C06690F6093D5
:102E90009D06833068F0552793E0440F551F9A959F
:102EA000E1F74B5E594FC40FD52FD11D91E09F8B99
:102EB000DF91CF911F910F91FF90EF90DF900895D8
:102EC000E5E1F6E0178A168E389686E0E538F807D1
:102ED000C9F7ECE2F6E01192DF01A959BF4F1C924D
:102EE00086E0E433F807B9F708959F92AF92BF9256
:102EF000CF92DF92EF92FF920F931F93CF93DF93C6
:102F000060919D0628E0629FB00111246450710910
:102F100080919C06A8E08A9FC0011124049720910B
:102F2000D00608E0263070F528E041E552E10E9425
:102F3000BF15C4E0D0E011E0FE01E75EF94F6F017C
:102F40005F0184E0E82EF12C9924939480919C06F3
:102F5000811304C080919D06891501F1D601589610
:102F6000EC91E250E930D0F4F0E0E754F84E0C94E4
:102F70008037C617EE17F317F817FD170218071852
:102F80000C18111828E049E452E1D1CF08E028E0FC
:102F900041E452E1B701CE010E94BF150E946017C3
:102FA000F601808D882309F4C6C0D50190969C91C6
:102FB000909750962C918789222309F452C0992327
:102FC00009F43EC081115CC0818D08E028E049EA27
:102FD00052E1811141C049E052E13EC008E028E0E1
:102FE00049E352E1D7CF08E028E041E752E1D2CFF0
:102FF00008E028E049E652E1CDCF08E028E049E8C2
:1030000052E1C8CF08E028E041E652E1C3CF08E032
:1030100028E049E552E1BECF08E028E041E352E173
:10302000B9CF8091D0064091220650912306863078
:1030300020F0409124065091250608E028E0AACF10
:10304000882309F453C0818D08E028E041E952E16A
:10305000811102C041EB52E1B701CE010E94BF15C0
:1030600016C0992309F451C0882389F1818D08E0A5
:1030700028E049E952E18111EFCF49EB52E1ECCF71
:10308000818D08E028E041EA52E1882329F30E947B
:1030900060179394F8E0EF0EF11C2FEFC21AD20ADA
:1030A0008FEFA81AB80A97E0991250CF1F5F2896A1
:1030B0001D3009F041CFDF91CF911F910F91FF900B
:1030C000EF90DF90CF90BF90AF909F900895818D4B
:1030D00008E028E049EC52E18111BECF818D08E083
:1030E00028E049E252E18111D2CFB6CF818D08E0CC
:1030F00028E041EC52E18111AFCF818D08E028E05A
:1031000041E252E18111C3CFA7CF882359F0818DCD
:1031100008E028E049E152E1882309F49DCF41E02D
:1031200052E19ACF818D08E028E041E152E1882305
:1031300009F4ADCF91CF40912A0650912B0608E0BB
:1031400028E08ACF482FA0EAB6E028EA36E0FD0161
:1031500080E09085941308C09781993028F48111FC
:1031600003C09F5F978381E032962E173F0789F750
:10317000811123C030E020E018969C911897992384
:1031800011F0491314C017969C911797993078F451
:10319000F901EE0FFF1FE056F94F9F5F9783220F53
:1031A000331FF901E855F94F408381E008952F5FFF
:1031B0003F4F129624303105F9F60895E0EAF6E023
:1031C00030E020E09085891741F02F5F3F4F329625
:1031D00024303105B9F780E00895A901440F551F47
:1031E000FA01E056F94F8781811101C081E08150D9
:1031F0004056594FFA018783811106C0220F331FB1
:10320000F901E855F94F108281E0089585E00E94A8
:10321000DE1881111DC09091A206992351F02AE079
:103220002093A30621E02093A40691509093A20638
:1032300008958AE08093A3061092A4062091A00628
:103240002150330B37FD20E02093A00681E02111AF
:1032500080E008958091AF069091B0062091B50668
:103260003091B6064091B1065091B206B901640F93
:10327000751F6817790770F0E091B306F091B406F6
:103280006E177F0748F0840F951F8217930730F061
:1032900083E0089580E0089581E0089582E0089534
:1032A000FC018091A601882311F13FB7F89482E0D8
:1032B0008093E9002091F200822F90E01816190601
:1032C00014F481E090E0882339F0289844E6409394
:1032D000A5014091F1004083222339F02091F200B2
:1032E000211103C02BE62093E8003FBF08958FEF24
:1032F0009FEF08952FB7F89483E08093E9009091B1
:10330000E800892F807295FF04C09091F20080E45C
:10331000891B2FBF089580919D0181110DC082E00E
:103320008093990184E080939A0110929C011092FD
:103330009B0181E080939D0189E991E00895CF93FD
:10334000DF931F92CDB7DEB76983DC01ED91FC916D
:103350000280F381E02D41E050E0BE016F5F7F4FBE
:1033600009950F90DF91CF91089583E08093E90054
:103370008091F200882319F08AE38093E800089591
:103380000E947A1990E00895CF93DF931F92CDB7F2
:10339000DEB7FC018485958597FD08C02FEF3FEFD0
:1033A000358724870F90DF91CF910895CE01019644
:1033B0000E945019019719F4898190E0F3CF8FEFA3
:1033C0009FEFF0CF0F931F93CF93DF931F92CDB753
:1033D000DEB78C01FC018485958597FF0BC0CE017B
:1033E00001960E945019019771F4898190E0F801CB
:1033F00095878487F801848595850F90DF91CF911B
:103400001F910F9108958FEF9FEFF1CFFC018485FD
:10341000958597FD0BC09FB7F89482E08093E900F3
:103420008091F2009FBF90E0019608959FB7F894B5
:1034300082E08093E9008091F2009FBF90E00895C0
:10344000409193015091940120919101309192010A
:1034500042175307B4F49091E8009570E1F390910E
:10346000E80092FD19C08093F10080919301909142
:10347000940101968F739927892B19F48EEF80930D
:10348000E8008091930190919401019690939401AA
:103490008093930181E0089580E00895DF92EF9298
:1034A000FF920F931F93CF93DF93D82E8A01EB01E6
:1034B0007B01E40EF51ECE15DF0559F0D7FE12C0D4
:1034C000FE0184910E94201A21968111F4CF0FEF02
:1034D0001FEFC801DF91CF911F910F91FF90EF90E7
:1034E000DF9008958881EECF0F931F93CF93DF93E2
:1034F0001F92CDB7DEB782E0898342E450E06CE4EE
:103500007FE080E80E944E1A0E948B19DC0112961F
:103510000D911C910115110589F0D801ED91FC91D7
:103520000280F381E02DBE016F5F7F4FC8010995D6
:1035300097FD04C0F80100851185ECCF89810F90BB
:10354000DF91CF911F910F910895615030F020913C
:10355000F100FC0120830196F8CF289884E680933F
:10356000A5010895AF92BF92CF92DF92EF92FF92A2
:103570000F931F93CF93DF936C017B018B01040F9B
:10358000151FEB015E01AE18BF08C017D10759F037
:103590006991D601ED91FC910190F081E02DC60179
:1035A0000995892B79F7C501DF91CF911F910F9173
:1035B000FF90EF90DF90CF90BF90AF9008953FB70E
:1035C000F89480917E0190917F01A0918001B0914B
:1035D000810126B5A89B05C02F3F19F00196A11DBA
:1035E000B11D3FBFBA2FA92F982F8827BC01CD014D
:1035F000620F711D811D911D42E0660F771F881FAC
:10360000991F4A95D1F708958F929F92AF92BF92DA
:10361000CF92DF92EF92FF926B017C010E94DF1A42
:103620004B015C01C114D104E104F104B9F00E9422
:10363000DF1A681979098A099B09683E7340810578
:10364000910580F321E0C21AD108E108F10888EE63
:10365000880E83E0981EA11CB11CE4CFFF90EF9070
:10366000DF90CF90BF90AF909F908F9008958F92F2
:103670009F92AF92BF92CF92DF92EF92FF920F9301
:103680001F93CF93DF936C017B018A0180910C0122
:10369000882309F45CC08091A601882309F457C0EF
:1036A0008091980180FF05C08091E0008260809346
:1036B000E000E801B12C8AEFA82E93E0892E2AE3DE
:1036C000922E209711F4BB20D9F10E947A19811112
:1036D0000AC0AA94AA20D9F161E070E080E090E0ED
:1036E0000E94041BEECF8C171D0611F00CF08C2FDE
:1036F0009FB7F8948092E9002091E80025FD02C070
:103700009FBFDFCF282F30E0C21BD30BF7018150C2
:1037100020F041914093F100FACFE20EF31EBB205E
:1037200021F09092E800B12CEBCF8091E80085FD6C
:10373000E7CF9092E800BB24B394209709F3F3CF2E
:103740005D9884E680939701101611063CF081E0A5
:1037500090E0F6019383828310E000E0C801DF91DE
:10376000CF911F910F91FF90EF90DF90CF90BF907E
:10377000AF909F908F9008956F927F928F929F92BB
:10378000AF92BF92CF92DF92EF92FF920F931F936F
:10379000CF93DF934C017B01C22F102F98E0A92E0D
:1037A000B12C642E669466946694712CCA0187705D
:1037B0009927892B79F5D40117962D913C91C70152
:1037C0009927B9010E946C37269DF001279DF00DC5
:1037D000369DF00D11248E0F9F1FD4011596ED918B
:1037E000FC91E80FF91F2081111112C0C095C2236E
:1037F000C083DF91CF911F910F91FF90EF90DF90E9
:10380000CF90BF90AF909F908F907F906F900895D2
:10381000C22BEECFD0E04770C42ED12C83E0660CD3
:10382000771C8A95E1F79E0101C0220F4A95EAF7BD
:10383000012FA301B701C4010E94BC1BA301485F73
:103840005F4FC5018C199D0902C0D595C7958A9512
:10385000E2F7A7CF5F926F927F928F929F92AF9283
:10386000BF92CF92DF92EF92FF920F931F93CF936D
:10387000DF93EC016A30F1F48D859E859C878B8700
:103880008C892F853889820F932F911D988B8F8774
:1038900081E090E0DF91CF911F910F91FF90EF9029
:1038A000DF90CF90BF90AF909F908F907F906F9060
:1038B0005F900895AB84BC84693031F429E0A20E96
:1038C000B11CBC86AB86E4CF3DEFA3163FEFB30639
:1038D0000CF45DC08F819885A816B9060CF057C00E
:1038E000CF84D8888DEFC8168FEFD8060CF44FC060
:1038F00089859A85C816D9060CF049C0603208F44B
:103900006FE780EE860F9FE9960F9A3118F49FEFCC
:10391000C91AD90A8C3011F08B3119F42FEFC21A61
:10392000D20A869534E0839FC00111249C01255C56
:10393000334F7901912C812C162F1170F701E80D6E
:10394000F91D549011112DC0352D3F70532E3501A6
:10395000680C791C8C81882361F001E089899A893F
:10396000892B09F000E02FE0A601B301CE010E94EF
:10397000BC1B0989252DA601B301CE010E94BC1BE9
:103980008FEF881A980A94E089169104B9F68B890A
:1039900090E004962B853C85820F931F9C878B8734
:1039A00077CF52948FE05822D2CF20917601E091C8
:1039B0007401F0917501CF01029690937501809387
:1039C0007401222319F08591949108958081918149
:1039D0000895CF92DF92EF92FF92CF93DF930E94F0
:1039E000D51C811520E8920791F4809171008D7F9C
:1039F000809371001092910046984798109273013D
:103A0000DF91CF91FF90EF90DF90CF90089521E06C
:103A100020937301813020E8920751F48091710165
:103A20009091720190937501809374010E94D51C4E
:103A300097FD05C020917001222309F454C0209104
:103A40006F01211150C021E020937701EC01DF7755
:103A5000209709F04BC081E08093780146983FE9B8
:103A6000C32E3FE0D32EE12CF12CCAEFD0E0E09141
:103A70000702F09108020995811103C081E080934B
:103A8000780180917701882329F08091780188233B
:103A900009F43FC047980E94D51C0097F1F19C01A2
:103AA000DE010E942536DC01CB0129E0B595A79502
:103AB000979587952A95D1F7109290002AE0209348
:103AC0009100D0929900C0929800809379019093D0
:103AD0007A01A0937B01B0937C0180917100826098
:103AE000809371008DCF10927701B0CF9E0150E08E
:103AF00040E060E472E48FE090E00E94D13569011B
:103B00007A0181E0C81AD108E108F1081092780121
:103B1000AECF4699BFCF479ABECF8FEF9FEFDC0164
:103B2000CBCF9C01E1E7F0E090819D7F90831092E4
:103B30007601E9EFF1E0F0937501E0937401F09301
:103B40007201E0937101318320837383628380E08B
:103B500090E8958384830C94E91C2D9A0895BC0108
:103B600090E080E00C94041B8FB18095807F669B71
:103B700088601C9B8460089510926E013E983F9867
:103B800008953E9A3F9A81E080936E01089520E166
:103B900091E061FD94E060FD990F62FD9295687F70
:103BA000269FD0011124A80FA75FBD4F8C9140FF25
:103BB00003C0892B8C93089590958923FBCF8F9216
:103BC0009F92AF92BF92CF92DF92EF92FF920F93AC
:103BD0001F93CF93DF936D3089F0C0908601D09012
:103BE00087016A30D1F4109285011092840188E037
:103BF000C80ED11CD0928701C092860181E090E06E
:103C0000DF91CF911F910F91FF90EF90DF90CF90B8
:103C1000BF90AF909F908F90089500918401109174
:103C20008501E5E06E9FE0011124C55CD84F580185
:103C3000F12CF5E0E12CFF1629F0CE010196FE01F2
:103C4000E490EC01912C812CF0E8AF16B10458F40B
:103C5000B601680D791D6034710528F44E2D417050
:103C6000C5010E94C71DE6948FEF881A980AE8E004
:103C70008E16910449F7F394FFEFAF1ABF0A86E05E
:103C8000F812D7CF0A5F1F4F10938501009384016C
:103C9000B5CF90918201982329F4909183019823C4
:103CA00081E009F480E008951F93CF93DF93D82F2C
:103CB00010919F060E94491EC82F112359F08111AF
:103CC00006C0C0E08C2FDF91CF911F910895109214
:103CD0009F06F8CF882329F082E080939E06C1E0FA
:103CE000F1CF0E94B41D8D23D81304C080919E068D
:103CF000882391F30E94B41D8D23D813E2CF8091C5
:103D00009E068823F1F2815080939E06DBCF80E0EF
:103D10000C94B01582E390E00E94AF1D0E94B41D88
:103D20008111F8CF089588E00E94491E811103C0D7
:103D300080E20C94491E089584E00E94491E81117E
:103D400003C080E40C94491E089568E270E088E5A1
:103D500092E00C94911D68E270E088EC90E00C9485
:103D6000911D62E370E08CEB92E00C94911D62E394
:103D700070E08AEF90E00C94911DCF93DF93EC01FB
:103D800080E80E94491E882329F08881882311F049
:103D90008150888380E10E94491E882331F0888108
:103DA0009981891710F48F5F8883DF91CF910895EF
:103DB000089590E080E008951F93CF93DF93D82F6C
:103DC0000E94003564E070E00E946C3781309105FC
:103DD000B1F12CF4C1E0892BB1F080E02CC082302D
:103DE000910509F43FC0CCE00397B9F710E0612FCB
:103DF0008C2F0E94751581112AC01F5F1730B9F7EB
:103E0000C150A1F718C011E0612F8C2F0E947515C9
:103E1000882359F098E0C99FB00111246B5E794F57
:103E2000610F711DFB01D78B06C01F5F173061F753
:103E3000CF5FCD3041F7DF91CF911F910895C1E061
:103E400016E0612F8C2F0E947515882329F0F8E069
:103E5000CF9FB0011124E2CF115099F7CF5FCD3041
:103E600079F7E9CFCCE016E0612F8C2F0E94751511
:103E70008111EDCF1150C1F7C150A9F7DCCF0F93DD
:103E80001F93CF93DF93182F0AE0C4E0D0E00E9485
:103E90000035BE010E946C3781309105E9F134F4A0
:103EA000892B29F1015099F780E04CC082309105AF
:103EB00009F44DC00397B1F720919C06223090F38E
:103EC00030919D06E22FE150FF0BCF0143E0880FB8
:103ED000991F4A95E1F78B5E994F830F911DFC0165
:103EE00087891813DFCF215020939C062AC0809128
:103EF0009D068230B8F2E0919C0648E0E49FF00114
:103F00001124EB5EF94FE80FF11D96891913CACF02
:103F1000815080939D0615C080919C068C3010F6D0
:103F2000E0919D0658E0859F90011124235E394F52
:103F3000E20FF32FF11D97891913B4CF8F5F809390
:103F40009C0681E0DF91CF911F910F9108958091A0
:103F50009D06863008F0A6CFE0919C0698E0E99F88
:103F6000F0011124EB5EF94FE80FF11D908D19134C
:103F700099CF8F5FCECF0F931F93CF9381E0809324
:103F80009F06E5E1F6E085E896E0178A108E118E2F
:103F9000128E138E148E158E168E38968E179F07DE
:103FA000A1F786E080939C0683E080939D0681E0E4
:103FB00080935F06C2E380E00E943F1F811103C02F
:103FC00081E00E943F1F80919C0620919D0638E071
:103FD000839FC00111248B5E994F820F911D21E0B8
:103FE000FC01278BC15039F786E080939C0683E063
:103FF00080939D0680E00E945F15109219068091C3
:10400000150690911606873E9340B0F582E00E9417
:10401000DC1E0E94003580FD09C00E94003566E06C
:1040200070E00E946C378D5F0E94DC1E8091150647
:1040300090911606892B01F1C0E003E010E00E9488
:104040000035B8010E946C37C817190609F02CF426
:104050008AE00E94DC1ECF5FF2CF0E940035B801DB
:104060000E946C37892B41F489E00E94DC1E882372
:1040700019F081E08093190681E0CF911F910F9193
:104080000C945F15E5E1F6E01182108210929E0615
:10409000138212820E94BB1FE0EAF6E089E080836F
:1040A00081E0818312821382108A1786128A118A14
:1040B000148A138A168A158A178210861186128628
:1040C000138614861092A8011092A7010895CF9329
:1040D000C82F80E0C11106C00E9400356FE070E07B
:1040E0000E946C3780931D069091210689130CC0A5
:1040F000C1110AC0811104C08EE080931D0604C066
:104100008E30E1F410921D06E0911D06E093210629
:10411000EE3008F0A6C1F0E0E057FF4D0C94803778
:10412000A020C320E120FB20152133214D216B214C
:104130008521A321BD21DB21F92117228F5FDDCF4E
:1041400089E59AE2909323068093220681E59AE21C
:10415000909325068093240681E999E2909327069F
:104160008093260681ED98E2909329068093280695
:1041700085E08093200689EC98E290932B0680934B
:104180002A06CF91089589E59AE2909323068093B9
:10419000220681E59AE2909325068093240689E021
:1041A00098E2909327068093260689E497E29093FD
:1041B0002906809328068AE08093200681E497E20E
:1041C000DCCF89E59AE2909323068093220681E56D
:1041D0009AE2909325068093240681E896E29093D4
:1041E00027068093260681EC95E29093290680931A
:1041F00028068CE0BECF89EB95E29093230680934E
:10420000220681EB95E2909325068093240681EFA8
:1042100094E2909327068093260681E394E290939C
:104220002906809328068FE0C7CF89E294E2909315
:1042300023068093220681E294E2909325068093E0
:10424000240681E693E2909327068093260681EA6E
:1042500092E290932906809328068FE080932006AF
:1042600089E992E28ACF81E992E2909323068093D2
:10427000220689E892E2909325068093240689EC31
:1042800091E2909327068093260689E091E290932D
:1042900029068093280684E1E1CF81E091E29093A2
:1042A00023068093220689EF90E29093250680935F
:1042B000240689E390E2909327068093260689E7F7
:1042C0009FE190932906809328068CE08093200636
:1042D00081E79FE152CF89E69FE190932306809387
:1042E000220681E69FE1909325068093240681EAC9
:1042F0009EE1909327068093260681EE9DE19093A0
:104300002906809328068FE0E1CF89ED9DE1909307
:1043100023068093220681ED9DE1909325068093EC
:10432000240681E19DE1909327068093260681E58E
:104330009CE1909329068093280684E180932006CF
:1043400089E49CE11ACF81E49CE190932306809359
:10435000220689E39CE1909325068093240689E751
:104360009BE1909327068093260689EB9AE1909330
:1043700029068093280686E1E1CF81EB9AE19093AC
:1043800023068093220689EA9AE19093250680937A
:10439000240689EE99E1909327068093260689E208
:1043A00099E190932906809328068EE18093200658
:1043B00081E299E1E2CE89E199E19093230680932D
:1043C000220681E199E1909325068093240681E5F8
:1043D00098E1909327068093260681E997E19093D0
:1043E00029068093280689E18093200689E897E1D1
:1043F000C4CE81E897E1909323068093220689E753
:1044000097E1909325068093240689EB96E190939B
:1044100027068093260689EF95E1909329068093DD
:10442000280689E18093200681EF95E1A6CE89EEEA
:1044300095E1909323068093220681EE95E1909377
:1044400025068093240681E295E1909327068093C8
:10445000260681E694E1909329068093280686E15A
:10446000E1CF89E594E1909323068093220681E5CC
:1044700094E1909325068093240681E993E190933B
:1044800027068093260681ED92E19093290680937A
:10449000280683E2A9CF009769F0FC010190002073
:1044A000E9F73197AF01481B590BBC0187EB96E048
:1044B0000C94B21A90E080E00895CF92DF92EF92D0
:1044C000FF920F931F93CF93DF93CDB7DEB7A197E2
:1044D0000FB6F894DEBF0FBECDBF70E07093C50677
:1044E0006093C4067093C3066093C20650E0509375
:1044F000C7064093C60650E040E019A28E010F5D4A
:104500001F4F8AE0C82ED12CE12CF12CCA01B90131
:10451000A70196010E940336605DF80162938F0146
:10452000211531054105510589F7309761F001905A
:104530000020E9F73197AF01401B510BB80187EB21
:1045400096E00E94B21AA1960FB6F894DEBF0FBE95
:10455000CDBFDF91CF911F910F91FF90EF90DF9032
:10456000CF9008950C94BB350E94B41D82FF48C0C3
:104570002D980E94B41D84788438E1F40E94AD1D0A
:1045800088EC90E00E94AF1D2F9882E090E00E949E
:10459000BB358F3F29F06FEF82E090E00E94C3357A
:1045A00084EF91E00E94AF1D2F9A0E94B41D847881
:1045B0008438D9F30E94B41D84718431E1F40E94DF
:1045C000AD1D88EC90E00E94AF1D2E9882E090E037
:1045D0000E94BB35882329F060E082E090E00E94D1
:1045E000C33584EF91E00E94AF1D2E9A0E94B41D46
:1045F00084718431D9F388EC90E00E94AF1DB4CF70
:104600000C94AD1DCF93DF93CDB7DEB76E970FB689
:10461000F894DEBF0FBECDBF70E0E0EAF6E075A310
:1046200064A373A362A350E057A346A3E22FF0E074
:10463000EE0FFF1FE756F94F65917491CE01019679
:104640000E94B4350E944B226E960FB6F894DEBFDE
:104650000FBECDBFDF91CF910895CF93DF9320910F
:10466000CD06222351F02091CC064CE360E087EB8D
:1046700096E0DF91CF910C940223EC0120E04CE313
:1046800060E087EB96E00E9402239E014CE36CE31E
:1046900087EB96E0DF91CF910C945D22CF93DF936F
:1046A000CDB7DEB72A970FB6F894DEBF0FBECDBFE9
:1046B00070E0E0EAF6E075A364A373A362A350E0A0
:1046C00057A346A3E22FF0E0EE0FFF1FE35AF94F86
:1046D00065917491CE0101960E94B4350E944B22DF
:1046E0002A960FB6F894DEBF0FBECDBFDF91CF91F3
:1046F00008950F93CF93DF93C82FD62F682F70E0C4
:1047000008E028E08BE690E00E94BF15CF5F2DE126
:104710004C2F65E787EB96E00E944E232D2F30E06B
:104720004C2F6BE787EB96E0DF91CF910F910C94C4
:104730005D22EF92FF920F931F93CF93DF938091AF
:10474000A306882319F081508093A3068091A306C5
:10475000882309F464C080FD62C08091A406882388
:1047600051F06091A0066A3008F069E049E852E132
:1047700081E00E9479238091A406813051F06091FC
:10478000A2066A3008F069E041E852E188E00E9440
:1047900079238091A406823051F06091A1066A309D
:1047A00008F069E049E752E18FE00E94792380EA4E
:1047B000E82E86E0F82EC8E1D0E0F701808585304C
:1047C00009F451C008F040C008E028E041E752E198
:1047D000843009F442C0F7018781823090F02DE1E6
:1047E0001C2F1E5F412F65E787EB96E00E944E234A
:1047F000F701278130E0412F6BE787EB96E00E94BD
:104800005D22F2E0EF0EF11C2896C833D105A9F61F
:10481000DF91CF911F910F91FF90EF9008956091DC
:10482000A0066A3008F069E049E852E181E00E94A0
:1048300079236091A2066A3008F069E041E852E10C
:1048400088E00E947923A9CF873091F008E028E022
:1048500049E552E1883009F0BECFBE018BE690E019
:104860000E94BF15B8CF08E028E049E652E1F5CF35
:1048700008E028E041E652E1F0CFEF92FF920F937B
:10488000CF93C82F7B0180911B0600E320E241E417
:1048900051E181110AC08091D00600E320E241E895
:1048A00050E1863010F041EC5FE064E070E084E0BD
:1048B00090E00E94BF1587EEE81683E0F80641F508
:1048C00025E348E068E287EB96E00E94022326E3B6
:1048D00040E168E287EB96E00E9402232AE248E189
:1048E00068E287EB96E00E9402232CE240E268E255
:1048F00087EB96E00E94022327EE33E040E264E675
:1049000087EB96E0CF910F91FF90EF900C945D2292
:1049100080911A0690911B06992359F1811125C0A7
:1049200029E144E360E587EB96E00E944E2329E20B
:1049300048E068E287EB96E00E9402232BE240E128
:1049400068E287EB96E00E9402232AE248E168E2EF
:1049500087EB96E00E9402232CE240E268E287EBBC
:1049600096E00E9402239701C9CF815080931A06D6
:10497000DECF811124C029E144E360E587EB96E0B6
:104980000E944E230E942A19813029F1E0F08230E2
:1049900021F1833021F12FE2CB3020F5EC2FF0E034
:1049A000EC52FB4D0C948037F124F124F1240A25BC
:1049B0000A250A250C250E250E25102512258150C5
:1049C00080931A06DFCF25E248E068E287EB96E0A5
:1049D0000E940223E0CF26E2F7CF27E2F5CF28E2BC
:1049E000F3CF2DE248E168E287EB96E00E940223D4
:1049F0002AE240E168E287EB96E00E9402232AE285
:104A000040E268E287EB96E0CF910F91FF90EF9044
:104A10000C94022321E3E6CF20E3E4CF22E3E2CFAC
:104A20002EE2E0CF23E3DECF1F920F920FB60F925C
:104A300011248F939F938091E1009091E100937FE7
:104A40009093E10083FF0FC01092E90091E09093F2
:104A5000EB001092EC0092E39093ED001092A6010F
:104A600098E09093F00082FF22C093E09093E900D9
:104A70009091F200992319F09AE39093E8009091B5
:104A80009701992341F0909197019150909397014C
:104A9000911101C05D9A9091A501992341F09091E7
:104AA000A50191509093A501911101C0289A84FF0E
:104AB00018C08091E2008E7E81608093E200809138
:104AC000E1008F7E8093E100809198018E7E80616D
:104AD000809398019F918F910F900FBE0F901F9020
:104AE000189580FFF7CF8091E2008E7E80618093E1
:104AF000E2008091E1008E7E8093E1008091980138
:104B00008E7E8160E5CF1F920F920FB60F92112417
:104B1000CF92DF92EF92FF920F931F932F933F93C9
:104B20004F935F936F937F938F939F93AF93BF93B5
:104B3000EF93FF93CF93DF93CDB7DEB76C97DEBFD4
:104B4000CDBF1092E9008091E80083FF25C068E0A6
:104B5000CE0145960E94A51A82EF8093E8008D89C8
:104B600087FF39C09091E80090FFFCCF982F907696
:104B700009F034C19E894F89588D2F89F88C911185
:104B800031C0803861F5809196018093F1001092D8
:104B9000F1008EEF8093E8006C960FB6F894DEBFBC
:104BA0000FBECDBFDF91CF91FF91EF91BF91AF913C
:104BB0009F918F917F916F915F914F913F912F9135
:104BC0001F910F91FF90EF90DF90CF900F900FBE4D
:104BD0000F901F9018959EEF9093E800C7CF10920A
:104BE000F100D5CF913059F48111D3CF4130510527
:104BF00081F6809196018D7F80939601CACF933084
:104C000049F48111C6CF4130510519F680919601C2
:104C10008260F2CF953041F48091E80080FFFCCFB4
:104C200020682093E300B5CF963009F0A9C00B8D22
:104C30001C8D22E01092E9001092940110929301D1
:104C4000F2122EC010929201109291010E94741AD9
:104C50001F8299E09983FA8291E09E8390EA988777
:104C60009AEF99872091930130919401275F3F4FEC
:104C70003C832B838D831092E90010929401109253
:104C80009301109392010093910149E050E0BE011D
:104C90006F5F7F4F80E00E944E1A0E94741A79CF96
:104CA00010939201009391010E948B19DC011296DE
:104CB0000D911C910115110509F451C1D801ED9117
:104CC000FC910480F581E02DBE016B5E7F4FC80131
:104CD0000995009709F03EC1F80100851185EACFDA
:104CE000F3E0FF120EC08F89882309F440C08230A0
:104CF00061F440E860E180EB9FE00E946028811150
:104D000048CF81E28093EB0047CF813029F440E81F
:104D10006BE084EA9FE0F1CF833099F70E948B1912
:104D2000DC011296ED90FC908E010F5F1F4F680121
:104D3000E114F10479F0D701ED91FC910680F7813F
:104D4000E02DB801C7010995080F111DF701E08496
:104D5000F184EECFD8011C92F60101900020E9F712
:104D60003197BF016C197D0940E0C601C6CF6EE8DE
:104D70007FE0FB01449150E080E80E944E1A09CF89
:104D8000973009F4BECF983021F481E08093F10090
:104D900000CF993009F0FDCE837009F0B2CFEEE379
:104DA000F1E081E031E096E32191222371F08093DC
:104DB000E9003093EB00DF0111972C912093EC0078
:104DC0009093ED008F5F873079F78EE78093EA004C
:104DD0001092EA008F898093A601DBCE8B8D9C8D8B
:104DE0001092E90010929401109293019093920115
:104DF00080939101898D811192C08E899D89913A0C
:104E000049F4813209F07DCF47E050E065E071E080
:104E100080E0B3CF913209F074CF833269F48F8987
:104E2000988DB0E0A0E08093010190930201A093DF
:104E30000301B0930401ADCE803269F48091E800A3
:104E400082FFFCCF67E085E091E00E94A51A8BEF1E
:104E50008093E8009ECE823209F09BCE8F898093AA
:104E60000C01EEEFFFE7859194918B3F9C4D51F142
:104E7000E0E0F8E08091050190910601A091070122
:104E8000B0910801803B9440A105B105F1F48091F7
:104E90000C0180FD1AC0EE3F8AE0F80789F587E72C
:104EA00097E791838083809160008093950188E1EA
:104EB0009BE00FB6F894A895809360000FBE909386
:104EC000600067CEEEEFFAE0D5CF80819181873721
:104ED000974709F05ECEA895809160008861809325
:104EE00060008091950180936000EE3F2AE0F20718
:104EF00089F08091FE0A9091FF0A9183808349CEC8
:104F0000808191818737980751F29093FF0A8093AF
:104F1000FE0AC5CF1092FF0A1092FE0A3ACE0E94F6
:104F20008B19DC0112960D911C910115110509F4E4
:104F3000E8CED801ED91FC910190F081E02DBE0109
:104F40006B5E7F4FC8010995811123CEF801008562
:104F50001185EBCF181619060CF41BCED2CEF1E05A
:104F6000FF12BECE62E97FE004CF1F920F920FB610
:104F70000F9211242F933F938F939F93AF93BF93DF
:104F80008091890190918A01A0918B01B0918C014F
:104F900030917D0123E0230F2D3758F50196A11D97
:104FA000B11D20937D018093890190938A01A09384
:104FB0008B01B0938C0180917E0190917F01A09133
:104FC0008001B09181010196A11DB11D80937E01E8
:104FD00090937F01A0938001B0938101BF91AF9125
:104FE0009F918F913F912F910F900FBE0F901F9027
:104FF000189526E8230F0296A11DB11DD2CF1F924E
:105000000F920FB60F9211242F933F934F935F93FC
:105010006F937F938F939F93AF93BF93EF93FF9380
:105020008091790190917A01A0917B01B0917C01EE
:10503000892B8A2B8B2B09F440C080917801811138
:105040000BC088B190E4892788B9809177018823C3
:1050500019F088B1805888B98091790190917A01CE
:10506000A0917B01B0917C01181619061A061B0647
:105070009CF48091790190917A01A0917B01B0918B
:105080007C010197A109B1098093790190937A017C
:10509000A0937B01B0937C01FF91EF91BF91AF9101
:1050A0009F918F917F916F915F914F913F912F9140
:1050B0000F900FBE0F901F9018950E94E91CECCF27
:1050C000EF92FF920F931F93CF93DF93F82E192F38
:1050D000E62E042F81E0860F880F0E94201A83E0BD
:1050E0000E94201ACF2DD12FEC0EFD2EF11CCE15D3
:1050F000DF05B9F007FF13C0FE0184910E94201A5A
:10510000182F80E00E94201A812321968111EFCF71
:10511000DF91CF911F910F91FF90EF9008958881BB
:10512000EDCF81E0F5CFE9EAF1E01382128288EE5B
:1051300093E0A0E0B0E084839583A683B78388E4FE
:1051400091E0918380838FEF9FEF95878487E0EADA
:10515000F6E016821582128E118E8AE591E0908F0C
:10516000878B89E092E0958F848F80E890E0978F1D
:10517000868F80E490E091A380A385E083A781E0FF
:1051800082A715A214A217A216A213A212A221E0AE
:1051900030E031A720A7138E85A798E2E5E1F1E082
:1051A000A1EDB6E001900D929A95E1F71092F90603
:1051B000E5E1F6E0178210861286118613861486C2
:1051C000E1E1F6E0108293E09183EFE0F6E01082F7
:1051D0008183EDE0F6E0108282E08183E9E0F6E091
:1051E0001382128286E691E0918380838CE595E1BB
:1051F000909308028093070280E090E89093060263
:105200008093050246983E9A47983F9A0895CF9317
:10521000DF93CDB7DEB729970FB6F894DEBF0FBE88
:10522000CDBF789484B5826084BD84B5816084BD2F
:1052300085B5826085BD85B5816085BD80916E0034
:10524000816080936E001092810080918100826065
:1052500080938100809181008160809381008091A2
:1052600080008160809380008091910082608093B3
:1052700091008091910081608093910080919000D5
:105280008160809390008091C10084608093C10010
:105290008091C10082608093C1008091C1008160D3
:1052A0008093C1008091C30081608093C30080918E
:1052B000C00082608093C0008091C20081608093B2
:1052C000C20080917A00846080937A0080917A0095
:1052D000826080937A0080917A00816080937A0066
:1052E00080917A00806880937A001092A6011092D3
:1052F0009601109298018091D70081608093D70029
:1053000080EA8093D80089B5806189BD89B58260C3
:1053100089BD09B400FEFDCF61E070E080E090E05F
:105320000E94041B8091D8008F7C80618093D800FC
:105330008091E000807F8093E0008091E1008E7E8C
:105340008093E1008DE08093E200559A209A81ECF1
:1053500080937C0085B1806F85B984B1877E84B9E4
:1053600084B1876E84B95E9A5F988AB1806D8AB97C
:10537000769A6E9881B3806F81BB899880B38D7067
:1053800080BB80E58CBD81E08DBD85E090E00E9412
:10539000AF1D5F9A85E090E00E94AF1D5E985C981B
:1053A000EBEAFDE084918EBD00000DB407FEFDCF59
:1053B00031960DE0E83BF007A9F75C9A81E880930D
:1053C0006400809165008160809365000E94871E63
:1053D0000E94B41D87FF15C05C9885EA8EBD000051
:1053E0000DB407FEFDCF5C9A2E982F982D988091D2
:1053F000640080628093640081E083BF889513BE5F
:10540000FCCF0E94B42282E090E00E94B222882366
:1054100009F479C00E94C11D81E090E00E94B2228F
:10542000182F147081FF0EC011112E9821EF3FEF3D
:105430003B832A830E94B41D86FF68C02E9A2F9A50
:105440000E94AD1D0E948A1E82E48093000180911B
:1054500064008E7F8093640080917A0080648093E2
:105460007A0080917A0086FDFCCF0091780010913F
:1054700079000E94DF1AAB01BC01C801B0E0A0E0D6
:10548000DC01992788278C019D01040F151F261F19
:10549000371FC901B8012091640021602093640086
:1054A000611571058105910511F00E94AB350E94CF
:1054B000B4220E948A1E0E94BC1D8AE08093D006FE
:1054C0001092CE061092CF060E94422004E0202EB9
:1054D000312C8FB7F8944091890150918A016091E5
:1054E0008B0170918C018FBF10918F011983112353
:1054F00009F471C010928F0180E090E0892B49F38C
:105500000E940000E6CF0E94BC1D86CF112331F01F
:105510008A819B81049711F42E9A2F9881E00E9432
:10552000B01500E128E54BEF5CE06A817B8184E106
:1055300090E00E94BF150E94871E8FE090E00E94BD
:10554000AF1DAA81BB811196BB83AA83599709F02D
:1055500071CF112311F02F9A2D9880E991E00E94CC
:10556000AF1D0E94AD1D81E090E00E94B22280FF3D
:1055700069CF8AE090E00E94B2229FEF980F9E3F91
:1055800008F060CF22E330E030938501209384015E
:1055900028E330E030938701209386010BE010E090
:1055A0001B830A83682F89E096E00E94DF1D8A81B1
:1055B0009B810E94B2220A811B810F5F1F4F1B83B8
:1055C0000A830131110571F70E94871E88EE93E06E
:1055D0000E94AF1D37CF80919001242F281B822F6E
:1055E00090910001291748F48F5F891708F084CF44
:1055F00081E083BF889513BE7FCF31E030938F0168
:105600004093900180918D0190918E01019690932D
:105610008E0180938D0180918301809382010E948D
:10562000B41D80938301E9E0F2E0898181118FEF5D
:10563000002481938193819381930394D1F71092F5
:1056400087011092860110928501109284011092B8
:10565000CF0680918801823009F4D5C1C0F4882337
:1056600009F448C0813009F438C183E08093CF0643
:105670006091A5067091A606683E93E0790710F048
:1056800067EE73E080911D060E943D2430C0833098
:1056900009F4F6C4843049F76091A5067091A60616
:1056A000683E83E0780710F067EE73E080911D0696
:1056B0000E943D2480911A06811119C088E00E9441
:1056C000491E81110FC084E00E94491E81110AC049
:1056D00080E20E94491E811105C080E40E94491E9B
:1056E000882329F082E0809388011092F90669E00E
:1056F00081E1EDC60E940035ECE1FFE0E49190917C
:105700007B008E2F880F880F80729F7D892B80935E
:105710007B00E770E064E0937C0080917A00806415
:1057200080937A0080917A0086FDFCCF809178008A
:105730008091790082E08093CF060AE126E444E07C
:105740005EE070E060E090E080E00E94BF15809134
:10575000D0060DE12FE048EC5DE0863008F08BC00C
:1057600065E070E08DE690E00E94BF1508E028E05B
:1057700040EC5DE066E170E090E080E00E94BF15E3
:1057800023E24CE360E087EB96E00E94022321E1F4
:1057900044E366E687EB96E00E944E232CE04CE360
:1057A00066E687EB96E00E944E238091CE0622E1CA
:1057B0004CE36EE4811103C023E14CE36BE487EB1F
:1057C00096E00E944E2340910F06440F440F440F71
:1057D0004C5C28E16EE587EB96E00E944E238FE05B
:1057E00096E00E94BD1E0E949C1E882371F080914D
:1057F0000F06813009F053C09091CE06992309F429
:1058000045C01092CE060E94BC1D8091D0068150EA
:105810008093D00681112CC08091F9068F5F8A3069
:1058200011F40C9494348093F9068091CF06209162
:10583000F906AAE08A9FC00111248056994F820F71
:10584000911DFC0181A9882381F069E170E081301C
:1058500011F40C94983462E370E0823011F00C94EF
:10586000983482E390E00E94911D8AE08093D006F4
:105870000E94871E41CE66E070E08DE690E00E94B7
:10588000BF1508E028E048EB5DE074CF8093CE06BA
:105890000E94C11D0E94B11E1092F906B6CF81115F
:1058A000B4CF0E94B11E0E94422081E08093CC06BA
:1058B0008093CD060E9467208FE080931A06109295
:1058C0001B068091150690911606909318068093FA
:1058D000170684E080938801DFCF8091D00600E333
:1058E00020E241E850E1863010F041EC5FE064E0F6
:1058F00070E084E090E00E94BF15A0EAB6E0BB83B0
:10590000AA8318EAE12E16E0F12EFD01808585308C
:1059100011F40C949C343296EE16FF06B9F7EA8126
:10592000FB818085843011F40C94A8343296FB837B
:10593000EA83EE16FF0699F728E048E068E287EB75
:1059400096E00E944E238091CE0624E1811101C091
:1059500025E144E160E387EB96E00E944E2326E1D7
:105960004CE160E387EB96E00E944E232FE044E297
:1059700060E387EB96E00E944E2340910D06440FB2
:10598000440F440F4C5E28E168E287EB96E00E94EA
:105990004E238DE096E00E94BD1E0E949C1E88232F
:1059A000C9F080910D06823051F1813049F40E9496
:1059B000B11E109288011092F9060E94992385C5A4
:1059C000811108C08091CE06882379F01092CE060E
:1059D0000E94BC1D0E94931E811111C0809115066A
:1059E000909116060E942D23E8CF81E08093CE0689
:1059F0000E94C11D0E94B11E1092F906EBCF82E0F9
:105A000080938801D8CF68E08EE00E94871680914D
:105A10001506909116060E942D230E94992388E076
:105A20000E94491E882331F010920D06F1E0F09398
:105A3000880132CFD090A701D110B5C20E94601763
:105A400080E40E94541E882319F170E060E081E038
:105A500090E00E941117898309810093A8010E9498
:105A60007517002309F4C4C1E02FE150EA3008F0B3
:105A7000BFC1F0E0E25CF24D0C948037652DCD2E75
:105A8000222F6B2F872F8E2F9B2FA22FA92F132E04
:105A900080E20E94541E882329F070E060E08FEFBE
:105AA0009FEFD7CF80E10E94541E61E070E081112A
:105AB00007C080E80E94541E882329F06FEF7FEF13
:105AC00090E080E0C6CF1982C7CF65E1862E66E000
:105AD000962EAA24A394B12CEBE0CE2EFCE07F2ED0
