:100000000C949A150C94C2150C94C2150C94C2153C
:100010000C94C2150C94C2150C94C2150C94C21504
:100020000C94C2150C94C2150C9433240C94A22485
:100030000C94C2150C94C2150C94C2150C94C215E4
:100040000C94C2150C94C2150C94C2150C94C215D4
:100050000C94C2150C94C2150C94C2150C94D426A1
:100060000C94C2150C94C2150C94C2150C94C215B4
:100070000C94C2150C94C2150C94C2150C94C215A4
:100080000C941E270C94C2150C94C2150C94C21526
:100090000C94C2150C94C2150C94C2150C94C21584
:1000A0000C94C2150C94C2150C94C215594F5520CE
:1000B000484954205749544820414E47455200482A
:1000C00049545320414E442052554E5300554E44FE
:1000D00045525354414E44004C45415645532049E6
:1000E0004E20414E474552004E4F44532C20474925
:1000F00056455320504F54494F4E004143434550BD
:1001000054532C2052454C494320464F554E4400F1
:1001100041545441434B530041545441434B532C9D
:100120002044454620444F574E0057494C4C204EE2
:100130004F54204C495354454E0048495453204194
:100140004E442045534341504500484954532041B3
:100150004E442052554E53004749564553204120A6
:1001600052454C494300474956455320594F552065
:100170004120504F54494F4E00535445414C532059
:1001800046524F4D20594F55004953204146524148
:1001900049440041545441434B532C205354522062
:1001A000444F574E004E4F54204252415645204531
:1001B0004E4F554748004849545320414E44205221
:1001C000554E530053434152452C2044454620553B
:1001D00050004146524149442C2044454620555048
:1001E000004641494E54530041545441434B532C13
:1001F0002044454620444F574E0041545441434B00
:10020000532C20485020444F574E0059454C4C53D6
:10021000204241434B00594F5520524546555345C6
:100220000043414E27542054414C4B2057495448D9
:1002300020534C494D4553004255542C204E4F57A6
:1002400020574841543F00594F55204D41444520C7
:10025000495421004B455920464F554E44210047F3
:100260004F2046415354004341524546554C0044AB
:1002700041524B204C4F4F4D5300464C4F57455227
:10028000533F004D4554414C20434C414E4B494E49
:100290004700434F4C4400534C494D453F004D41AE
:1002A00058204C4556454C3A00524554524541540D
:1002B00020464F52204E4F57002E2E2E00594F559C
:1002C0002041524520544952454400594F55204140
:1002D000524520484F504546554C00594F552041F6
:1002E0005245205749534500594F5520415245200A
:1002F000534D41525400594F5520415245205354BB
:10030000524F4E4700544F4F205354524F4E472C9C
:100310002043414E275420455343415045004E4F02
:100320005254482056312E31004E4F2052454C49F0
:100330004320415641494C41424C4500544F4F20C7
:100340005354524F4E472C2043414E275420535074
:10035000415245004C45415645532C20504F54497D
:100360004F4E20464F554E4400454E454D59204C6A
:10037000454156455300594F55204645454C205060
:1003800041494E00454E454D59205741495453006F
:10039000454E454D59205641504F52495A4544000B
:1003A000594F55204645454C205354524F4E4745D2
:1003B00052004D454449554D204445462055500076
:1003C00044454620555000535452205550004D4549
:1003D0004449554D20485020555000594F5520460E
:1003E00041494C45442E2E20545259204147414901
:1003F0004E3F004B4559204E454544454400594F1A
:1004000055204645454C205745414B005041494EEB
:1004100020494E464C494354454400424F544820DD
:100420004449442E2E205041494E205348415245C4
:1004300044004850205550004E4F20504F54494FD3
:100440004E20415641494C41424C450045534341A1
:100450005045205355434345535346554C00464160
:10046000494C2C20594F55204645454C2050414978
:100470004E00504F54494F4E20464F554E44204950
:100480004E2043484553540052454C494320464F63
:10049000554E4420494E2043484553540053484943
:1004A000454C4420464F554E4420494E2043484534
:1004B00053540053574F524420464F554E44204901
:1004C0004E20434845535400454D5054592043480D
:1004D00045535420464F554E4400454E454D5920F6
:1004E000454E434F554E54455200504F54494F4E80
:1004F00020464F554E440052454C494320464F55E7
:100500004E44004C49464520524553544F524544B1
:1005100000534849454C4420464F554E442C2044F6
:10052000454620424F4E555300504F434B45545380
:100530002046554C4C0053574F524420464F554E81
:10054000442C2053545220424F4E555300544F5781
:10055000455220454E5452414E434500544F574555
:1005600052204C4556454C0078004558504C414966
:100570004E00415050524F4143480054485245416B
:100580005400434F4E54494E554500230041424FBD
:100590005554004D2E204D454E5500532E204F46AC
:1005A0004600532E204F4E004F4646004F4E0053FC
:1005B000544152540052554E004241434B00535057
:1005C0004152450052454C494300534F554E44005B
:1005D000414354494F4E0054414C4B004154544107
:1005E000434B004F5054494F4E5300504F54494FC6
:1005F0004E0052454C494300534849454C44005332
:10060000574F52440044454600535452004850004E
:100610000000000000003E5B4F5B3E3E6B4F6B3EB8
:100620001C3E7C3E1C183C7E3C181C577D571C1CF5
:100630005E7F5E1C00183C1800FFE7C3E7FF001850
:10064000241800FFE7DBE7FF30483A060E26297939
:100650002926407F050507407F05253F5A3CE73C9A
:100660005A7F3E1C1C08081C1C3E7F14227F22144B
:100670005F5F005F5F06097F017F006689956A60A2
:100680006060606094A2FFA29408047E04081020B9
:100690007E201008082A1C08081C2A08081E1010B2
:1006A00010100C1E0C1E0C30383E3830060E3E0E5C
:1006B00006000000000000005F00000007000700C7
:1006C000147F147F14242A7F2A12231308646236AD
:1006D000495620500008070300001C224100004139
:1006E000221C002A1C7F1C2A08083E080800807073
:1006F00030000808080808000060600020100804A6
:10070000023E5149453E00427F40007249494946F8
:100710002141494D331814127F1027454545393C76
:100720004A49493141211109073649494936464963
:1007300049291E0000140000004034000000081485
:1007400022411414141414004122140802015909FE
:10075000063E415D594E7C1211127C7F4949493653
:100760003E414141227F4141413E7F494949417FCC
:10077000090909013E414151737F0808087F004182
:100780007F41002040413F017F081422417F4040CB
:1007900040407F021C027F7F0408107F3E414141A0
:1007A0003E7F090909063E4151215E7F091929460C
:1007B000264949493203017F01033F4040403F1F22
:1007C0002040201F3F4038403F6314081463030457
:1007D0007804036159494D43007F414141020408B7
:1007E0001020004141417F0402010204404040408A
:1007F00040000307080020545478407F28444438C0
:100800003844444428384444287F38545454180009
:10081000087E090218A4A49C787F08040478004488
:100820007D40002040403D007F1028440000417F73
:1008300040007C047804787C0804047838444444FC
:1008400038FC1824241818242418FC7C08040408F4
:10085000485454542404043F44243C4040207C1C0D
:100860002040201C3C4030403C44281028444C9000
:1008700090907C4464544C4400083641000000775A
:100880000000004136080002010204023C26232633
:100890003C1EA1A161123A4040207A385454555967
:1008A000215555794121545478412155547840209F
:1008B000545579400C1E52721239555555593954B8
:1008C00054545939555454580000457C4100024550
:1008D0007D420001457C40F0292429F0F02825289C
:1008E000F07C545545002054547C547C0A097F49BF
:1008F00032494949323248484832324A4848303A07
:100900004141217A3A42402078009DA0A07D39449F
:100910004444393D4040403D3C24FF2424487E4926
:1009200043662B2FFC2F2BFF0929F620C0887E0958
:100930000320545479410000447D413048484A32F4
:10094000384040227A007A0A0A727D0D19317D26DC
:1009500029292F28262929292630484D40203808C2
:1009600008080808080808382F10C8ACBA2F102843
:1009700034FA00007B000008142A142222142A14DE
:10098000089500220095AA005500AAAA55AA55AAC2
:10099000000000FF00101010FF00141414FF0010DE
:1009A00010FF00FF1010F010F0141414FC001414C9
:1009B000F700FF0000FF00FF1414F404FC141417E8
:1009C000101F10101F101F1414141F00101010F00F
:1009D000000000001F101010101F10101010F01059
:1009E000000000FF101010101010101010FF100069
:1009F0000000FF140000FF00FF00001F10170000A0
:100A0000FC04F414141710171414F404F40000FF79
:100A100000F714141414141414F700F71414141712
:100A20001410101F101F141414F4141010F010F0F0
:100A300000001F101F0000001F14000000FC140025
:100A400000F010F01010FF10FF141414FF14101019
:100A5000101F00000000F010FFFFFFFFFFF0F0F09C
:100A6000F0F0FFFFFF0000000000FFFF0F0F0F0F6F
:100A70000F38444438447C2A2A3E147E020206067B
:100A8000027E027E0263554941633844443C04407F
:100A90007E201E2006027E020299A5E7A5991C2A47
:100AA000492A1C4C7201724C304A4D4D3030487806
:100AB0004830BC625A463D3E494949007E01010129
:100AC0007E2A2A2A2A2A44445F444440514A444008
:100AD00040444A51400000FF0103E080FF0000084D
:100AE000086B6B083612362436060F090F06000015
:100AF00018180000001010003040FF0101001F0115
:100B0000011E00191D1712003C3C3C3C0000000077
:100B10000000B00000A170E150964F26900F1D0715
:100B20000C009669004AE44A00484440008068107E
:100B3000000F99FB8F9DBDBBFB77D4D4DF1F1A1A22
:100B4000FE7F5D5DFF805A0000A0A4AA0010BA34A9
:100B500000FF5953F3FF9B9B9EFFB9B996FF9595F4
:100B6000D19FF4940FFC295F91FF1838F8FF9294FD
:100B7000FFFF95D5F7BFB5DDD7F18F81F1F788C8B5
:100B8000F779C6467909FD9B090196F800828182B2
:100B900080507162007756560076763700A2B773A0
:100BA000010772060078275000733474007751767D
:100BB000007F55F70047711000324772007364736D
:100BC0000015A2750061679400009F6060F4F2F662
:100BD000F2080B00020202000009040000010202F8
:100BE000000005240010010524010101042402066F
:100BF00005240600010705810310004009040100D7
:100C0000020A0000000705020240000007058302F7
:100C10004000000403090412010002EF02014041F8
:100C200023368000010102030141726475696E6F11
:100C3000204C4C430041726475696E6F204C656FA7
:100C40006E6172646F00F0F89C8E8783878E9CF8CB
:100C5000F00000FEFF0303030303070EFCF800008F
:100C6000FEFF0303030303070EFCF80000FFFF0071
:100C7000000000000000FFFF0000FEFF838383836D
:100C800083C7EE7C380000F8FC0E07030303070E51
:100C9000FCF800003F7FE0C08080C0E07F3FFFFFA6
:100CA00001010101010101FFFF0000FFFF0C0C0C1D
:100CB0000C1C3E77E3C100007FFFC0C0C0C0C0E095
:100CC000703F1F00001F3F70E0C0C0C0E0703F1FBA
:100CD00000007FFFC1C1C1C1C1E3773E1C00001FFE
:100CE0003F70E0C0C0C0E0703F1F00000000000186
:100CF000FFFF01000000D5F08D14A1C881CFD9F10C
:100D0000AF200008244E4E4A4E240808244E4E4E72
:100D10004A24080000F0FF0F08080808080808081F
:100D200008080808080808080808080808080FFF45
:100D3000F0000000F0FF0F0C0C0C0C0C0C0C0C0C59
:100D40000C0C0C0C0C0C0C0C0C0C0C0C0C0C0C0FE0
:100D5000FFF000F0FF0F0E0E0E0E0E0E0E0E0E0E1A
:100D60000E0E0E0E0E0E0E0E0E0E0E0E0E0E0E0EA3
:100D70000FFFF00000000000E0EFEF0000000000B7
:100D800080F3E700000000000FE7F3000000000020
:100D90000079F30C0C0C0C0CFCFC0C0C0C0C0C0C6B
:100DA0000000F0F00C0C0C0C0C0CF0F00000FCFC43
:100DB000000000000000FCFC0000FCFC8C8C8C8C13
:100DC0008C8C0C0C0000FCFC0C0C8C8C8C8C7070D3
:100DD0000000000000000000000000000000000013
:100DE000000000000080C060202060408080C0E0E3
:100DF000F0F8F8FCFCFCFCFCFCFCFCF8F8F8F0E07B
:100E0000C080800000008080C0602000E2CBCB99D1
:100E1000BD3DFD0000000000FFFF0000008080805D
:100E200080808707181818989898878780809F9FD8
:100E300086061F1F06061F1F80809F9F99999999FC
:100E40001919181800009F9F8000010101819E1E42
:100E50000080800000000080800000000000000092
:100E60000010180C0601000000000000000103073C
:100E7000070F0F8FDF7F3F1F07070303070F1F3F7A
:100E80003F4F478783810100000000009FC7D3D9EF
:100E90009CBCBD00000000001F1F00FEFE01010100
:100EA000010101FEFE0000FFFF313131313131011E
:100EB0000100000000000000FFFF0101313131316D
:100EC0000E0E0000FEFE313131FEFE0000FFFF007D
:100ED00000FFFF03060C18FFFF00000000000000E9
:100EE00000000008000010000000080000400000A2
:100EF000000242010000000040000000000000006D
:100F00000010800000010100400000009ECEE4F1CE
:100F1000F7F7F700000000000000000000030303E3
:100F200003030300000000030300000000000000B2
:100F300000000000000000000303000000000000AB
:100F4000000000000303000000030300000303008F
:100F50000003030000000003030000000000000085
:100F60000000000000000000000000000000000081
:100F7000000000000100000000000001000002006D
:100F8000000000000004000000022000068E0E1E7B
:100F90005EDEDE070605040100080A0B0C0D0910D1
:100FA0001FFF3000F8FF00002F771C3F7DFDED9FF5
:100FB000F37D3F0000000101000000FF0000000081
:100FC0000000FF8181818181818181FF0101010117
:100FD0000101FFFF808080808080FF81818181818D
:100FE0008181FFFF81818181818181007050781C26
:100FF000061208000C1E3C3C1E0C00007C464A4AAF
:10100000467C00E0B8A8A8A8A8B8E000103C3E764E
:101010003C100000103C7E363C100003FF02020230
:1010200002020202020202020202020202020202A0
:10103000020202020202020202FF0300FF0000009D
:101040000000000080402020101010101010102010
:1010500020C000000000000000FF0000FF000000B2
:101060000000003BCC00966D438109390101827C70
:10107000840403000000000000FF0000FF000000E7
:101080000000000081E2360C0800A969010934C2A1
:10109000010000000000000000FF0000FF00000051
:1010A0000000001E3360E0C4222020202042C4C083
:1010B000231C00000000000000FF00C0FF40404073
:1010C0004040404040404040404040404040404020
:1010D000404040404040404040FFC003FF02020209
:1010E00002020202020202020202020202020202E0
:1010F000020202020202020202FF0300FF000000DD
:1011000000000000008040402020202020202040BF
:10111000408000000000000000FF0000FF00000011
:101120000000007699002CDA86021272020204F89E
:10113000080906000000000000FF0000FF0000009A
:101140000000000003C46D18100152D2021269841D
:10115000030000000000000000FF0000FF0000008E
:101160000000001C3761E0C8242021202044C8C1B1
:10117000261800000000000000FF00C0FF404040B3
:10118000404040404040404040404040404040405F
:10119000404040404040404040FFC003FF02020248
:1011A000020202020202020202020202020202021F
:1011B000020202020202020202FF0300FF0000001C
:1011C00000000000008040402020202020202040FF
:1011D000408000000000000000FF0000FF00000051
:1011E0000000007699002CD890084848080848F874
:1011F000080906000000000000FF0000FF000000DA
:101200000000000003C46D18100152D2021269845C
:10121000030000000000000000FF0000FF000000CD
:101220000000001C3761E0C8242021202044C8C1F0
:10123000261800000000000000FF00C0FF404040F2
:10124000404040404040404040404040404040409E
:10125000404040404040404040FFC000000000008F
:101260000000FFFF00000000000000808080808000
:101270008080800101010101010101808080808066
:101280008080FFFF808080808080800101010101DB
:101290000101FFFF01010101010101002C303800B3
:1012A0001C0C340020546E6E542000003C4E5E4AEC
:1012B000623C00001E224242261E0000060E1C1840
:1012C0002040005C054D053605290511050305F78D
:1012D00004EA04DA04C804B3049D04880472045EBA
:1012E000044C04380432041B040C04FE03F303DB37
:1012F00003CE03C703C003B203A0039003840376A5
:1013000003690354033C0329031E030503F602E8A3
:1013100002DB02CB02BD02B902A9029E0297029231
:101320000283027A026F0267025F025402470238A8
:1013300002210216020B02FA01E801E101D201C406
:1013400001B601A501930189017901660158014A9D
:10135000013A012A0118011001FB00E800D800CD74
:1013600000BF00AC0010060D0609060506FF05F8D3
:1013700005F205EB05E305DC05D705D005CA05C474
:1013800005BE05B905B505AF05AC05A805A2059BC9
:101390000593058D058B0582057B0572056A056839
:1013A0000503FF020202020202020202020202021C
:1013B000028242824202020202020202020202FF90
:1013C0000300FF0000000004CC3804080464242457
:1013D0006447C0030E38C000008000F7000000FF23
:1013E0000000FF00E010C86825A2B9AD850585ADF5
:1013F000B9A22469CA14EF0000F700FB000000FF47
:101400000000FF00073803A62646946800C0006865
:10141000944426A603B807000007BD00000000FFA3
:101420000000FF00000000000304012AEAE92A0A84
:1014300001041318FEFB1C0000007F00000000FFE9
:1014400000C0FF404040404040404040404040409D
:10145000404040404040404040404040404040FFCD
:10146000C003FF02020202020202020202020202A0
:10147000028242824202020202020202020202FFCF
:101480000300FF0000000004CC38040804A4242456
:101490006447C0030E38C000008000EF000000FF6A
:1014A0000000FF00C02090D04B44725A0A0A0A5A2A
:1014B000724449D3962CCF0000EF00F7000000FFE4
:1014C0000000FF000F70074C4C8D29D1018001D125
:1014D00029894C4C07700F0000077B00000000FFBB
:1014E0000000FF000000000106080354D4D3541488
:1014F00003081619FCFB1C0000007F00000000FF21
:1015000000C0FF40404040404040404040404040DC
:10151000404040404040404040404040404040FF0C
:10152000C000104C3B2E741C00001C742E3B4C1051
:101530000003FF020202020202020202020202028F
:10154000020202020202020202020202020202FF7E
:101550000300FF000000000000C0201008881048B1
:101560008408041820C0000000000000000000FFF4
:101570000000FF0000000000030418C49781000170
:10158000859D8181463A010000000000000000FFB7
:101590000000FF000000000080000F986E03328CF6
:1015A0005030518E2867408080C00000000000FF4E
:1015B0000000FF000010081609070300B4FE110820
:1015C00004040408B3FC000103040B04080000FF3A
:1015D00000C0FF404040404040404040404040400C
:1015E000404040404040404040404040404040FF3C
:1015F000C003FF020202020202020202020202020F
:10160000020202020202020202020202020202FFBD
:101610000300FF000000000000C0201008881048F0
:101620008408041820C0000000000000000000FF33
:101630000000FF00000000000304984457C10001AF
:10164000859D818146BA010000000000000000FF76
:101650000000FF00000000000000070CF701328CC2
:101660005030518E34C3800000800000000000FF25
:101670000000FF000020102C130E0601B4FE11081C
:1016800004040408B3FC000307091608100000FF57
:1016900000C0FF404040404040404040404040404B
:1016A000404040404040404040404040404040FF7B
:1016B000C00000603A2E5000000000502E3A60003A
:1016C00000890440800102209103FF02020202020D
:1016D00002020202020202020282428242222242EA
:1016E00082020202020202FF0300FF000000000467
:1016F000CC38040804A424246447C0030E38C00472
:101700000B040000000000FF0000FF0000000000CC
:101710008366984457E9E040829E8183463C0F00EF
:10172000808A540850A040FF0000FF0000000082A3
:1017300045A8D7AC54A485C46320309BEC0C0605A7
:1017400052291709050201FF0000FF0000000101F6
:1017500009051422E1E934180A151A14FCFB1C00CF
:1017600000000000000000FF00C0FF40404040407B
:101770004040404040404040404040404040404069
:1017800040404040404040FFC003FF0202020202CE
:101790000202020202020202020202020282820229
:1017A00002020202020202FF0300FF00000000101A
:1017B00030E0102010909090901E010E39E0001142
:1017C0002E100000000000FF0000FF0000000000DD
:1017D0000F9860105CA680000979070C18F03F8014
:1017E00040C5AA84A850A0FF0000FF000000000828
:1017F00016A15EB1519397D16E22329AED06030283
:1018000029140B04020100FF0000FF000000040681
:101810000B051522E1E93418142A3428F8F73800AA
:1018200000000000000000FF00C0FF4040404040BA
:1018300040404040404040404040404040404040A8
:1018400040404040404040FFC00C14483B2E4C10EC
:101850000000104C2E3B48140C080440800102206C
:101860001003FF020202020202020202020202024C
:10187000028242824202020202020202020202FFCB
:101880000300FF0000000004CC38040804A4242452
:101890006447C0030E38C00000000000000000FFD5
:1018A0000000FF00000000008366984457E9E04014
:1018B000829E8183463C0F0080804080000000FFB4
:1018C0000000FF000000008245A8D7AC54A485C4E6
:1018D0006320309BEC0C06057E81F907000000FFB9
:1018E0000000FF000000010109051422E1E934189D
:1018F0000A151A14FCFB1C00000F0100000000FF79
:1019000000C0FF40404040404040404040404040D8
:10191000404040404040404040404040404040FF08
:10192000C003FF02020202020202020202020202DB
:10193000020202020202020202020202020202FF8A
:101940000300FF000000001030E010201090909085
:10195000901E010E39E0000000000000000000FFB2
:101960000000FF00000000000F9860105CA68000DF
:101970000979070C18F03F8040C0A0C0000000FFAC
:101980000000FF000000000816A15EB1519397D13E
:101990006E22329AED0603023FC0FC03000000FFF6
:1019A0000000FF00000004060B051522E1E93418D1
:1019B000142A3428F8F7380000070000000000FF60
:1019C00000C0FF4040404040404040404040404018
:1019D000404040404040404040404040404040FF48
:1019E000C000104C3B2E4C100000104C2E3B4C10F5
:1019F0000000244A200452240003FF0202020202D3
:101A00000202020202020202828282020202020236
:101A100002020202020202FF0300FF000000007047
:101A200088060104F8003E410001C23C00000000AD
:101A300000000000000000FF0000FF0000000000A8
:101A400001364880203101012121E1020408F00023
:101A500000000000000000FF0000FF000000000088
:101A6000804030060D080814C41212D2124D8000B6
:101A700000000000000000FF0000FF000000000B5D
:101A800034102010E0E030103B00183FF0E81F0059
:101A900000000000000000FF00C0FF404040404048
:101AA0004040404040404040404040404040404036
:101AB00040404040404040FFC003FF02020202029B
:101AC0000202824202020282422262A20202020256
:101AD00002020202020202FF0300FF0000000000F7
:101AE0007C820100215E808FB080C0300F0000003A
:101AF00000000000000000FF0000FF0000000000E8
:101B0000001D2240901C000010107001028478001B
:101B100000000000000000FF0000FF0000000000C7
:101B2000804030030604040AE20909E909668000DE
:101B300000000000000000FF0000FF000000001592
:101B40003A102010E0E030103B000C1FF8F40F00BA
:101B500000000000000000FF00C0FF404040404087
:101B60004040404040404040404040404040404075
:101B700040404040404040FFC000005439374800DA
:101B800000000048363954000003FF0202020282BE
:101B900002828282020202020202020202020202A5
:101BA00002020202020202FF0300FF000000804066
:101BB00021320E01018182828406020202C44C4855
:101BC00090400000000000FF0000FF00001E09041C
:101BD0000C9261105CA600000979070C18F03F8098
:101BE00070A900B890A000FF0000FF0000000000F6
:101BF00016A940B6498191CD6A2A329AE90C0603AA
:101C000000030002010000FF0000FF0000000406C6
:101C10000B051522E1E934180A151A14FCFB1C0007
:101C200000000000000000FF00C0FF4040404040B6
:101C300040404040404040404040404040404040A4
:101C400040404040404040FFC003FF0202020242C9
:101C5000824242C2828202020202020202020202A4
:101C600002020202020202FF0300FF000000C02085
:101C70001019870000404141C28381010162A624FE
:101C800048A00000000000FF0000FF00000F040259
:101C900006C93008AED38080043C03068C781F80D0
:101CA000701840A830A000FF0000FF0000000000F6
:101CB0008B74009B448080D669253599EC0603021D
:101CC00001030003010000FF0000FF000000040604
:101CD0000B051522E1E93418142A3428F8F73800E6
:101CE00000000000000000FF00C0FF4040404040F6
:101CF00040404040404040404040404040404040E4
:101D000040404040404040FFC00008503A2E500044
:101D1000000000502E3A50080000201A24245804D5
:101D20000003FF0202020202020202020202020297
:101D3000020202020202020202020202020202FF86
:101D40000300FF000000000000806018102040A089
:101D50001E040808D0E0C00000000000000000FFE2
:101D60000000FF0000000000020588708C020012D5
:101D7000127202040BF68F0000000000000000FF4A
:101D80000000FF00000000207E972E4021DF009819
:101D9000C20A1A029D60B091FE000000000000FF20
:101DA0000000FF000000007C7310090BFBFD1C7796
:101DB000711818FCFF01000000000000000000FF87
:101DC00000C0FF4040404040404040404040404014
:101DD000404040404040404040404040404040FF44
:101DE000C003FF0202020202020202020202020217
:101DF000020202020202020202020202020202FFC6
:101E00000300FF000000000000806018102040A0C8
:101E10001E040808D0E0C00000000000000000FF21
:101E20000000FF0000000000020508708C02001294
:101E3000127202040BF50F0000000000000000FF0A
:101E40000000FF000000000078ECBE4121DF009898
:101E5000C20A1A029D6022FC00000000000000FF80
:101E60000000FF000000007C7310090AFBFD1C77D6
:101E70007108081CFFF2030100000000000000FFD1
:101E800000C0FF4040404040404040404040404053
:101E9000404040404040404040404040404040FF83
:101EA000C00000547B2E5860000060582E7B540008
:101EB0000003FF0202020202820282020202020206
:101EC000020202020202020202020202020202FFF5
:101ED0000300FF00007886E1100DC06A34981050AE
:101EE0009010101020C0000000000000000000FF53
:101EF0000000FF00000007010006994447C10001EF
:101F0000859D8181423A010000000000808000FF31
:101F10000000FF00000000000000070CF7414B38F4
:101F20008CC65CA93618080D32080504020100FFB2
:101F30000000FF000000201010080804B5FA130983
:101F400004040408B3FC000000000000000000FFCF
:101F500000C0FF4040404040404040404040404082
:101F6000404040404040404040404040404040FFB2
:101F7000C003FF0202020202020202020202020285
:101F8000020202020202020202020202020202FF34
:101F90000300FF0000C03008846804A8D0604040FF
:101FA000404040408000000000000000000000FFB2
:101FB0000000FF0000033C0F001867111C0600051D
:101FC0001674040408EB040000000000000000FF89
:101FD0000000FF000000000000001E31DD072C6043
:101FE000B29A526629B0101A64100A08050300FF5D
:101FF0000000FF000000201010080804F5FA130983
:1020000005040811E6F8000000000000000000FFD1
:1020100000C0FF40404040404040404040404040C1
:10202000404040404040404040404040404040FFF1
:10203000C000104C3B2E483F00003F482E3B4C1048
:10204000000804508C310A201003FF020202020231
:1020500002020202028202828202020202020202E0
:1020600002020202020202FF0300FF000000000061
:10207000C060F008E8140102040932C2040810E04C
:1020800000000000000000FF0000FF000000000052
:1020900007091020438418E000F04F201E0B0703AF
:1020A00000000000000000FF0000FF000000000032
:1020B0000000000000000103000608E0000000002E
:1020C00000000000000000FF0000FF000000000012
:1020D0000000000000000038C00201000000000005
:1020E00000000000000000FF00C0FF4040404040F2
:1020F00040404040404040404040404040404040E0
:1021000040404040404040FFC003FF020202020244
:10211000020202020202820282820202020202021F
:1021200002020202020202FF0300FF0000000000A0
:10213000C0E0D008E8140001020431C2048850E075
:1021400000000000000000FF0000FF000000000091
:10215000070D1320438418E000F04F20100F0703F1
:1021600000000000000000FF0000FF000000000071
:10217000000000000000010300060408F000000059
:1021800000000000000000FF0000FF000000000051
:102190000000000000003840840200010000000040
:1021A00000000000000000FF00C0FF404040404031
:1021B000404040404040404040404040404040401F
:1021C00040404040404040FFC0000E1428540A0ADE
:1021D00004040A0A5428140E0003FF020202020239
:1021E00002020202020202020202020202020202CF
:1021F00002020202020202FF0300FF0000008080D0
:1022000040402020101070F0F0F0D0F0701010203E
:1022100020404080800000FF0000FF00000000011F
:102220000102020404080808080808080808040451
:1022300002020101000000FF0000FF00000000009A
:1022400000000000B4000000006700000000D8009B
:1022500000000000000000FF0000FF000000000080
:10226000000000001B000000001200000000DB0066
:1022700000000000000000FF00C0FF404040404060
:10228000404040404040404040404040404040404E
:1022900040404040404040FFC003FF0202020202B3
:1022A000020202020202020202020202020202020E
:1022B00002020202020202FF0300FF00000080800F
:1022C00040402020101070F0F0F0F0D0701010207E
:1022D00020404080800000FF0000FF00000000015F
:1022E0000102020404080808080808080808040491
:1022F00002020101000000FF0000FF0000000000DA
:1023000000000000DC000000003300000000A80016
:1023100000000000000000FF0000FF0000000000BF
:102320000000000015000000001300000000BF00C6
:1023300000000000000000FF00C0FF40404040409F
:10234000404040404040404040404040404040408D
:1023500040404040404040FFC000081C541408006A
:10236000000008145C140800000814408241022890
:102370001003FF020202020202020202020202C271
:1023800032C202020202020202020202020202FF40
:102390000300FF000000808040402020101076F1F4
:1023A000F0F0D3D47010102020404080800000FF57
:1023B0000000FF0000000001010202C42410888810
:1023C00084844444C444C4C4C8D261C1000000FF32
:1023D0000000FF000000406050584E412020109047
:1023E000102222A424252525150C0601000000FF3B
:1023F0000000FF00000000000000000000000003DB
:102400001C700F000000000000000000000000FF32
:1024100000C0FF40404040404040404040404040BD
:10242000404040404040404040404040404040FFED
:10243000C003FF020202020202020202020202C200
:1024400032C202020202020202020202020202FF7F
:102450000300FF000000808040402020101076F133
:10246000F0F0F3D47010102020404080800000FF76
:102470000000FF00000000010102E21008484422B1
:1024800022121272D2F2F2F47812E101000000FF7F
:102490000000FF0000000000F847201010086888C6
:1024A000111112D21212120A06030000000000FFDE
:1024B0000000FF000000000000000000000000031A
:1024C0001C700F000000000000000000000000FF72
:1024D00000C0FF40404040404040404040404040FD
:1024E000404040404040404040404040404040FF2D
:1024F000C000083C5614080000000814563C0800B0
:102500000003FF020202020202020202020202FAB7
:1025100002020202FA02020202020202020202FFA6
:102520000300FF000000008080C04040C0C0F00FEA
:10253000000000000FF0000000000000000000FF9D
:102540000000FF00000001020404898B4B3F0300E0
:102550000000000000033C4080800000000000FFFD
:102560000000FF0000000000000102824424240457
:10257000ACAC54540464C48402020100000000FFA7
:102580000000FF000000000000000003444C5880E1
:102590008A2A5505C060201F00000000000000FFCF
:1025A00000C0FF404040404040404040404040402C
:1025B000404141414040404040404040404040FF59
:1025C000C003FF020202020202020202020202FA37
:1025D00002020202FA02020202020202020202FFE6
:1025E0000300FF000000008040C06020E0E0F8072A
:1025F0000000000007F8000000000000000000FFDD
:102600000000FF00000001020484494B2B1F010061
:102610000000000000011E2040408000000000FF7C
:102620000000FF0000000000000001E1120A0A02A1
:102630005656AAAA0262C28201010000000000FFF1
:102640000000FF0000000000000000004143468041
:102650008595AA82C060201F00000000000000FFD6
:1026600000C0FF404040404040404040404040406B
:10267000404040404040404040404040404040FF9B
:10268000C000081C54360900000008145C3609001C
:102690000003FF020202020202020202020202021E
:1026A000828282828282820202020202020202FF8D
:1026B0000300FF0000000000000000F80C261309D2
:1026C000000000003038000123320408F00000FF51
:1026D0000000FF0000000000000000030C121614B0
:1026E000141414101410101010100806030000FF2A
:1026F0000000FF000000C060309848280404040473
:1027000084C404040818902040800000000000FFEA
:102710000000FF0000003F409BB8B0A0A0A080A038
:1027200083838080808383A080613E00000000FF5F
:1027300000C0FF404040404040404040404040409A
:10274000404040404040404040404040404040FFCA
:10275000C003FF020202020202020202020202029D
:10276000020202020202020202020202020202FF4C
:102770000300FF0000000000000000F0184C2612CB
:10278000010101016171010246640810E00000FFCF
:102790000000FF0000000000000000030C121614EF
:1027A000141414101410101010100806030000FF69
:1027B0000000FF000000E030984C241402020202E6
:1027C000C2E20202048CC81020C00000000000FF1A
:1027D0000000FF0000003F4099B8B8B0A0A080A062
:1027E00081818080808181A080603F00000000FFA7
:1027F00000C0FF40404040404040404040404040DA
:10280000404040404040404040404040404040FF09
:10281000C02424CB300CD3242403FF020202020282
:102820000202020202028282828282828282020288
:1028300002020202020202FF0300FF000000000089
:10284000C038040211111050488898A8B8B8B99A35
:10285000CC380000000000FF0000FF00080C0A0B4D
:10286000090804040202020404040404040402012A
:1028700000000000000000FF0000FF000000E0304A
:10288000984C24140202020282C2020202040C8842
:102890001020C000000000FF0000FF0000003F60AB
:1028A00099B8B8B0A0A0A080A383808080808383E3
:1028B000A080603F000000FF00C0FF40404040405B
:1028C0004040404040404040404040404040404008
:1028D00040404040404040FFC003FF02020202026D
:1028E00002020202020282828282828282820202C8
:1028F00002020202020202FF0300FF0000000000C9
:10290000C03804021111084844849CB4BCBCBD9E6C
:10291000C4380000000000FF0000FF000000003E7F
:102920001108040402020204040404040404020161
:1029300000000000000000FF0000FF000000F01891
:10294000CC26120A01010101C1E10101010286C484
:1029500008106080000000FF0000FF0000003F60E2
:102960009CBCBCB8B0A0A080A38180808080838103
:10297000A080603F000000FF00C0FF40404040409A
:102980004040404040404040404040404040404047
:1029900040404040404040FFC042A902481240959C
:1029A0004203FF02020202020202020202020202C9
:1029B000020202020202020202020202020202FFFA
:1029C0000300FF0000000000000000000000000005
:1029D000000000000000000000000000000000FFF8
:1029E0000000FF00000000000000000000000000E8
:1029F000000000000000000000000000000000FFD8
:102A00000000FF000000F018CC26120A01010101AD
:102A1000C1E10101010286C408106080000000FFCE
:102A20000000FF0000003F609CBCBCB8B0A0A080CC
:102A3000A381808080808381A080603F000000FFB0
:102A400000C0FF4040404040404040404040404087
:102A5000404040404040404040404040404040FFB7
:102A6000C003FF020202020202020202020202028A
:102A7000020202020202020202020202020202FF39
:102A80000300FF0000000000000000000000000044
:102A9000000000000000000000000000000000FF37
:102AA0000000FF0000000000000000000000000027
:102AB000000000000000000000000000000000FF17
:102AC0000000FF000000E030984C241402020202D3
:102AD000C2E2020202048CC81020C000000000FF05
:102AE0000000FF0000003F6099B8B8B0A0A0A0802F
:102AF000A181808080808181A080603F000000FFF4
:102B000000C0FF40404040404040404040404040C6
:102B1000404040404040404040404040404040FFF6
:102B2000C000706868787870000060505070706005
:102B30000000B22711241FBECFEFDAE0DEBFCDBF09
:102B400011E0A0E0B1E0EEE3FEE602C005900D92D8
:102B5000AE36B107D9F726E0AEE6B1E001C01D926E
:102B6000A23FB207E1F715E1CAE9D5E104C0219718
:102B7000FE010E941737C939D107C9F70E942828DA
:102B80000C941D370C94000080916E010895CF9332
:102B9000DF93E82FF0E070E0DF0123E0AA0FBB1F16
:102BA0002A95E1F7A05FBD4FA60FB71F55962C9150
:102BB0005597213019F5EF0193E0CC0FDD1F9A9561
:102BC000E1F7C85FDD4FC60FD71F2D892230B0F463
:102BD00054962C915497223088F483E0EE0FFF1F17
:102BE0008A95E1F7E85EFD4FE60FF71F8589823091
:102BF00028F481E056969C91923008F080E0DF91B5
:102C0000CF910895E9EDF2E0A0E0B8E000800EBCBD
:102C10008111012C1197A0FDFDCF0192B9F70DB4E0
:102C200008954F925F926F927F928F929F92AF9290
:102C3000BF92CF92DF92EF92FF920F931F93CF93A9
:102C4000DF9330E0F901E80FF91F1E161F060CF0A4
:102C50009BC0803891050CF097C0FB01E00FF11D7F
:102C60001E161F060CF090C0603471050CF08CC06D
:102C7000DB0177FF04C0AA27BB27A61BB70BA770F1
:102C8000BB27FB0177FD3796C3E0F595E795CA951D
:102C9000E1F777FF07C0319768E070E0EB01CA1BEE
:102CA000DB0BDE01802E869486948694912C07702F
:102CB00019F0DFEF8D1A9D0ABF018A01AF01569509
:102CC000542F442757954795480F591F47525D4F3A
:102CD000860E971EE8E0F0E03F016A1A7B0A6F3F1C
:102CE000EFEF7E070CF443C07C01D0E0C0E05A0156
:102CF000E0E8AE0EB11CF7FC2EC06F3F760709F47A
:102D000054C0F801EC0FFD1FE4916A01CC0EDD1EEA
:102D1000F0E02F010A2E01C0440C0A94EAF7F601F4
:102D20005080452840821097B1F06730710599F0C6
:102D3000F801EC0FFD1FE4916501CC0EDD1EF0E003
:102D40002F01062C02C0559447940A94E2F7F6012D
:102D50005080452840822196FFEFEF1AFF0AC217E4
:102D6000D3072CF4F0E8EF16F10409F0C4CF6F5F3D
:102D70007F4F020F131F40585F4F8616970621F0B2
:102D80006830710509F0ABCFDF91CF911F910F91A2
:102D9000FF90EF90DF90CF90BF90AF909F908F907B
:102DA0007F906F905F904F900895109709F0C0CF7B
:102DB000D2CF8F929F92AF92BF92CF92DF92EF923B
:102DC000FF920F931F93CF93DF93D82FC62F08E066
:102DD00028E043E952E170E060E090E080E00E948A
:102DE00011168D2F8250990B5C016C0123E0CC0CE5
:102DF000DD1C2A95E1F728E04BE852E170E060E045
:102E0000C6010E9411168C2F8250990B7C014C0137
:102E100033E0880C991C3A95E1F728E043E852E149
:102E2000B40190E080E00E94111628E04BE752E1E7
:102E3000B401C6010E94111611E0C12FD0E0CA15DD
:102E4000DB05BCF493E0CC0FDD1F9A95E1F708E0B9
:102E500028E043E752E170E060E0CE010E941116E5
:102E600028E04BE652E1B401CE010E9411161F5F2B
:102E7000E4CF11E0C12FD0E0CE15DF05BCF483E034
:102E8000CC0FDD1F8A95E1F708E028E043E652E128
:102E9000BE0190E080E00E94111628E04BE552E16F
:102EA000BE01C6010E9411161F5FE4CFDF91CF91D2
:102EB0001F910F91FF90EF90DF90CF90BF90AF9058
:102EC0009F908F900895482FA5E9B2E02DE932E058
:102ED000FD0180E09781941308C09681993028F411
:102EE000811103C09F5F968381E032962E173F07C2
:102EF00089F7811123C030E020E017969C91179745
:102F0000992311F0491314C016969C911697993085
:102F100078F4F901EE0FFF1FE556FD4F9F5F908398
:102F2000220F331FF901EB56FD4F478381E00895CF
:102F30002F5F3F4F129624303105F9F60895DF9246
:102F4000EF92FF920F931F93CF93DF938C01D0905A
:102F50008D02ED2DF0E0AF01480F591F90918E02C8
:102F6000E92EF12CE701C60FD71FDA0133E0AA0FD3
:102F7000BB1F3A95E1F7A05FBD4FAC0FBD1F559643
:102F80008C91882319F123E0EE0FFF1F2A95E1F7BA
:102F9000E05FFD4FEE0DFF1D2589233010F021E08D
:102FA000258B0D0D00938D02690F60938E02833087
:102FB00068F0552793E0440F551F9A95E1F7405F5D
:102FC0005D4FC40FD52FD11D91E09D8BDF91CF9127
:102FD0001F910F91FF90EF90DF900895E5E9F2E0E7
:102FE00030E020E09781891741F02F5F3F4F329604
:102FF00024303105B9F780E00895A9014D5F5F4F96
:10300000FA01EE0FFF1FEB56FD4F8081811101C0C9
:1030100081E08150440F551FFA01EB56FD4F80832C
:10302000811106C0220F331FF901EB56FD4F1782A5
:1030300081E0089585E00E94EE17811118C09091FB
:103040009702992339F02AE02093980291509093A7
:10305000970208958AE0809398022091950221506A
:10306000330B37FD20E02093950281E0211180E0B1
:1030700008958091A3029091A4022091A902309119
:10308000AA024091A5025091A602B901640F751FD2
:103090006817790770F0E091A702F091A8026E1707
:1030A0007F0748F0840F951F8217930730F083E065
:1030B000089580E0089581E0089582E00895FC017C
:1030C0008091A601882311F13FB7F89482E08093A4
:1030D000E9002091F200822F90E01816190614F4EE
:1030E00081E090E0882339F0289844E64093A501D8
:1030F0004091F1004083222339F02091F200211108
:1031000003C02BE62093E8003FBF08958FEF9FEFA9
:1031100008952FB7F89483E08093E9009091E80038
:10312000892F807295FF04C09091F20080E4891B82
:103130002FBF089580919D0181110DC082E0809381
:10314000990184E080939A0110929C0110929B0156
:1031500081E080939D0189E991E008954091840187
:1031600050918501209182013091830142175307CC
:10317000B4F49091E8009570E1F39091E80092FD2D
:1031800019C08093F100809184019091850101968E
:103190008F739927892B19F48EEF8093E800809123
:1031A000840190918501019690938501809384011B
:1031B00081E0089580E00895DF92EF92FF920F93EF
:1031C0001F93CF93DF93D82E8A01EB017B01E40E8E
:1031D000F51ECE15DF0559F0D7FE12C0FE01849111
:1031E0000E94AE1821968111F4CF0FEF1FEFC80196
:1031F000DF91CF911F910F91FF90EF90DF90089595
:103200008881EECF0F931F93CF93DF931F92CDB79B
:10321000DEB782E0898342E450E061ED7BE080E844
:103220000E94DC180E949A18DC0112960D911C91E4
:103230000115110589F0D801ED91FC910280F3810F
:10324000E02DBE016F5F7F4FC801099597FD04C057
:10325000F80100851185ECCF89810F90DF91CF9126
:103260001F910F910895615030F02091F100FC0101
:1032700020830196F8CF289884E68093A5010895CD
:10328000AF92BF92CF92DF92EF92FF920F931F9374
:10329000CF93DF936C017B018B01040F151FEB01B2
:1032A0005E01AE18BF08C017D10759F06991D60169
:1032B000ED91FC910190F081E02DC6010995892BDB
:1032C00079F7C501DF91CF911F910F91FF90EF909A
:1032D000DF90CF90BF90AF900895CF93DF931F9270
:1032E000CDB7DEB76983DC01ED91FC910280F381FB
:1032F000E02D41E050E0BE016F5F7F4F09950F90D8
:10330000DF91CF91089583E08093E9008091F200EE
:10331000882319F08AE38093E80008950E948918B1
:1033200090E00895CF93DF931F92CDB7DEB7FC01F5
:103330008485958597FD08C02FEF3FEF358724875B
:103340000F90DF91CF910895CE0101960E945F18F2
:10335000019719F4898190E0F3CF8FEF9FEFF0CFC1
:103360000F931F93CF93DF931F92CDB7DEB78C01DE
:10337000FC018485958597FF0BC0CE0101960E94C4
:103380005F18019771F4898190E0F801958784872F
:10339000F801848595850F90DF91CF911F910F9152
:1033A00008958FEF9FEFF1CFFC018485958597FD00
:1033B0000BC09FB7F89482E08093E9008091F200FF
:1033C0009FBF90E0019608959FB7F89482E08093A4
:1033D000E9008091F2009FBF90E008953FB7F89414
:1033E00080917E0190917F01A0918001B091810137
:1033F00026B5A89B05C02F3F19F00196A11DB11D50
:103400003FBFBA2FA92F982F8827BC01CD01620F8B
:10341000711D811D911D42E0660F771F881F991F46
:103420004A95D1F708958F929F92AF92BF92CF9213
:10343000DF92EF92FF926B017C010E94EE194B012B
:103440005C01C114D104E104F104B9F00E94EE1949
:10345000681979098A099B09683E734081059105BD
:1034600080F321E0C21AD108E108F10888EE880E45
:1034700083E0981EA11CB11CE4CFFF90EF90DF9079
:10348000CF90BF90AF909F908F9008958F929F9212
:10349000AF92BF92CF92DF92EF92FF920F931F9362
:1034A000CF93DF936C017B018A0180910B0188230C
:1034B00009F45CC08091A601882309F457C080916B
:1034C000880180FF05C08091E00082608093E00069
:1034D000E801B12C8AEFA82E93E0892E2AE3922EE0
:1034E000209711F4BB20D9F10E94891881110AC0DC
:1034F000AA94AA20D9F161E070E080E090E00E94F7
:10350000131AEECF8C171D0611F00CF08C2F9FB7FD
:10351000F8948092E9002091E80025FD02C09FBF49
:10352000DFCF282F30E0C21BD30BF701815020F0F2
:1035300041914093F100FACFE20EF31EBB2021F03F
:103540009092E800B12CEBCF8091E80085FDE7CFA9
:103550009092E800BB24B394209709F3F3CF5D98D1
:1035600084E680938701101611063CF081E090E01C
:10357000F6019383828310E000E0C801DF91CF91D0
:103580001F910F91FF90EF90DF90CF90BF90AF9081
:103590009F908F9008956F927F928F929F92AF929B
:1035A000BF92CF92DF92EF92FF920F931F93CF9330
:1035B000DF934C017B01C22F102F98E0A92EB12C74
:1035C000642E669466946694712CCA01877099275C
:1035D000892B79F5D40117962D913C91C701992734
:1035E000B9010E940337269DF001279DF00D369DFD
:1035F000F00D11248E0F9F1FD4011596ED91FC91B3
:10360000E80FF91F2081111112C0C095C223C08399
:10361000DF91CF911F910F91FF90EF90DF90CF90AE
:10362000BF90AF909F908F907F906F900895C22B26
:10363000EECFD0E04770C42ED12C83E0660C771C0F
:103640008A95E1F79E0101C0220F4A95EAF7012F02
:10365000A301B701C4010E94CB1AA301485F5F4FC9
:10366000C5018C199D0902C0D595C7958A95E2F7C9
:10367000A7CF5F926F927F928F929F92AF92BF92ED
:10368000CF92DF92EF92FF920F931F93CF93DF932E
:10369000EC016A30F1F48D859E859C878B878C893F
:1036A0002F853889820F932F911D988B8F8781E00A
:1036B00090E0DF91CF911F910F91FF90EF90DF90FD
:1036C000CF90BF90AF909F908F907F906F905F90C2
:1036D0000895AB84BC84693031F429E0A20EB11C9A
:1036E000BC86AB86E4CF3DEFA3163FEFB3060CF4E8
:1036F0005DC08F819885A816B9060CF057C0CF849D
:10370000D8888DEFC8168FEFD8060CF44FC0898586
:103710009A85C816D9060CF049C0603208F46FE7E4
:1037200080EE860F9FE9960F9A3118F49FEFC91A21
:10373000D90A8C3011F08B3119F42FEFC21AD20A4A
:10374000869534E0839FC00111249C012F5E344F85
:103750007901912C812C162F1170F701E80DF91DBC
:10376000549011112DC0352D3F70532E3501680C2A
:10377000791C8C81882361F001E089899A89892BE1
:1037800009F000E02FE0A601B301CE010E94CB1AA0
:103790000989252DA601B301CE010E94CB1A8FEF16
:1037A000881A980A94E089169104B9F68B8990E0FA
:1037B00004962B853C85820F931F9C878B8777CF40
:1037C00052948FE05822D2CF20917601E09174017B
:1037D000F0917501CF010296909375018093740169
:1037E000222319F085919491089580819181089503
:1037F000CF92DF92EF92FF92CF93DF930E94E41B70
:10380000811520E8920791F4809171008D7F80935B
:103810007100109291004698479810927301DF91C1
:10382000CF91FF90EF90DF90CF90089521E020930B
:103830007301813020E8920751F4809171019091D9
:10384000720190937501809374010E94E41B97FDAF
:1038500005C020917001222309F454C020916F010A
:10386000211150C021E020937701EC01DF772097F0
:1038700009F04BC081E08093780146983FE9C32E60
:103880003FE0D32EE12CF12CCAEFD0E0E09105020D
:10389000F09106020995811103C081E080937801BF
:1038A00080917701882329F080917801882309F499
:1038B0003FC047980E94E41B0097F1F19C01DE0194
:1038C0000E94BC35DC01CB0129E0B595A795979501
:1038D00087952A95D1F7109290002AE020939100C5
:1038E000D0929900C09298008093790190937A01C8
:1038F000A0937B01B0937C018091710082608093E2
:1039000071008DCF10927701B0CF9E0150E040E062
:1039100060E472E48FE090E00E94683569017A010A
:1039200081E0C81AD108E108F10810927801AECF01
:103930004699BFCF479ABECF8FEF9FEFDC01CBCF29
:103940009C01E1E7F0E090819D7F908310927601E9
:10395000E7EFF1E0F0937501E0937401F0937201E9
:10396000E0937101318320837383628380E090E868
:10397000958384830C94F81B2D9A0895BC0190E0E4
:1039800080E00C94131A8FB18095807F669B8860CD
:103990001C9B8460089510926E013E983F98089594
:1039A0003E9A3F9A81E080936E010895AF92BF9254
:1039B000CF92DF92EF92FF920F931F93CF93DF93FB
:1039C0006D3079F0C0918E01D0918F016A30B1F4E1
:1039D00010928D0110928C012896D0938F01C09384
:1039E0008E0181E090E0DF91CF911F910F91FF90C8
:1039F000EF90DF90CF90BF90AF90089540918C01F1
:103A000050918D0185E0689FF0011124EF5EF94F20
:103A10009A01C12C80E1E82EA5E070E0CA1621F0E1
:103A2000CF0101967491FC0110E000E0B72FB17056
:103A3000DB2E20383105D0F4CE01800F911F803469
:103A40009105A0F461E081FD64E080FD660F82FDD8
:103A50006295887FE89ED0011124A20FF62EA7520E
:103A6000BD4F8C91DD20A9F0862B8C9376950F5F4E
:103A70001F4F08301105D1F6C3942F5F3F4F86E0EA
:103A8000C812CACF4A5F5F4F50938D0140938C019B
:103A9000A8CFF0948F21E9CF90918A01982329F43F
:103AA00090918B01982381E009F480E008951F93A1
:103AB000CF93DF93D82F109190020E944C1DC82FF6
:103AC000112359F0811106C0C0E08C2FDF91CF91F6
:103AD0001F91089510929002F8CF882329F082E078
:103AE00080938F02C1E0F1CF0E94C31C8D23D813B5
:103AF00004C080918F02882391F30E94C31C8D2300
:103B0000D813E2CF80918F028823F1F28150809305
:103B10008F02DBCF80E00C94021682E390E00E94DB
:103B2000BE1C0E94C31C8111F8CF089588E00E943A
:103B30004C1D811103C080E20C944C1D089584E05B
:103B40000E944C1D811103C080E40C944C1D08950B
:103B5000CF93DF93EC0180E80E944C1D882329F06D
:103B60008881882311F08150888380E10E944C1D58
:103B7000882331F088819981891710F48F5F8883B9
:103B8000DF91CF91089568E270E088E592E00C94AF
:103B9000A01C68E270E088EC90E00C94A01C62E34A
:103BA00070E08CEB92E00C94A01C62E370E08AEF72
:103BB00090E00C94A01C089590E080E008951F937D
:103BC000CF93DF93D82F0E94973464E070E00E9477
:103BD000033781309105B1F12CF4C1E0892BB1F0AC
:103BE00080E02CC08230910509F43FC0CBE0039700
:103BF000B9F710E0612F8C2F0E94C71581112AC0E0
:103C00001F5F1730B9F7C150A1F718C011E0612F3D
:103C10008C2F0E94C715882359F098E0C99FB001E6
:103C20001124605F7D4F610F711DFB01D58B06C0B4
:103C30001F5F173061F7CF5FCC3041F7DF91CF9135
:103C40001F910895C1E016E0612F8C2F0E94C715C7
:103C5000882329F0F8E0CF9FB0011124E2CF115062
:103C600099F7CF5FCC3079F7E9CFCBE016E0612F41
:103C70008C2F0E94C7158111EDCF1150C1F7C15093
:103C8000A9F7DCCF0F931F93CF93DF93182F0AE090
:103C9000C4E0D0E00E949734BE010E940337813017
:103CA0009105E9F134F4892B29F1015099F780E06D
:103CB0004CC08230910509F44DC00397B1F72091B3
:103CC0008D02223090F330918E02E22FE150FF0BF3
:103CD000CF0143E0880F991F4A95E1F7805F9D4F20
:103CE000830F911DFC0185891813DFCF215020938C
:103CF0008D022AC080918E028230B8F2E0918D024E
:103D000048E0E49FF0011124E05FFD4FE80FF11D52
:103D100094891913CACF815080938E0215C0809167
:103D20008D028B3010F6E0918E0258E0859F900155
:103D30001124285E3D4FE20FF32FF11D95891913D1
:103D4000B4CF8F5F80938D0281E0DF91CF911F917F
:103D50000F91089580918E02863008F0A6CFE091F1
:103D60008D0298E0E99FF0011124E05FFD4FE80F1C
:103D7000F11D9689191399CF8F5FCECF0F931F93A3
:103D8000CF93DF9381E080939002E0E1F2E088E757
:103D900092E0158A168A178A108E118E128E138E53
:103DA000148E38968E179F07A1F786E080938D02B8
:103DB00083E080938E0281E080935802C2E380E02A
:103DC0000E94421E811103C081E00E94421E809128
:103DD0008D0220918E0238E0839FC0011124805F04
:103DE0009D4F820F911D21E0FC01258BC15039F7B9
:103DF00086E080938D0283E080938E0210925802B9
:103E000010926002109250021092590210925702C2
:103E10001092610210925F021092510210924F02B2
:103E20001092140280911002909111028336910534
:103E3000B0F582E00E94DF1D0E94973480FD09C02A
:103E40000E94973466E070E00E9403378D5F0E9405
:103E5000DF1D8091100290911102892B01F1C0E0C9
:103E600003E010E00E949734B8010E940337C8179E
:103E7000190609F02CF48AE00E94DF1DCF5FF2CF13
:103E80000E949734B8010E940337892B41F489E0DE
:103E90000E94DF1D882319F081E080931402809135
:103EA0008D0290E020918E0230E0BC0143E0660F6D
:103EB000771F4A95E1F7605F7D4FFB01E20FF31F2B
:103EC00041E0458BFC0153E0EE0FFF1F5A95E1F7EF
:103ED000E85EFD4FDF01A20FB31F55964C93A3E0A0
:103EE000880F991FAA95E1F7885F9D4FDC01A20F0B
:103EF000B31F55964C93D9011196EB01CA0FDB1FE6
:103F00004D8B21503109620F731FEB014D8BEF0177
:103F1000CA0FDB1F4D8BE20FF31F458BA80FB91F94
:103F200055964C93280F391FF901458BDF91CF919E
:103F30001F910F910895E0E1F2E01182108210923A
:103F40008F02138212820E94BE1EE5E9F2E089E030
:103F5000808381E081831282138217861686118AFC
:103F6000108A138A128A158A148A1682178210867A
:103F70001186128613860895CF93C82F80E0C11151
:103F800006C00E9497346FE070E00E940337809370
:103F9000180290911A0289130CC0C1110AC0811134
:103FA00004C08EE08093180204C08E30E1F41092B9
:103FB0001802E0911802E0931A02EE3008F0A6C150
:103FC000F0E0EB51F04E0C941737F51F1820362017
:103FD00050206A208820A220C020DA20F820122158
:103FE00030214E216C218F5FDDCF89E29BE29093DF
:103FF0001C0280931B0281E29BE290931E0280933D
:104000001D0281E69AE29093200280931F0281EACA
:1040100099E290932202809321028AE08093190210
:1040200089E999E29093240280932302CF91089525
:1040300089E29BE290931C0280931B0281E29BE247
:1040400090931E0280931D0289ED98E290932002C6
:1040500080931F0289E198E29093220280932102CB
:104060008FE08093190281E198E2DCCF89E29BE244
:1040700090931C0280931B0281E29BE290931E02AC
:1040800080931D0281E597E29093200280931F02A6
:1040900081E996E2909322028093210284E1BECFCF
:1040A00089E896E290931C0280931B0281E896E2D5
:1040B00090931E0280931D0281EC95E29093200262
:1040C00080931F0281E095E2909322028093210267
:1040D00089E1C7CF89EF94E290931C0280931B0281
:1040E00081EF94E290931E0280931D0281E394E29B
:1040F0009093200280931F0281E793E29093220223
:10410000809321028EE18093190289E693E28ACF9F
:1041100081E693E290931C0280931B0289E593E26F
:1041200090931E0280931D0289E992E290932002EF
:1041300080931F0289ED91E29093220280932102E5
:1041400083E2E1CF81ED91E290931C0280931B0208
:1041500089EC91E290931E0280931D0289E091E226
:104160009093200280931F0289E490E290932202B0
:104170008093210288E28093190281E490E252CF79
:1041800089E390E290931C0280931B0281E390E20A
:1041900090931E0280931D0281E79FE1909320027D
:1041A00080931F0281EB9EE1909322028093210273
:1041B0008DE2E1CF89EA9EE190931C0280931B027D
:1041C00081EA9EE190931E0280931D0281EE9DE1A3
:1041D0009093200280931F0281E29DE1909322023E
:1041E0008093210282E38093190289E19DE11ACF35
:1041F00081E19DE190931C0280931B0289E09DE187
:1042000090931E0280931D0289E49CE1909320020A
:1042100080931F0289E89BE1909322028093210200
:1042200087E3E1CF81E89BE190931C0280931B021E
:1042300089E79BE190931E0280931D0289EB9AE12E
:104240009093200280931F0289EF99E190932202BC
:10425000809321028CE38093190281EF99E1E2CEF1
:1042600089EE99E190931C0280931B0281EE99E103
:1042700090931E0280931D0281E299E190932002A7
:1042800080931F0281E698E190932202809321029D
:1042900081E48093190289E598E1C4CE81E598E133
:1042A00090931C0280931B0289E498E190931E0274
:1042B00080931D0289E897E19093200280931F026A
:1042C00089EC96E1909322028093210286E4809308
:1042D000190281EC96E1A6CE89EB96E190931C023F
:1042E00080931B0281EB96E190931E0280931D0246
:1042F00081EF95E19093200280931F0281E395E185
:1043000090932202809321028BE4E1CF89E295E130
:1043100090931C0280931B0281E295E190931E0210
:1043200080931D0281E694E19093200280931F0206
:1043300081EA93E1909322028093210280E5A9CF44
:10434000FB0101900020E9F73197AF01461B570BA5
:10435000DC01ED91FC910280F381E02D09948F92B4
:104360009F92AF92BF92EF92FF920F931F93CF93C2
:10437000DF93CDB7DEB7A1970FB6F894DEBF0FBEBF
:10438000CDBF009191021091920290E0F8019687C2
:1043900085879487838770E0708B67879A0150E0E8
:1043A00040E019A27E01F1E2EF0EF11C8AE0882EB6
:1043B000912CA12CB12CCA01B901A50194010E9434
:1043C0009A35605DF70162937F0121153105410542
:1043D000510589F7309721F0BF01C8010E94A02143
:1043E000A1960FB6F894DEBF0FBECDBFDF91CF917F
:1043F0001F910F91FF90EF90BF90AF909F908F9083
:1044000008950F931F93CF93DF93CDB7DEB76E97C9
:104410000FB6F894DEBF0FBECDBF00919102109190
:10442000920290E0F801968785879487838770E0F1
:10443000708B6787E42FF0E0EE0FFF1FED53FD4E0A
:1044400065917491CE0101960E944B35009721F041
:10445000BC01C8010E94A0216E960FB6F894DEBF81
:104460000FBECDBFDF91CF911F910F910895CF93D4
:10447000DF9320919402222341F0409193026CE358
:1044800080E0DF91CF910C940122EC0140E06CE3DD
:1044900080E00E940122AE016CE38CE3DF91CF91BA
:1044A0000C94AF210F931F93CF93DF93CDB7DEB75B
:1044B0002A970FB6F894DEBF0FBECDBF00919102D0
:1044C0001091920290E0F801968785879487838700
:1044D00070E0708B6787E42FF0E0EE0FFF1FEB5961
:1044E000FC4E65917491CE0101960E944B35009768
:1044F00021F0BC01C8010E94A0212A960FB6F894B1
:10450000DEBF0FBECDBFDF91CF911F910F910895F8
:10451000EF92FF920F93CF93C82F7B01FB01818114
:10452000853071F1B8F4843001F1F7018081823077
:10453000A8F1CE5F4DE16C2F8DE60E945222F7016B
:10454000408150E06C2F83E7CF910F91FF90EF9067
:104550000C94AF218730D9F0883039F76C2F70E098
:1045600008E028E043EA52E106C06C2F70E008E062
:1045700028E04BEB52E183E690E00E941116D5CF84
:104580006C2F70E008E028E043EB52E1F4CF6C2F91
:1045900070E008E028E04BEA52E1EDCFCF910F91B7
:1045A000FF90EF9008950F9380919802882389F0EF
:1045B0009091AD0291110DC081508093980208E056
:1045C00028E04BE952E170E060E088E790E00E946B
:1045D0001116409195024A3008F049E050E062E03F
:1045E00084E60E94AF21409196024A3008F049E0EB
:1045F00050E069E084E60E94AF21409197024A3082
:1046000008F049E050E060E184E60E94AF2141E01B
:1046100062E08CE60E94522242E069E08CE60E9451
:10462000522243E060E18CE60E9452226BE972E084
:1046300088E10E9488226DE972E080E20E9488226F
:104640006FE972E088E20E94882261EA72E080E30A
:104650000F910C948822EF92FF920F93CF93C82F63
:104660007B018091160200E320E24BE951E18111C8
:104670000AC08091AF0200E320E24BED50E18630AA
:1046800010F04BE150E164E070E084E090E00E94C3
:10469000111683E6E816F104F1F445E368E088E2D8
:1046A0000E94012246E360E188E20E9401224AE280
:1046B00068E188E20E9401224CE260E288E20E9406
:1046C000012243E650E060E284E6CF910F91FF9033
:1046D000EF900C94AF2180911502909116029923CE
:1046E00009F181111BC049E164E380E50E94522277
:1046F00049E268E088E20E9401224BE260E188E240
:104700000E9401224AE268E188E20E9401224CE212
:1047100060E288E20E940122A701D5CF81508093F8
:104720001502E6CF811122C049E164E380E50E94D1
:1047300052220E943918813019F1E0F0823011F1D3
:10474000833011F14FE2CB3010F5EC2FF0E0E5555E
:10475000FC4D0C941737C623C623C623D923D9236F
:10476000D923DB23DD23DD23DF23E1238150809365
:104770001502DFCF45E268E088E20E940122E2CF25
:1047800046E2F9CF47E2F7CF48E2F5CF4DE268E1E4
:1047900088E20E9401224AE260E188E20E9401224E
:1047A0004AE260E288E2CF910F91FF90EF900C9483
:1047B000012241E3ECCF40E3EACF42E3E8CF4EE20F
:1047C000E6CF43E3E4CF0C9452350E94C31C82FF32
:1047D00048C02D980E94C31C84788438E1F40E945C
:1047E000BC1C88EC90E00E94BE1C2F9882E090E0F8
:1047F0000E9452358F3F29F06FEF82E090E00E94D7
:104800005A3584EF91E00E94BE1C2F9A0E94C31C6F
:1048100084788438D9F30E94C31C84718431E1F414
:104820000E94BC1C88EC90E00E94BE1C2E9882E086
:1048300090E00E945235882329F060E082E090E009
:104840000E945A3584EF91E00E94BE1C2E9A0E946D
:10485000C31C84718431D9F388EC90E00E94BE1CA3
:10486000B4CF0C94BC1C1F920F920FB60F92112460
:104870008F939F938091E1009091E100937F9093BB
:10488000E10083FF0FC01092E90091E09093EB00EC
:104890001092EC0092E39093ED001092A60198E044
:1048A0009093F00082FF22C093E09093E9009091F2
:1048B000F200992319F09AE39093E8009091870110
:1048C000992341F090918701915090938701911124
:1048D00001C05D9A9091A501992341F09091A501A5
:1048E00091509093A501911101C0289A84FF18C09E
:1048F0008091E2008E7E81608093E2008091E100F1
:104900008F7E8093E100809188018E7E806180930C
:1049100088019F918F910F900FBE0F901F90189557
:1049200080FFF7CF8091E2008E7E80618093E2006D
:104930008091E1008E7E8093E100809188018E7EDF
:104940008160E5CF1F920F920FB60F921124CF9284
:10495000DF92EF92FF920F931F932F933F934F930A
:104960005F936F937F938F939F93AF93BF93EF93D7
:10497000FF93CF93DF93CDB7DEB76C97DEBFCDBF8C
:104980001092E9008091E80083FF25C068E0CE0125
:1049900045960E94331982EF8093E8008D8987FF46
:1049A00039C09091E80090FFFCCF982F907609F0E5
:1049B00034C19E894F89588D2F89F88C911131C04F
:1049C000803861F5809189018093F1001092F100A7
:1049D0008EEF8093E8006C960FB6F894DEBF0FBEA2
:1049E000CDBFDF91CF91FF91EF91BF91AF919F919B
:1049F0008F917F916F915F914F913F912F911F9177
:104A00000F91FF90EF90DF90CF900F900FBE0F901F
:104A10001F9018959EEF9093E800C7CF1092F10079
:104A2000D5CF913059F48111D3CF4130510581F662
:104A3000809189018D7F80938901CACF933049F499
:104A40008111C6CF4130510519F6809189018260EC
:104A5000F2CF953041F48091E80080FFFCCF2068D0
:104A60002093E300B5CF963009F0A9C00B8D1C8DC3
:104A700022E01092E9001092850110928401F21256
:104A80002EC010928301109282010E9402191F828F
:104A900099E09983FA8291E09E8390EA98879AEF51
:104AA00099872091840130918501275F3F4F3C8396
:104AB0002B838D831092E90010928501109284015E
:104AC000109383010093820149E050E0BE016F5FC3
:104AD0007F4F80E00E94DC180E94021979CF10936A
:104AE0008301009382010E949A18DC0112960D91B5
:104AF0001C910115110509F451C1D801ED91FC91EA
:104B00000480F581E02DBE016B5E7F4FC8010995E1
:104B1000009709F03EC1F80100851185EACFF3E066
:104B2000FF120EC08F89882309F440C0823061F4DF
:104B300040E860E185E39CE00E947F27811148CF37
:104B400081E28093EB0047CF813029F440E86BE0AD
:104B500089E29CE0F1CF833099F70E949A18DC013A
:104B60001296ED90FC908E010F5F1F4F6801E114CB
:104B7000F10479F0D701ED91FC910680F781E02DE9
:104B8000B801C7010995080F111DF701E084F184F0
:104B9000EECFD8011C92F60101900020E9F7319781
:104BA000BF016C197D0940E0C601C6CF63E17CE01E
:104BB000FB01449150E080E80E94DC1809CF973057
:104BC00009F4BECF983021F481E08093F10000CF4A
:104BD000993009F0FDCE837009F0B2CFEEE3F1E039
:104BE00081E031E096E32191222371F08093E90086
:104BF0003093EB00DF0111972C912093EC00909300
:104C0000ED008F5F873079F78EE78093EA0010928E
:104C1000EA008F898093A601DBCE8B8D9C8D10924C
:104C2000E900109285011092840190938301809392
:104C30008201898D811192C08E899D89913A49F4B2
:104C4000813209F07DCF47E050E064E071E080E020
:104C5000B3CF913209F074CF833269F48F89988D84
:104C6000B0E0A0E08093000190930101A0930201C5
:104C7000B0930301ADCE803269F48091E80082FFE9
:104C8000FCCF67E084E091E00E9433198BEF8093C2
:104C9000E8009ECE823209F09BCE8F8980930B0173
:104CA000EEEFFFE7859194918B3F9C4D51F1E0E051
:104CB000F8E08091040190910501A0910601B09166
:104CC0000701803B9440A105B105F1F480910B01EF
:104CD00080FD1AC0EE3F8AE0F80789F587E797E77D
:104CE00091838083809160008093860188E19BE0BE
:104CF0000FB6F894A895809360000FBE9093600063
:104D000067CEEEEFFAE0D5CF808191818737974764
:104D100009F05ECEA8958091600088618093600064
:104D20008091860180936000EE3F2AE0F20789F0CF
:104D30008091FE0A9091FF0A9183808349CE808101
:104D400091818737980751F29093FF0A8093FE0A6A
:104D5000C5CF1092FF0A1092FE0A3ACE0E949A180E
:104D6000DC0112960D911C910115110509F4E8CE94
:104D7000D801ED91FC910190F081E02DBE016B5EB8
:104D80007F4FC8010995811123CEF8010085118557
:104D9000EBCF181619060CF41BCED2CEF1E0FF12A1
:104DA000BECE67E17CE004CF1F920F920FB60F9248
:104DB00011242F933F938F939F93AF93BF93809131
:104DC000910190919201A0919301B0919401309141
:104DD0007D0123E0230F2D3758F50196A11DB11D4C
:104DE00020937D018093910190939201A093930170
:104DF000B093940180917E0190917F01A0918001F8
:104E0000B09181010196A11DB11D80937E01909307
:104E10007F01A0938001B0938101BF91AF919F91D9
:104E20008F913F912F910F900FBE0F901F9018956B
:104E300026E8230F0296A11DB11DD2CF1F920F921B
:104E40000FB60F9211242F933F934F935F936F935D
:104E50007F938F939F93AF93BF93EF93FF93809133
:104E6000790190917A01A0917B01B0917C01892B0D
:104E70008A2B8B2B09F440C08091780181110BC0E3
:104E800088B190E4892788B980917701882319F047
:104E900088B1805888B98091790190917A01A09168
:104EA0007B01B0917C01181619061A061B069CF4AA
:104EB0008091790190917A01A0917B01B0917C0160
:104EC0000197A109B1098093790190937A01A09388
:104ED0007B01B0937C01FF91EF91BF91AF919F91C6
:104EE0008F917F916F915F914F913F912F910F9093
:104EF0000FBE0F901F9018950E94F81BECCFEF92F9
:104F0000FF920F931F93CF93DF93F82E192FE62E66
:104F1000042F81E0860F880F0E94AE1883E00E9464
:104F2000AE18CF2DD12FEC0EFD2EF11CCE15DF05C6
:104F3000B9F007FF13C0FE0184910E94AE18182F2C
:104F400080E00E94AE18812321968111EFCFDF917E
:104F5000CF911F910F91FF90EF9008958881EDCF31
:104F600081E0F5CFE7EAF1E01382128288EE93E068
:104F7000A0E0B0E084839583A683B78388E491E0C2
:104F8000918380838FEF9FEF95878487EEEEF6E025
:104F90001382128286E691E09183808384EC95E10E
:104FA000909306028093050280E090E890930402BB
:104FB0008093030246983E9A47983F9AE9EDF6E0BF
:104FC000138212828AE591E09183808389ED92E0D9
:104FD0009683858380E890E09087878380E490E0E3
:104FE0009287818785E0848B81E0838B1686158686
:104FF000108A17861486138621E030E0328B218BCD
:10500000148298E2E5E1F1E0A0EBB2E001900D92AC
:105010009A95E1F71092D80210929A021092990292
:1050200080939402E0E1F2E01782108611861286E6
:10503000ECE0F2E0108283E08183E9E0F2E01082AC
:1050400082E081831282E7E0F2E01082818308959A
:10505000CF93DF93CDB7DEB72A970FB6F894DEBFB4
:105060000FBECDBF789484B5826084BD84B5816065
:1050700084BD85B5826085BD85B5816085BD809123
:105080006E00816080936E0010928100809181009B
:105090008260809381008091810081608093810093
:1050A0008091800081608093800080919100826077
:1050B0008093910080919100816080939100809114
:1050C00090008160809390008091C1008460809303
:1050D000C1008091C10082608093C1008091C100B5
:1050E00081608093C1008091C30081608093C30080
:1050F0008091C00082608093C0008091C200816076
:105100008093C20080917A00846080937A008091BD
:105110007A00826080937A0080917A008160809327
:105120007A0080917A00806880937A001092A601BC
:1051300010928901109288018091D700816080933C
:10514000D70080EA8093D80089B5806189BD89B590
:10515000826089BD09B400FEFDCF61E070E080E0AF
:1051600090E00E94131A8091D8008F7C8061809318
:10517000D8008091E000807F8093E0008091E10082
:105180008E7E8093E1008DE08093E200559A209A14
:1051900081EC80937C0085B1806F85B984B1877E76
:1051A00084B984B1876E84B95E9A5F988AB1806D44
:1051B0008AB9769A6E9881B3806F81BB899880B3E3
:1051C0008D7080BB80E58CBD81E08DBD85E090E079
:1051D0000E94BE1C5F9A85E090E00E94BE1C5E9813
:1051E0005C98E6EFFCE083E09DE024912EBD00009A
:1051F0000DB407FEFDCF31968E179F07B1F75C9A6D
:1052000081E88093640080916500816080936500EF
:105210000E948A1D0E94C31C87FF15C05C9885EA06
:105220008EBD00000DB407FEFDCF5C9A2E982F981E
:105230002D988091640080628093640081E083BF38
:10524000889513BEFCCF0E94E52382E090E00E9487
:10525000E323882309F48EC00E94D01C81E090E0F3
:105260000E94E323182F147081FF0EC011112E9895
:1052700021EF3FEF3A8329830E94C31C86FF7DC044
:105280002E9A2F9A0E94BC1C0E948D1D82E480934E
:105290000C01809164008E7F8093640080917A007D
:1052A000806480937A0080917A0086FDFCCF009123
:1052B0007800109179000E94EE19AB01BC01C80181
:1052C000B0E0A0E0DC01992788278C019D01040F44
:1052D000151F261F371FC901B801209164002160E6
:1052E00020936400611571058105910511F00E94FC
:1052F00042350E94E5230E948D1D0E94CB1C8FEF3A
:105300009FEF9093B4018093B3018EEE96E090935B
:10531000AC028093AB028AE08093AF021092AD02A0
:105320001092AE0289ED96E09093920280939102E2
:105330000E949B1FE4E02E2E312C7AE0772E1AE09B
:105340008FB7F8944091910150919201609193012F
:10535000709194018FBF009197010983002309F494
:1053600071C01092970180E090E0892B49F30E9470
:105370000000E3CF0E94CB1C71CF112331F0898153
:105380009A81049711F42E9A2F9881E00E940216B8
:1053900000E128E546E45CE069817A8184E190E0FF
:1053A0000E9411160E948A1D8FE090E00E94BE1C90
:1053B000A981BA811196BA83A983599709F05CCF64
:1053C000112311F02F9A2D9880E991E00E94BE1CC4
:1053D0000E94BC1C81E090E00E94E32380FF54CF38
:1053E0008AE090E00E94E3239FEF980F9E3F08F031
:1053F0004BCF22E330E030938D0120938C0128E3E2
:1054000030E030938F0120938E010BE010E01A837F
:105410000983682F8EEE96E00E94D61C89819A81BE
:105420000E94E32309811A810F5F1F4F1A830983AA
:105430000131110571F70E948A1D88EE93E00E94E8
:10544000BE1C22CF80919801242F281B822F90917F
:105450000C01291748F48F5F891708F084CF81E089
:1054600083BF889513BE7FCF31E03093970140937F
:1054700098018091950190919601019690939601E3
:105480008093950180918B0180938A010E94C31CB7
:1054900080938B01E9EDF2E0898181118FEF002487
:1054A00081938193819381930394D1F710928F011B
:1054B00010928E0110928D0110928C011092AE020A
:1054C00080919001823009F4E2C1B8F4882309F494
:1054D00046C0813009F451C183E08093AE026091EF
:1054E000990270919A026436710510F063E670E0DB
:1054F000809118020E942B232FC0833009F4CBC562
:10550000843051F76091990270919A026436710566
:1055100010F063E670E0809118020E942B238091C6
:105520001502811119C088E00E944C1D81110FC025
:1055300084E00E944C1D81110AC080E20E944C1D33
:10554000811105C080E40E944C1D882329F082E06F
:10555000809390011092D80269E081E157C70E94C0
:105560009734E3E9FFE0E49190917B008E2F880F60
:10557000880F80729F7D892B80937B00E770E064A9
:10558000E0937C0080917A00806480937A0080911F
:105590007A0086FDFCCF809178008091790082E0CE
:1055A0008093AE0200E220E843E95DE070E060E055
:1055B00090E080E00E94111628E043E75DE060E2A1
:1055C00070E088E790E00E94111608E120E243E1D4
:1055D0005DE068E270E090E080E00E94111680914A
:1055E000AF0208E028E04BE05DE0863010F043E0D9
:1055F0005DE066E170E090E080E00E94111680912D
:105600000B02882309F451C043E26CE389E40E9451
:10561000012280910B028111A4C089E092E00E94D6
:10562000A81D0E949F1D882359F00091090209833B
:10563000023009F061C00E94CF1D81E080930B020F
:105640008091AF0281508093AF0281112BC0809175
:10565000D8028F5F8A3011F40C942B348093D802D7
:105660008091AE022091D802789EC0011124855508
:105670009D4F820F911DDC0115968C91882381F03E
:1056800069E170E0813011F40C942F3462E370E032
:10569000823011F00C942F3482E390E00E94A01C21
:1056A0001093AF020E948A1D5ECE41E16CE282E659
:1056B0000E9452224CE064E382E60E9452228091D2
:1056C000AD028823A9F042E164E38DE40E945222F6
:1056D00047E16CE382E60E94522260910902660F64
:1056E000660F660F645D48E18AE50E94522291CF01
:1056F00043E164E388E4EACF0981013099F48091C1
:10570000AD02882329F00E94CB1C1092AD0298CFE5
:105710000E94D01C0E94CF1D09810093AD021092FF
:10572000D8028ECF098101118BCF0E94CF1D0E941C
:105730009B1F81E080939302809394020E94BC1F80
:105740008FE08093150210921602809110029091C2
:105750001102909313028093120284E080939001CF
:10576000DECF0E949F1D811105C00E94961D8823D7
:1057700009F466CF10920B0263CF8091AF0200E371
:1057800020E24BED50E1863010F04BE150E164E057
:1057900070E084E090E00E94111625E932E03A833F
:1057A00029836DE9E62E62E0F62EF90187818530C6
:1057B00011F40C9433343296EE16FF06B9F7A98132
:1057C000BA8117968C911797843011F40C943F345A
:1057D0001296BA83A983EA16FB0689F748E068E0C7
:1057E00088E20E9452228091AD0244E1811101C001
:1057F00045E164E180E30E94522246E16CE180E3EE
:105800000E9452224FE064E280E30E9452226091A3
:105810000702660F660F660F6C5E48E188E20E9421
:10582000522287E092E00E94A81D0E949F1D8823BB
:10583000A9F080910702823041F1813029F40E9461
:10584000CF1D109290016BCF811108C08091AD02E5
:10585000882389F00E94CB1C1092AD020E94961DF5
:10586000811113C080911002909111020E94372281
:105870000E94D322C9C50E94D01C0E94CF1D81E086
:105880008093AD021092D802E9CF82E067CF88E022
:105890000E944C1D882341F010920702B1E0B093A2
:1058A00090011092D802DECF80E40E94571D882319
:1058B00009F443C070E060E081E090E00E949F172F
:1058C000898380E20E94571D882339F070E060E0F0
:1058D0008FEF9FEF0E949F17898380E10E94571DE1
:1058E000882339F061E070E090E080E00E949F172B
:1058F000898380E80E94571D882339F06FEF7FEF7E
:1059000090E080E00E949F1789830981002309F4B9
:10591000A7C1E02FE150EA3008F0A2C1F0E0ED5657
:10592000F34D0C9417379F2C062E552E9D2EE02EEE
:10593000E72EF62EFE2E062F4E2D1982C2CF30E115
:10594000832E32E0932EAA24A394B12C0BE05CE0CA
:10595000652EEA2C9401285F3F4F3C832B833A87C6
:105960002987CC24C394D12C552453945A0CC401B8
:1059700040969A83898344244A944A0CC50123E0C3
:10598000880F991F2A95E1F7DC01A05FBD4FBE8308
:10599000AD83B8E04B9EC0011124FC01E05FFD4FD8
:1059A000F887EF83FC2CA985BA8556968C918A30AE
:1059B00009F043C080918D028E1570F5BE2DB81B85
:1059C0008B2F843068F580918E028F1538F5EF2D7E
:1059D000E81B8E2F843020F50E949734B1010E947D
:1059E00003370397E9F080918D028E1508F479C092
:1059F000E81608F098C0E985FA85968D913009F08F
:105A000092C0968B581205C080918E028F1509F4B2
:105A100083C0E981FA8176C08E19D3CF8F19DACF8E
:105A20000E949734B1010E9403378130910509F437
:105A3000C1C0DCF5892B09F4A7C0FFEFCF1ADF0A3C
:105A400029853A852F5F3F4F3A87298737E0C3166C
:105A5000D10409F0A7CF8FEFA81AB80A8B809C80D9
:105A60009CE0A916B10409F074CF90E080E030E02A
:105A7000FC01E25DFD4F26E041914B3030F04B30B0
:105A800009F03AE0DF0111977C922150A9F70896BE
:105A90008835910569F73A3009F0E2C088E08093D3
:105AA000930281E08093940260C18230910509F4F1
:105AB00091C0039711F6E985FA858789813009F04D
:105AC000BCCFF394868B80918D028E1105C080919E
:105AD0008E028F1509F496C0A985BA8557960C9346
