:100000000C945A150C9482150C9482150C9482153C
:100010000C9482150C9482150C9482150C94821504
:100020000C9482150C9482150C94D1230C944024CA
:100030000C9482150C9482150C9482150C948215E4
:100040000C9482150C9482150C9482150C948215D4
:100050000C9482150C9482150C9482150C947226C3
:100060000C9482150C9482150C9482150C948215B4
:100070000C9482150C9482150C9482150C948215A4
:100080000C94BC260C9482150C9482150C94821549
:100090000C9482150C9482150C9482150C94821584
:1000A0000C9482150C9482150C9482154849545373
:1000B00020414E442052554E5300554E4445525314
:1000C00054414E44004C454156455320494E204131
:1000D0004E474552004E4F44532C204749564553F6
:1000E00020504F54494F4E00414343455054532CE8
:1000F0002052454C494320464F554E4400415454EC
:1001000041434B530041545441434B532C204445ED
:100110004620444F574E0057494C4C204E4F5420D8
:100120004C495354454E004849545320414E4420B5
:10013000455343415045004849545320414E4420C3
:1001400052554E5300474956455320412052454C85
:10015000494300474956455320594F5520412050A7
:100160004F54494F4E00535445414C532046524F33
:100170004D20594F550049532041465241494400B2
:1001800041545441434B532C2053545220444F5715
:100190004E004E4F5420425241564520454E4F5539
:1001A0004748004849545320414E442052554E532D
:1001B0000053434152452C204445462055500041B0
:1001C00046524149442C2044454620555000464162
:1001D000494E54530041545441434B532C20444501
:1001E0004620444F574E0041545441434B532C201A
:1001F000485020444F574E0059454C4C53204241E3
:10020000434B00594F5520524546555345004341F5
:100210004E27542054414C4B205749544820534CAE
:10022000494D4553004255542C204E4F57205748B6
:1002300041543F00594F55204D41444520495421D8
:10024000004B455920464F554E442100474F20460C
:10025000415354004341524546554C004441524B92
:10026000204C4F4F4D5300464C4F574552533F0083
:100270004D4554414C20434C414E4B494E47004361
:100280004F4C4400534C494D453F004D4158204C84
:100290004556454C3A005245545245415420464F2C
:1002A00052204E4F57002E2E2E00594F55204152AE
:1002B0004520544952454400594F5520415245204C
:1002C000484F504546554C00594F55204152452006
:1002D0005749534500594F552041524520534D41F0
:1002E000525400594F5520415245205354524F4EBD
:1002F0004700544F4F205354524F4E472C204341F8
:100300004E275420455343415045004652414E41EB
:100310004C564152455A3231004E4F2052454C49BD
:100320004320415641494C41424C4500544F4F20D7
:100330005354524F4E472C2043414E275420535084
:10034000415245004C45415645532C20504F54498D
:100350004F4E20464F554E4400454E454D59204C7A
:10036000454156455300594F55204645454C205070
:1003700041494E00454E454D59205741495453007F
:10038000454E454D59205641504F52495A4544001B
:10039000594F55204645454C205354524F4E4745E2
:1003A00052004D454449554D204445462055500086
:1003B00044454620555000535452205550004D4559
:1003C0004449554D20485020555000594F5520461E
:1003D00041494C45442E2E20545259204147414911
:1003E0004E3F004B4559204E454544454400594F2A
:1003F00055204645454C205745414B005041494EFC
:1004000020494E464C494354454400424F544820ED
:100410004449442E2E205041494E205348415245D4
:1004200044004850205550004E4F20504F54494FE3
:100430004E20415641494C41424C450045534341B1
:100440005045205355434345535346554C00464170
:10045000494C2C20594F55204645454C2050414988
:100460004E00504F54494F4E20464F554E44204960
:100470004E2043484553540052454C494320464F73
:10048000554E4420494E2043484553540053484953
:10049000454C4420464F554E4420494E2043484544
:1004A00053540053574F524420464F554E44204911
:1004B0004E20434845535400454D5054592043481D
:1004C00045535420464F554E4400454E454D592006
:1004D000454E434F554E54455200504F54494F4E90
:1004E00020464F554E440052454C494320464F55F7
:1004F0004E44004C49464520524553544F524544C2
:1005000000534849454C4420464F554E442C204406
:10051000454620424F4E555300504F434B45545390
:100520002046554C4C0053574F524420464F554E91
:10053000442C2053545220424F4E555300544F5791
:10054000455220454E5452414E434500544F574565
:1005500052204C4556454C0078004558504C414976
:100560004E00415050524F4143480054485245417B
:100570005400434F4E54494E554500230056312EEA
:10058000300041424F5554004D2E204D454E5500F0
:10059000532E204F464600532E204F4E004F4646C6
:1005A000004F4E0053544152540052554E004241A8
:1005B000434B0053504152450052454C4943005370
:1005C0004F554E4400414354494F4E0054414C4B0B
:1005D0000041545441434B004F5054494F4E530037
:1005E000504F54494F4E0052454C494300534849DF
:1005F000454C440053574F52440044454600535421
:1006000052004850000000000000003E5B4F5B3E7F
:100610003E6B4F6B3E1C3E7C3E1C183C7E3C181CC7
:10062000577D571C1C5E7F5E1C00183C1800FFE7BE
:10063000C3E7FF0018241800FFE7DBE7FF30483A64
:10064000060E2629792926407F050507407F0525C6
:100650003F5A3CE73C5A7F3E1C1C08081C1C3E7F4E
:1006600014227F22145F5F005F5F06097F017F0015
:100670006689956A606060606094A2FFA294080435
:100680007E040810207E201008082A1C08081C2A56
:1006900008081E101010100C1E0C1E0C30383E38AE
:1006A00030060E3E0E06000000000000005F000055
:1006B0000007000700147F147F14242A7F2A1223C6
:1006C0001308646236495620500008070300001CD6
:1006D0002241000041221C002A1C7F1C2A08083EDF
:1006E00008080080703000080808080800006060F2
:1006F0000020100804023E5149453E00427F400060
:1007000072494949462141494D331814127F102737
:10071000454545393C4A4949314121110907364986
:10072000494936464949291E00001400000040345A
:10073000000000081422411414141414004122145F
:100740000802015909063E415D594E7C1211127C86
:100750007F494949363E414141227F4141413E7FE7
:10076000494949417F090909013E414151737F08C7
:1007700008087F00417F41002040413F017F08146D
:1007800022417F404040407F021C027F7F040810CE
:100790007F3E4141413E7F090909063E4151215EAC
:1007A0007F09192946264949493203017F01033F40
:1007B0004040403F1F2040201F3F4038403F6314CF
:1007C00008146303047804036159494D43007F41D1
:1007D00041410204081020004141417F040201020E
:1007E0000440404040400003070800205454784033
:1007F0007F284444383844444428384444287F38C7
:100800005454541800087E090218A4A49C787F0848
:1008100004047800447D40002040403D007F1028C3
:10082000440000417F40007C047804787C08040484
:10083000783844444438FC1824241818242418FC1C
:100840007C08040408485454542404043F44243CC1
:100850004040207C1C2040201C3C4030403C442830
:100860001028444C9090907C4464544C44000836CA
:100870004100000077000000413608000201020438
:10088000023C2623263C1EA1A161123A4040207A58
:1008900038545455592155557941215454784121A2
:1008A0005554784020545579400C1E5272123955D7
:1008B00055555939545454593955545458000045D4
:1008C0007C410002457D420001457C40F0292429FD
:1008D000F0F0282528F07C545545002054547C54D1
:1008E0007C0A097F49324949493232484848323204
:1008F0004A4848303A4141217A3A42402078009DA6
:10090000A0A07D39444444393D4040403D3C24FF53
:100910002424487E4943662B2FFC2F2BFF0929F600
:1009200020C0887E090320545479410000447D4151
:100930003048484A32384040227A007A0A0A727DAA
:100940000D19317D2629292F2826292929263048C5
:100950004D4020380808080808080808382F10C833
:10096000ACBA2F102834FA00007B000008142A14B7
:100970002222142A14089500220095AA005500AAE4
:10098000AA55AA55AA000000FF00101010FF00147D
:100990001414FF001010FF00FF1010F010F01414DA
:1009A00014FC001414F700FF0000FF00FF1414F4FF
:1009B00004FC141417101F10101F101F1414141F00
:1009C00000101010F0000000001F101010101F1079
:1009D000101010F010000000FF1010101010101078
:1009E0001010FF10000000FF140000FF00FF0000C7
:1009F0001F10170000FC04F414141710171414F43B
:100A000004F40000FF00F714141414141414F70075
:100A1000F7141414171410101F101F141414F414C6
:100A20001010F010F000001F101F0000001F140035
:100A30000000FC140000F010F01010FF10FF141460
:100A400014FF141010101F00000000F010FFFFFF33
:100A5000FFFFF0F0F0F0F0FFFFFF0000000000FFEC
:100A6000FF0F0F0F0F0F38444438447C2A2A3E14DE
:100A70007E02020606027E027E0263554941633809
:100A800044443C04407E201E2006027E020299A5BA
:100A9000E7A5991C2A492A1C4C7201724C304A4D18
:100AA0004D303048784830BC625A463D3E4949494D
:100AB000007E0101017E2A2A2A2A2A44445F4444F6
:100AC00040514A444040444A51400000FF0103E085
:100AD00080FF000008086B6B083612362436060FBC
:100AE000090F06000018180000001010003040FF29
:100AF0000101001F01011E00191D1712003C3C3CA2
:100B00003C000000000000B00000A170E150964FD2
:100B100026900F1D070C009669004AE44A004844DD
:100B20004000806810000F99FB8F9DBDBBFB77D400
:100B3000D4DF1F1A1AFE7F5D5DFF805A0000A0A45B
:100B4000AA0010BA3400FF5953F3FF9B9B9EFFB9D4
:100B5000B996FF9595D19FF4940FFC295F91FF18EA
:100B600038F8FF9294FFFF95D5F7BFB5DDD7F18F29
:100B700081F1F788C8F779C6467909FD9B09019686
:100B8000F800828182805071620077565600767636
:100B90003700A2B77301077206007827500073343C
:100BA0007400775176007F55F70047711000324787
:100BB00072007364730015A2750061679400009F52
:100BC0006060F4F2F6F2080B000202020000090471
:100BD00000000102020000052400100105240101AB
:100BE0000104240206052406000107058103100004
:100BF0004009040100020A0000000705020240004B
:100C000000070583024000000403090412010002EA
:100C1000EF020140412336800001010203014172CD
:100C20006475696E6F204C4C430041726475696E47
:100C30006F204C656F6E6172646F00F0F89C8E8758
:100C400083878E9CF8F00000FEFF03030303030775
:100C50000EFCF80000FEFF0303030303070EFCF87D
:100C60000000FFFF00000000000000FFFF0000FE8A
:100C7000FF8383838383C7EE7C380000F8FC0E0774
:100C8000030303070EFCF800003F7FE0C08080C034
:100C9000E07F3FFFFF01010101010101FFFF0000B3
:100CA000FFFF0C0C0C0C1C3E77E3C100007FFFC063
:100CB000C0C0C0C0E0703F1F00001F3F70E0C0C058
:100CC000C0E0703F1F00007FFFC1C1C1C1C1E37719
:100CD0003E1C00001F3F70E0C0C0C0E0703F1F001E
:100CE0000000000001FFFF01000000D5F08D14A1FD
:100CF000C881CFD9F1AF200008244E4E4A4E2408B7
:100D000008244E4E4E4A2408000000000000EFEF79
:100D1000000000000000F3E7000000000000E7F31F
:100D200000000000000079F30C0C0C0C0CFCFC0C17
:100D30000C0C0C0C0C0000F0F00C0C0C0C0C0CF05F
:100D4000F00000FCFC000000000000FCFC0000FCC7
:100D5000FC8C8C8C8C8C8C0C0C0000FCFC0C0C8C9B
:100D60008C8C8C70700000000000000000000000FF
:100D70000000000000000000000080C06020206033
:100D8000408080C0E0F0F8F8FCFCFCFCFCFCFCFCC3
:100D9000F8F8F8F0E0C080800000008080C060209B
:100DA00000E2CBCB99BD3DFD0000000000FFFF003D
:100DB000000080808080808707181818989898878E
:100DC0008780809F9F86061F1F06061F1F80809FAB
:100DD0009F999999991919181800009F9F800001EF
:100DE0000101819E1E0080800000000080800000C4
:100DF00000000000000010180C06010000000000B8
:100E00000000010307070F0F8FDF7F3F1F07070356
:100E100003070F1F3F3F4F478783810100000000FA
:100E2000009FC7D3D99CBCBD00000000001F1F005D
:100E3000FEFE010101010101FEFE0000FFFF313154
:100E400031313131010100000000000000FFFF01DD
:100E500001313131310E0E0000FEFE313131FEFE26
:100E60000000FFFF0000FFFF03060C18FFFF00005B
:100E700000000000100000000800005000000048C2
:100E8000000040000000024201000000004000009D
:100E900000000000000010800000810100401000F0
:100EA000009ECEE4F1F7F7F700000000000000001C
:100EB000000003030303030300000000030300001A
:100EC000000000000000000000000000000303001C
:100ED0000000000000000000000303000000030306
:100EE00000000303000003030000000003030000F0
:100EF00000000000000001000000020000000020CF
:100F000000000400200000000801000000040000B0
:100F10001100000200001000000004000000022088
:100F200000068E0E1E5EDEDE101FFF3000F8FF0092
:100F3000002F771C3F7DFDED9FF37D3F00000001FA
:100F400001000000FF000000000000FF818181819E
:100F500081818181FF010101010101FFFF8080800A
:100F6000808080FF81818181818181FFFF818181FA
:100F700081818181007050781C061208000C1E3C93
:100F80003C1E0C00007C464A4A467C00E0B8A8A8FB
:100F9000A8A8B8E000203A347E3A200000203A7435
:100FA0003E3A200003FF0202020202020202020293
:100FB0000202020202020202020202020202020211
:100FC0000202FF0300FF000000000080404078089C
:100FD00008081020B090E080000000000000000031
:100FE0000000FF0000FF00000006754CC00080E616
:100FF00043010000107000007102FC0000000000BE
:101000000000FF0000FF00000000000001C12719E0
:10101000B5258A0A1424A4AC142AF50F0000000098
:101020000000FF0000FF0000000000000F100A1980
:10103000E2E9243214203221E8E6101F000000000B
:101040000000FF00C0FF4040404040404040404062
:101050004040404040404040404040404040404090
:101060004040FFC003FF020202020202020202022B
:101070000202020202020202020202020202020250
:101080000202FF0300FF00000000804020203C041B
:101090008484081058487040800000000000000060
:1010A0000000FF0000FF000000033A26E080C0F3CC
:1010B000A1800000083800003801FE800000000018
:1010C0000000FF0000FF0000000000008060138CA3
:1010D0005A9245050A1252D60A157A870000000076
:1010E0000000FF0000FF0000000000000F10091AC0
:1010F000E1EA253214203124EAE5101F0000000047
:101100000000FF00C0FF40404040404040404040A1
:1011100040404040404040404040404040404040CF
:101120004040FFC003FF020202020202020202026A
:10113000020202020202020202020202020202028F
:101140000202FF0300FF000000000080404078081A
:1011500008081020B090E0800000000000000000AF
:101160000000FF0000FF00000006754CC00080E694
:1011700043010000404000004102FC00000000006C
:101180000000FF0000FF00000000000001C127195F
:10119000B5258A0A1424A4AC142AF50F0000000017
:1011A0000000FF0000FF0000000000000F100A19FF
:1011B000E2E9243214203221E8E6101F000000008A
:1011C0000000FF00C0FF40404040404040404040E1
:1011D000404040404040404040404040404040400F
:1011E0004040FFC000000000000000FFFF000000C2
:1011F00000000000808080808080808001010101EB
:101200000101010180808080808080FFFF808080DC
:101210008080808001010101010101FFFF010101C6
:10122000010101010020546E6E542000003C4E5E0E
:101230004A623C00001E224242261E0000060E1C8E
:10124000182040004C053D05260519050105F3044D
:10125000E704DA04CA04B804A3048D047804620421
:101260004E043C04280422040B04FC03EE03E303B5
:10127000CB03BE03B703B003A20390038003740340
:101280006603590344032C0319030B03F202E30220
:10129000D502C802B802AA02A60296028B028402F4
:1012A0007F02700267025C0254024C024102340267
:1012B00025020E020302F801E701D501CE01BF01AC
:1012C000B101A3019201800176016601530145013C
:1012D0003701270117010501FD00E800D500C50011
:1012E000BA00AC0005060206FE05FA05F405ED0598
:1012F000E705E005D805D105CC05C505BF05B9054D
:10130000B305AE05AA05A405A1059D0597059005A1
:10131000880582057D057B0572056B0562055A050A
:10132000580503FF02020202020202020202020246
:10133000020282428242020202020202020202020D
:10134000FF0300FF0000000004CC380408046424FC
:10135000246447C0030E38C000008000F70000007E
:10136000FF0000FF00E010C86825A2B9AD85058523
:10137000ADB9A22469CA14EF0000F700FB00000019
:10138000FF0000FF00073803A62646946800C0004F
:1013900068944426A603B807000007BD00000000BB
:1013A000FF0000FF00000000000304012AEAE92A10
:1013B0000A01041318FEFB1C0000007F000000005F
:1013C000FF00C0FF4040404040404040404040405F
:1013D000404040404040404040404040404040400D
:1013E000FFC003FF02020202020202020202020224
:1013F000020282428242020202020202020202024D
:10140000FF0300FF0000000004CC38040804A424FB
:10141000246447C0030E38C000008000EF000000C5
:10142000FF0000FF00C02090D04B44725A0A0A0A05
:101430005A724449D3962CCF0000EF00F700000009
:10144000FF0000FF000F70074C4C8D29D101800177
:10145000D129894C4C07700F0000077B0000000069
:10146000FF0000FF000000000106080354D4D3541D
:101470001403081619FCFB1C0000007F000000008C
:10148000FF00C0FF4040404040404040404040409E
:10149000404040404040404040404040404040404C
:1014A000FFC000104C3B2E741C00001C742E3B4CE3
:1014B000100003FF02020202020202020202020202
:1014C00002020202020202020202020202020202FC
:1014D000FF0300FF000000000000C020100888107B
:1014E000488408041820C00000000000000000002C
:1014F000FF0000FF0000000000030418C4978100F3
:1015000001859D8181463A01000000000000000035
:10151000FF0000FF000000000080000F986E033203
:101520008C5030518E2867408080C0000000000041
:10153000FF0000FF000010081609070300B4FE11A9
:101540000804040408B3FC000103040B04080000B1
:10155000FF00C0FF404040404040404040404040CD
:10156000404040404040404040404040404040407B
:10157000FFC003FF02020202020202020202020292
:10158000020202020202020202020202020202023B
:10159000FF0300FF000000000000C02010088810BA
:1015A000488408041820C00000000000000000006B
:1015B000FF0000FF00000000000304984457C10032
:1015C00001859D818146BA010000000000000000F5
:1015D000FF0000FF00000000000000070CF70132D0
:1015E0008C5030518E34C380000080000000000019
:1015F000FF0000FF000020102C130E0601B4FE11A6
:101600000804040408B3FC000307091608100000CE
:10161000FF00C0FF4040404040404040404040400C
:1016200040404040404040404040404040404040BA
:10163000FFC00000603A2E5000000000502E3A60BB
:101640000000890440800102209103FF020202028F
:1016500002020202020202020202824282422222AA
:101660004282020202020202FF0300FF00000000A9
:1016700004CC38040804A424246447C0030E38C0F2
:10168000040B040000000000FF0000FF0000000049
:10169000008366984457E9E040829E8183463C0F70
:1016A00000808A540850A040FF0000FF00000000A6
:1016B0008245A8D7AC54A485C46320309BEC0C06AB
:1016C0000552291709050201FF0000FF0000000173
:1016D0000109051422E1E934180A151A14FCFB1C4F
:1016E0000000000000000000FF00C0FF404040403C
:1016F00040404040404040404040404040404040EA
:101700004040404040404040FFC003FF0202020210
:1017100002020202020202020202020202028282A9
:101720000202020202020202FF0300FF00000000A8
:101730001030E0102010909090901E010E39E000C3
:10174000112E100000000000FF0000FF000000004C
:10175000000F9860105CA680000979070C18F03F14
:101760008040C5AA84A850A0FF0000FF0000000030
:101770000816A15EB1519397D16E22329AED0603FD
:101780000229140B04020100FF0000FF0000000406
:10179000060B051522E1E93418142A3428F8F73825
:1017A0000000000000000000FF00C0FF404040407B
:1017B0004040404040404040404040404040404029
:1017C0004040404040404040FFC00C14483B2E4C3D
:1017D000100000104C2E3B48140C080440800102FD
:1017E000201003FF020202020202020202020202AF
:1017F0000202824282420202020202020202020249
:10180000FF0300FF0000000004CC38040804A424F7
:10181000246447C0030E38C0000000000000000030
:10182000FF0000FF00000000008366984457E9E0D5
:1018300040829E8183463C0F0080804080000000F3
:10184000FF0000FF000000008245A8D7AC54A4852B
:10185000C46320309BEC0C06057E81F90700000074
:10186000FF0000FF000000010109051422E1E93436
:10187000180A151A14FCFB1C00000F0100000000E0
:10188000FF00C0FF4040404040404040404040409A
:101890004040404040404040404040404040404048
:1018A000FFC003FF0202020202020202020202025F
:1018B0000202020202020202020202020202020208
:1018C000FF0300FF000000001030E0102010909097
:1018D00090901E010E39E0000000000000000000A2
:1018E000FF0000FF00000000000F9860105CA68061
:1018F000000979070C18F03F8040C0A0C00000002C
:10190000FF0000FF000000000816A15EB151939790
:10191000D16E22329AED0603023FC0FC03000000A4
:10192000FF0000FF00000004060B051522E1E9346A
:1019300018142A3428F8F7380000070000000000C7
:10194000FF00C0FF404040404040404040404040D9
:101950004040404040404040404040404040404087
:10196000FFC000104C3B2E4C100000104C2E3B4C86
:10197000100000244A200452240003FF0202020245
:1019800002020202020202020282828202020202B7
:101990000202020202020202FF0300FF0000000036
:1019A0007088060104F8003E410001C23C000000BE
:1019B0000000000000000000FF0000FF0000000029
:1019C0000001364880203101012121E1020408F0A4
:1019D0000000000000000000FF0000FF0000000009
:1019E00000804030060D080814C41212D2124D8037
:1019F0000000000000000000FF0000FF00000000E9
:101A00000B34102010E0E030103B00183FF0E81FCE
:101A10000000000000000000FF00C0FF4040404008
:101A200040404040404040404040404040404040B6
:101A30004040404040404040FFC003FF02020202DD
:101A4000020202824202020282422262A2020202D6
:101A50000202020202020202FF0300FF0000000075
:101A6000007C820100215E808FB080C0300F0000BA
:101A70000000000000000000FF0000FF0000000068
:101A800000001D2240901C0000101070010284789C
:101A90000000000000000000FF0000FF0000000048
:101AA00000804030030604040AE20909E90966805F
:101AB0000000000000000000FF0000FF0000000028
:101AC000153A102010E0E030103B000C1FF8F40F26
:101AD0000000000000000000FF00C0FF4040404048
:101AE00040404040404040404040404040404040F6
:101AF0004040404040404040FFC00000543937481B
:101B00000000000048363954000003FF02020202C0
:101B100082028282820202020202020202020202A5
:101B20000202020202020202FF0300FF0000008024
:101B30004021320E01018182828406020202C44CDD
:101B40004890400000000000FF0000FF00001E0958
:101B5000040C9261105CA600000979070C18F03F94
:101B60008070A900B890A000FF0000FF00000000F6
:101B70000016A940B6498191CD6A2A329AE90C062D
:101B80000300030002010000FF0000FF000000044A
:101B9000060B051522E1E934180A151A14FCFB1C82
:101BA0000000000000000000FF00C0FF4040404077
:101BB0004040404040404040404040404040404025
:101BC0004040404040404040FFC003FF020202024C
:101BD00042824242C28282020202020202020202E5
:101BE0000202020202020202FF0300FF000000C024
:101BF000201019870000404141C28381010162A683
:101C00002448A00000000000FF0000FF00000F04B7
:101C10000206C93008AED38080043C03068C781FCE
:101C200080701840A830A000FF0000FF00000000F6
:101C3000008B74009B448080D669253599EC06039F
:101C40000201030003010000FF0000FF0000000488
:101C5000060B051522E1E93418142A3428F8F73860
:101C60000000000000000000FF00C0FF40404040B6
:101C70004040404040404040404040404040404064
:101C80004040404040404040FFC00008503A2E5085
:101C900000000000502E3A50080000201A2424585A
:101CA000040003FF02020202020202020202020216
:101CB0000202020202020202020202020202020204
:101CC000FF0300FF000000000000806018102040AB
:101CD000A01E040808D0E0C00000000000000000C2
:101CE000FF0000FF0000000000020588708C020069
:101CF00012127202040BF68F0000000000000000B8
:101D0000FF0000FF00000000207E972E4021DF0032
:101D100098C20A1A029D60B091FE00000000000007
:101D2000FF0000FF000000007C7310090BFBFD1C8E
:101D300077711818FCFF010000000000000000008F
:101D4000FF00C0FF404040404040404040404040D5
:101D50004040404040404040404040404040404083
:101D6000FFC003FF0202020202020202020202029A
:101D70000202020202020202020202020202020243
:101D8000FF0300FF000000000000806018102040EA
:101D9000A01E040808D0E0C0000000000000000001
:101DA000FF0000FF0000000000020508708C020028
:101DB00012127202040BF50F000000000000000078
:101DC000FF0000FF000000000078ECBE4121DF00B2
:101DD00098C20A1A029D6022FC0000000000000068
:101DE000FF0000FF000000007C7310090AFBFD1CCF
:101DF000777108081CFFF2030100000000000000DA
:101E0000FF00C0FF40404040404040404040404014
:101E100040404040404040404040404040404040C2
:101E2000FFC00000547B2E5860000060582E7B5489
:101E3000000003FF02020202028202820202020288
:101E40000202020202020202020202020202020272
:101E5000FF0300FF00007886E1100DC06A3498107F
:101E6000509010101020C000000000000000000082
:101E7000FF0000FF00000007010006994447C10071
:101E800001859D8181423A010000000000808000B0
:101E9000FF0000FF00000000000000070CF7414BAE
:101EA000388CC65CA93618080D32080504020100FA
:101EB000FF0000FF000000201010080804B5FA130E
:101EC0000904040408B3FC00000000000000000046
:101ED000FF00C0FF40404040404040404040404044
:101EE00040404040404040404040404040404040F2
:101EF000FFC003FF02020202020202020202020209
:101F000002020202020202020202020202020202B1
:101F1000FF0300FF0000C03008846804A8D06040C0
:101F200040404040408000000000000000000000F1
:101F3000FF0000FF0000033C0F001867111C0600A3
:101F4000051674040408EB04000000000000000003
:101F5000FF0000FF000000000000001E31DD072C24
:101F600060B29A526629B0101A64100A080503007C
:101F7000FF0000FF000000201010080804F5FA130D
:101F80000905040811E6F800000000000000000048
:101F9000FF00C0FF40404040404040404040404083
:101FA0004040404040404040404040404040404031
:101FB000FFC000104C3B2E483F00003F482E3B4CDA
:101FC00010000804508C310A201003FF02020202A4
:101FD0000202020202028202828202020202020261
:101FE0000202020202020202FF0300FF00000000E0
:101FF00000C060F008E8140102040932C2040810AD
:10200000E000000000000000FF0000FF00000000F2
:102010000007091020438418E000F04F201E0B0732
:102020000300000000000000FF0000FF00000000AF
:10203000000000000000000103000608E0000000AE
:102040000000000000000000FF0000FF0000000092
:10205000000000000000000038C002010000000085
:102060000000000000000000FF00C0FF40404040B2
:102070004040404040404040404040404040404060
:102080004040404040404040FFC003FF0202020287
:1020900002020202020202820282820202020202A0
:1020A0000202020202020202FF0300FF000000001F
:1020B00000C0E0D008E8140001020431C2048850D6
:1020C000E000000000000000FF0000FF0000000032
:1020D00000070D1320438418E000F04F20100F0775
:1020E0000300000000000000FF0000FF00000000EF
:1020F00000000000000000010300060408F00000DA
:102100000000000000000000FF0000FF00000000D1
:1021100000000000000000384084020001000000C0
:102120000000000000000000FF00C0FF40404040F1
:10213000404040404040404040404040404040409F
:102140004040404040404040FFC0000E1428540A28
:102150000A04040A0A5428140E0003FF02020202B1
:10216000020202020202020202020202020202024F
:102170000202020202020202FF0300FF00000080CE
:102180008040402020101070F0F0F0D0F07010105F
:102190002020404080800000FF0000FF0000000081
:1021A00001010202040408080808080808080804D5
:1021B0000402020101000000FF0000FF0000000017
:1021C0000000000000B4000000006700000000D81C
:1021D0000000000000000000FF0000FF0000000001
:1021E00000000000001B000000001200000000DBE7
:1021F0000000000000000000FF00C0FF4040404021
:1022000040404040404040404040404040404040CE
:102210004040404040404040FFC003FF02020202F5
:10222000020202020202020202020202020202028E
:102230000202020202020202FF0300FF000000800D
:102240008040402020101070F0F0F0F0D07010109E
:102250002020404080800000FF0000FF00000000C0
:102260000101020204040808080808080808080414
:102270000402020101000000FF0000FF0000000056
:102280000000000000DC000000003300000000A897
:102290000000000000000000FF0000FF0000000040
:1022A000000000000015000000001300000000BF47
:1022B0000000000000000000FF00C0FF4040404060
:1022C000404040404040404040404040404040400E
:1022D0004040404040404040FFC000081C541408AB
:1022E00000000008145C1408000008144082410239
:1022F000281003FF0202020202020202020202028C
:10230000C232C202020202020202020202020202FD
:10231000FF0300FF00000080804040202010107666
:10232000F1F0F0D3D47010102020404080800000E5
:10233000FF0000FF0000000001010202C424108819
:102340008884844444C444C4C4C8D261C100000029
:10235000FF0000FF000000406050584E4120201058
:1023600090102222A424252525150C06010000002A
:10237000FF0000FF0000000000000000000000005F
:10238000031C700F000000000000000000000000AF
:10239000FF00C0FF4040404040404040404040407F
:1023A000404040404040404040404040404040402D
:1023B000FFC003FF02020202020202020202020244
:1023C000C232C2020202020202020202020202023D
:1023D000FF0300FF000000808040402020101076A6
:1023E000F1F0F0F3D4701010202040408080000005
:1023F000FF0000FF00000000010102E21008484455
:102400002222121272D2F2F2F47812E101000000DC
:10241000FF0000FF0000000000F8472010100868CF
:1024200088111112D21212120A06030000000000D5
:10243000FF0000FF0000000000000000000000009E
:10244000031C700F000000000000000000000000EE
:10245000FF00C0FF404040404040404040404040BE
:10246000404040404040404040404040404040406C
:10247000FFC000083C5614080000000814563C0831
:10248000000003FF02020202020202020202020232
:10249000FA02020202FA020202020202020202022C
:1024A000FF0300FF000000008080C04040C0C0F07B
:1024B0000F000000000FF00000000000000000000E
:1024C000FF0000FF00000001020404898B4B3F0362
:1024D000000000000000033C40808000000000007D
:1024E000FF0000FF000000000000010282442424DD
:1024F00004ACAC54540464C4840202010000000023
:10250000FF0000FF000000000000000003444C58E2
:10251000808A2A5505C060201F00000000000000CE
:10252000FF00C0FF404040404040404040404040ED
:102530004040414141404040404040404040404098
:10254000FFC003FF020202020202020202020202B2
:10255000FA02020202FA020202020202020202026B
:10256000FF0300FF000000008040C06020E0E0F8B2
:10257000070000000007F800000000000000000055
:10258000FF0000FF00000001020484494B2B1F01E3
:10259000000000000000011E2040408000000000FC
:1025A000FF0000FF0000000000000001E1120A0A25
:1025B000025656AAAA0262C282010100000000006F
:1025C000FF0000FF00000000000000000041434643
:1025D000808595AA82C060201F00000000000000D6
:1025E000FF00C0FF4040404040404040404040402D
:1025F00040404040404040404040404040404040DB
:10260000FFC000081C54360900000008145C36099D
:10261000000003FF020202020202020202020202A0
:10262000028282828282828202020202020202020A
:10263000FF0300FF0000000000000000F80C26135C
:1026400009000000003038000123320408F00000C7
:10265000FF0000FF0000000000000000030C121645
:102660001414141410141010101010080603000095
:10267000FF0000FF000000C06030984828040404F8
:102680000484C40404081890204080000000000066
:10269000FF0000FF0000003F409BB8B0A0A0A0805A
:1026A000A083838080808383A080613E000000003F
:1026B000FF00C0FF4040404040404040404040405C
:1026C000404040404040404040404040404040400A
:1026D000FFC003FF02020202020202020202020221
:1026E00002020202020202020202020202020202CA
:1026F000FF0300FF0000000000000000F0184C265F
:1027000012010101016171010246640810E000003C
:10271000FF0000FF0000000000000000030C121684
:1027200014141414101410101010100806030000D4
:10273000FF0000FF000000E030984C241402020269
:1027400002C2E20202048CC81020C0000000000097
:10275000FF0000FF0000003F4099B8B8B0A0A08083
:10276000A081818080808181A080603F0000000086
:10277000FF00C0FF4040404040404040404040409B
:102780004040404040404040404040404040404049
:10279000FFC02424CB300CD3242403FF0202020206
:1027A0000202020202020282828282828282820209
:1027B0000202020202020202FF0300FF0000000008
:1027C00000C038040211111050488898A8B8B8B950
:1027D0009ACC380000000000FF0000FF00080C0A3F
:1027E0000B090804040202020404040404040402A1
:1027F0000100000000000000FF0000FF000000E0FA
:1028000030984C24140202020282C2020202040C1A
:10281000881020C000000000FF0000FF0000003F03
:102820006099B8B8B0A0A0A080A383808080808386
:1028300083A080603F000000FF00C0FF4040404098
:102840004040404040404040404040404040404088
:102850004040404040404040FFC003FF02020202AF
:102860000202020202020282828282828282820248
:102870000202020202020202FF0300FF0000000047
:1028800000C03804021111084844849CB4BCBCBD8B
:102890009EC4380000000000FF0000FF00000000A0
:1028A0003E110804040202020404040404040402A5
:1028B0000100000000000000FF0000FF000000F029
:1028C00018CC26120A01010101C1E10101010286B1
:1028D000C408106080000000FF0000FF0000003FFF
:1028E000609CBCBCB8B0A0A080A3818080808083A5
:1028F00081A080603F000000FF00C0FF40404040DA
:1029000040404040404040404040404040404040C7
:102910004040404040404040FFC042A90248124071
:10292000954203FF020202020202020202020202B6
:102930000202020202020202020202020202020277
:10294000FF0300FF00000000000000000000000086
:102950000000000000000000000000000000000077
:10296000FF0000FF00000000000000000000000069
:102970000000000000000000000000000000000057
:10298000FF0000FF000000F018CC26120A01010130
:1029900001C1E10101010286C4081060800000004D
:1029A000FF0000FF0000003F609CBCBCB8B0A0A0CE
:1029B00080A381808080808381A080603F000000B0
:1029C000FF00C0FF40404040404040404040404049
:1029D00040404040404040404040404040404040F7
:1029E000FFC003FF0202020202020202020202020E
:1029F00002020202020202020202020202020202B7
:102A0000FF0300FF000000000000000000000000C5
:102A100000000000000000000000000000000000B6
:102A2000FF0000FF000000000000000000000000A8
:102A30000000000000000000000000000000000096
:102A4000FF0000FF000000E030984C241402020256
:102A500002C2E2020202048CC81020C00000000082
:102A6000FF0000FF0000003F6099B8B8B0A0A0A030
:102A700080A181808080808181A080603F000000F3
:102A8000FF00C0FF40404040404040404040404088
:102A90004040404040404040404040404040404036
:102AA000FFC00070686878787000006050507070E7
:102AB0006000502711241FBECFEFDAE0DEBFCDBF8C
:102AC00011E0A0E0B1E0E8EBFCE602C005900D9259
:102AD000AE36B107D9F726E0AEE6B1E001C01D92EF
:102AE000A03FB207E1F715E1CAE5D5E104C021979F
:102AF000FE010E945436C935D107C9F70E94C62786
:102B00000C945A360C94000080916E010895CF9376
:102B1000DF93E82FF0E070E0DF0123E0AA0FBB1F96
:102B20002A95E1F7A15FBD4FA60FB71F55962C91CF
:102B30005597213019F5EF0193E0CC0FDD1F9A95E1
:102B4000E1F7C95FDD4FC60FD71F2D892230B0F4E2
:102B500054962C915497223088F483E0EE0FFF1F97
:102B60008A95E1F7E95EFD4FE60FF71F8589823010
:102B700028F481E056969C91923008F080E0DF9135
:102B8000CF910895E7EDF2E0A0E0B8E000800EBC40
:102B90008111012C1197A0FDFDCF0192B9F70DB461
:102BA00008954F925F926F927F928F929F92AF9211
:102BB000BF92CF92DF92EF92FF920F931F93CF932A
:102BC000DF9330E0F901E80FF91F1E161F060CF025
:102BD0009BC0803891050CF097C0FB01E00FF11D00
:102BE0001E161F060CF090C0603471050CF08CC0EE
:102BF000DB0177FF04C0AA27BB27A61BB70BA77072
:102C0000BB27FB0177FD3796C3E0F595E795CA959D
:102C1000E1F777FF07C0319768E070E0EB01CA1B6E
:102C2000DB0BDE01802E869486948694912C0770AF
:102C300019F0DFEF8D1A9D0ABF018A01AF01569589
:102C4000542F442757954795480F591F49525D4FB8
:102C5000860E971EE8E0F0E03F016A1A7B0A6F3F9C
:102C6000EFEF7E070CF443C07C01D0E0C0E05A01D6
:102C7000E0E8AE0EB11CF7FC2EC06F3F760709F4FA
:102C800054C0F801EC0FFD1FE4916A01CC0EDD1E6B
:102C9000F0E02F010A2E01C0440C0A94EAF7F60175
:102CA0005080452840821097B1F06730710599F047
:102CB000F801EC0FFD1FE4916501CC0EDD1EF0E084
:102CC0002F01062C02C0559447940A94E2F7F601AE
:102CD0005080452840822196FFEFEF1AFF0AC21765
:102CE000D3072CF4F0E8EF16F10409F0C4CF6F5FBE
:102CF0007F4F020F131F40585F4F8616970621F033
:102D00006830710509F0ABCFDF91CF911F910F9122
:102D1000FF90EF90DF90CF90BF90AF909F908F90FB
:102D20007F906F905F904F900895109709F0C0CFFB
:102D3000D2CF8F929F92AF92BF92CF92DF92EF92BB
:102D4000FF920F931F93CF93DF93D82FC62F08E0E6
:102D500028E04CE152E170E060E090E080E00E9409
:102D6000D1158D2F8250990B5C016C0123E0CC0CA6
:102D7000DD1C2A95E1F728E044E152E170E060E0D3
:102D8000C6010E94D1158C2F8250990B7C014C01F9
:102D900033E0880C991C3A95E1F728E04CE052E1C9
:102DA000B40190E080E00E94D11528E044E052E1B7
:102DB000B401C6010E94D11511E0C12FD0E0CA159F
:102DC000DB05BCF493E0CC0FDD1F9A95E1F708E03A
:102DD00028E04CEF51E170E060E0CE010E94D11597
:102DE00028E044EF51E1B401CE010E94D1151F5FEC
:102DF000E4CF11E0C12FD0E0CE15DF05BCF483E0B5
:102E0000CC0FDD1F8A95E1F708E028E04CEE51E198
:102E1000BE0190E080E00E94D11528E044EE51E12F
:102E2000BE01C6010E94D1151F5FE4CFDF91CF9193
:102E30001F910F91FF90EF90DF90CF90BF90AF90D8
:102E40009F908F900895482FA4E9B2E02CE932E0DA
:102E5000FD0180E09681941308C09581993028F493
:102E6000811103C09F5F958381E032962E173F0743
:102E700089F7811123C030E020E016969C911697C7
:102E8000992311F0491314C015969C911597993008
:102E900078F4F901EE0FFF1FEC56FD4F9F5F95830D
:102EA000220F331FF901E656FD4F408381E008955C
:102EB0002F5F3F4F129624303105F9F60895DF92C7
:102EC000EF92FF920F931F93CF93DF938C01D090DB
:102ED0008C02ED2DF0E0AF01480F591F90918D024B
:102EE000E92EF12CE701C60FD71FDA0133E0AA0F54
:102EF000BB1F3A95E1F7A15FBD4FAC0FBD1F5596C3
:102F00008C91882319F123E0EE0FFF1F2A95E1F73A
:102F1000E15FFD4FEE0DFF1D2589233010F021E00C
:102F2000258B0D0D00938C02690F60938D02833009
:102F300068F0552793E0440F551F9A95E1F7415FDC
:102F40005D4FC40FD52FD11D91E09D8BDF91CF91A7
:102F50001F910F91FF90EF90DF900895E4E9F2E068
:102F600030E020E09681891741F02F5F3F4F329685
:102F700024303105B9F780E00895A901440F551FA9
:102F8000FA01EC56FD4F8581811101C081E081502D
:102F90004C565D4FFA018583811106C0220F331F05
:102FA000F901E656FD4F108281E0089585E00E9408
:102FB000AE17811112C090919602992321F0915081
:102FC000909396020895209194022150330B37FD7F
:102FD00020E02093940281E0211180E00895809107
:102FE000A1029091A2022091A7023091A8024091E3
:102FF000A3025091A402B901640F751F68177907E5
:1030000070F0E091A502F091A6026E177F0748F0DC
:10301000840F951F8217930730F083E0089580E0B6
:10302000089581E0089582E00895FC018091A60151
:10303000882311F13FB7F89482E08093E900209152
:10304000F200822F90E01816190614F481E090E047
:10305000882339F0289844E64093A5014091F10077
:103060004083222339F02091F200211103C02BE686
:103070002093E8003FBF08958FEF9FEF08952FB78B
:10308000F89483E08093E9009091E800892F8072A2
:1030900095FF04C09091F20080E4891B2FBF089532
:1030A00080919D0181110DC082E08093990184E09F
:1030B00080939A0110929C0110929B0181E0809371
:1030C0009D0189E991E00895409184015091850125
:1030D000209182013091830142175307B4F49091FB
:1030E000E8009570E1F39091E80092FD19C080939B
:1030F000F100809184019091850101968F73992749
:10310000892B19F48EEF8093E800809184019091CF
:1031100085010196909385018093840181E0089553
:1031200080E00895DF92EF92FF920F931F93CF9369
:10313000DF93D82E8A01EB017B01E40EF51ECE153C
:10314000DF0559F0D7FE12C0FE0184910E94641879
:1031500021968111F4CF0FEF1FEFC801DF91CF91BE
:103160001F910F91FF90EF90DF9008958881EECF2F
:103170000F931F93CF93DF931F92CDB7DEB782E0FB
:10318000898342E450E066EC7BE080E80E9492187C
:103190000E945018DC0112960D911C910115110529
:1031A00089F0D801ED91FC910280F381E02DBE0100
:1031B0006F5F7F4FC801099597FD04C0F801008536
:1031C0001185ECCF89810F90DF91CF911F910F91E5
:1031D0000895615030F02091F100FC0120830196A8
:1031E000F8CF289884E68093A5010895AF92BF9206
:1031F000CF92DF92EF92FF920F931F93CF93DF93C3
:103200006C017B018B01040F151FEB015E01AE18F1
:10321000BF08C017D10759F06991D601ED91FC9113
:103220000190F081E02DC6010995892B79F7C50140
:10323000DF91CF911F910F91FF90EF90DF90CF9092
:10324000BF90AF900895CF93DF931F92CDB7DEB7B5
:103250006983DC01ED91FC910280F381E02D41E076
:1032600050E0BE016F5F7F4F09950F90DF91CF91C6
:10327000089583E08093E9008091F200882319F09B
:103280008AE38093E80008950E943F1890E0089533
:10329000CF93DF931F92CDB7DEB7FC018485958570
:1032A00097FD08C02FEF3FEF358724870F90DF9100
:1032B000CF910895CE0101960E941518019719F437
:1032C000898190E0F3CF8FEF9FEFF0CF0F931F93A3
:1032D000CF93DF931F92CDB7DEB78C01FC018485BD
:1032E000958597FF0BC0CE0101960E941518019796
:1032F00071F4898190E0F80195878487F8018485CD
:1033000095850F90DF91CF911F910F9108958FEFC9
:103310009FEFF1CFFC018485958597FD0BC09FB78A
:10332000F89482E08093E9008091F2009FBF90E0E2
:10333000019608959FB7F89482E08093E900809108
:10334000F2009FBF90E008953FB7F89480917E010E
:1033500090917F01A0918001B091810126B5A89B39
:1033600005C02F3F19F00196A11DB11D3FBFBA2F17
:10337000A92F982F8827BC01CD01620F711D811DD7
:10338000911D42E0660F771F881F991F4A95D1F75C
:1033900008958F929F92AF92BF92CF92DF92EF9259
:1033A000FF926B017C010E94A4194B015C01C114C6
:1033B000D104E104F104B9F00E94A4196819790953
:1033C0008A099B09683E73408105910580F321E0DD
:1033D000C21AD108E108F10888EE880E83E0981E31
:1033E000A11CB11CE4CFFF90EF90DF90CF90BF9075
:1033F000AF909F908F9008958F929F92AF92BF92BF
:10340000CF92DF92EF92FF920F931F93CF93DF93B0
:103410006C017B018A0180910B01882309F45CC057
:103420008091A601882309F457C08091880180FF0C
:1034300005C08091E00082608093E000E801B12C3B
:103440008AEFA82E93E0892E2AE3922E209711F47A
:10345000BB20D9F10E943F1881110AC0AA94AA206A
:10346000D9F161E070E080E090E00E94C919EECFF0
:103470008C171D0611F00CF08C2F9FB7F8948092DA
:10348000E9002091E80025FD02C09FBFDFCF282F73
:1034900030E0C21BD30BF701815020F041914093E3
:1034A000F100FACFE20EF31EBB2021F09092E8006B
:1034B000B12CEBCF8091E80085FDE7CF9092E8003A
:1034C000BB24B394209709F3F3CF5D9884E68093EF
:1034D0008701101611063CF081E090E0F60193831D
:1034E000828310E000E0C801DF91CF911F910F911E
:1034F000FF90EF90DF90CF90BF90AF909F908F9014
:1035000008956F927F928F929F92AF92BF92CF92C7
:10351000DF92EF92FF920F931F93CF93DF934C01B3
:103520007B01C22F102F98E0A92EB12C642E669437
:1035300066946694712CCA0187709927892B79F556
:10354000D40117962D913C91C7019927B9010E948A
:103550004036269DF001279DF00D369DF00D11247B
:103560008E0F9F1FD4011596ED91FC91E80FF91F66
:103570002081111112C0C095C223C083DF91CF9169
:103580001F910F91FF90EF90DF90CF90BF90AF9081
:103590009F908F907F906F900895C22BEECFD0E0D8
:1035A0004770C42ED12C83E0660C771C8A95E1F716
:1035B0009E0101C0220F4A95EAF7012FA301B7012E
:1035C000C4010E94811AA301485F5F4FC5018C1995
:1035D0009D0902C0D595C7958A95E2F7A7CF5F925E
:1035E0006F927F928F929F92AF92BF92CF92DF9213
:1035F000EF92FF920F931F93CF93DF93EC016A300A
:10360000F1F48D859E859C878B878C892F853889E1
:10361000820F932F911D988B8F8781E090E0DF912F
:10362000CF911F910F91FF90EF90DF90CF90BF90BF
:10363000AF909F908F907F906F905F900895AB8434
:10364000BC84693031F429E0A20EB11CBC86AB8683
:10365000E4CF3DEFA3163FEFB3060CF45DC08F81BE
:103660009885A816B9060CF057C0CF84D8888DEF7E
:10367000C8168FEFD8060CF44FC089859A85C816F6
:10368000D9060CF049C0603208F46FE780EE860F6F
:103690009FE9960F9A3118F49FEFC91AD90A8C3016
:1036A00011F08B3119F42FEFC21AD20A869534E04B
:1036B000839FC00111249C012A5F344F7901912C12
:1036C000812C162F1170F701E80DF91D549011117E
:1036D0002DC0352D3F70532E3501680C791C8C811F
:1036E000882361F001E089899A89892B09F000E03B
:1036F0002FE0A601B301CE010E94811A0989252D70
:10370000A601B301CE010E94811A8FEF881A980A90
:1037100094E089169104B9F68B8990E004962B8584
:103720003C85820F931F9C878B8777CF52948FE0C5
:103730005822D2CF20917601E0917401F091750169
:10374000CF0102969093750180937401222319F0A2
:10375000859194910895808191810895CF92DF920F
:10376000EF92FF92CF93DF930E949A1B811520E87E
:10377000920791F4809171008D7F80937100109277
:1037800091004698479810927301DF91CF91FF9076
:10379000EF90DF90CF90089521E020937301813066
:1037A00020E8920751F480917101909172019093F9
:1037B0007501809374010E949A1B97FD05C02091AA
:1037C0007001222309F454C020916F01211150C0CF
:1037D00021E020937701EC01DF77209709F04BC0BF
:1037E00081E08093780146983FE9C32E3FE0D32ED5
:1037F000E12CF12CCAEFD0E0E0910502F091060235
:103800000995811103C081E080937801809177014F
:10381000882329F080917801882309F43FC04798D4
:103820000E949A1B0097F1F19C01DE010E94F9347D
:10383000DC01CB0129E0B595A795979587952A9549
:10384000D1F7109290002AE020939100D092990035
:10385000C09298008093790190937A01A0937B01A4
:10386000B0937C01809171008260809371008DCF54
:1038700010927701B0CF9E0150E040E060E472E426
:103880008FE090E00E94A53469017A0181E0C81AB6
:10389000D108E108F10810927801AECF4699BFCF68
:1038A000479ABECF8FEF9FEFDC01CBCF9C01E1E7C2
:1038B000F0E090819D7F908310927601E7EFF1E038
:1038C000F0937501E0937401F0937201E09371013C
:1038D000318320837383628380E090E895838483BF
:1038E0000C94AE1B2D9A0895BC0190E080E00C94DE
:1038F000C9198FB18095807F669B88601C9B84600E
:10390000089510926E013E983F9808953E9A3F9A0E
:1039100081E080936E010895AF92BF92CF92DF92C3
:10392000EF92FF920F931F93CF93DF936D3079F057
:10393000C0918E01D0918F016A30B1F410928D0147
:1039400010928C012896D0938F01C0938E0181E054
:1039500090E0DF91CF911F910F91FF90EF90DF905A
:10396000CF90BF90AF90089540918C0150918D0100
:1039700085E0689FF0011124EA5FF94F9A01C12C9C
:1039800080E1E82EA5E070E0CA1621F0CF01019693
:103990007491FC0110E000E0B72FB170DB2E2038ED
:1039A0003105D0F4CE01800F911F80349105A0F431
:1039B00061E081FD64E080FD660F82FD6295887F95
:1039C000E89ED0011124A20FF62EA952BD4F8C9172
:1039D000DD20A9F0862B8C9376950F5F1F4F083062
:1039E0001105D1F6C3942F5F3F4F86E0C812CACFAE
:1039F0004A5F5F4F50938D0140938C01A8CFF094A4
:103A00008F21E9CF90918A01982329F490918B011D
:103A1000982381E009F480E008951F93CF93DF930A
:103A2000D82F10918F020E94021DC82F112359F028
:103A3000811106C0C0E08C2FDF91CF911F910895B6
:103A400010928F02F8CF882329F082E080938E02B3
:103A5000C1E0F1CF0E94791C8D23D81304C080915E
:103A60008E02882391F30E94791C8D23D813E2CF14
:103A700080918E028823F1F2815080938E02DBCFF9
:103A800080E00C94C21582E390E00E94741C0E94B6
:103A9000791C8111F8CF089588E00E94021D8111E0
:103AA00003C080E20C94021D089584E00E94021D70
:103AB000811103C080E40C94021D0895CF93DF931D
:103AC000EC0180E80E94021D882329F08881882368
:103AD00011F08150888380E10E94021D882331F01B
:103AE00088819981891710F48F5F8883DF91CF9146
:103AF000089568E270E088E592E00C94561C68E254
:103B000070E088EC90E00C94561C62E370E08CEB63
:103B100092E00C94561C62E370E08AEF90E00C9403
:103B2000561C089590E080E008951F93CF93DF9393
:103B3000D82F0E94D43364E070E00E944036813078
:103B40009105B1F12CF4C1E0892BB1F080E02CC0DB
:103B50008230910509F43FC0CBE00397B9F710E03C
:103B6000612F8C2F0E94871581112AC01F5F17308B
:103B7000B9F7C150A1F718C011E0612F8C2F0E9436
:103B80008715882359F098E0C99FB0011124615F1F
:103B90007D4F610F711DFB01D58B06C01F5F173074
:103BA00061F7CF5FCC3041F7DF91CF911F9108953E
:103BB000C1E016E0612F8C2F0E948715882329F021
:103BC000F8E0CF9FB0011124E2CF115099F7CF5FF9
:103BD000CC3079F7E9CFCBE016E0612F8C2F0E9433
:103BE00087158111EDCF1150C1F7C150A9F7DCCF76
:103BF0000F931F93CF93DF93182F0AE0C4E0D0E018
:103C00000E94D433BE010E94403681309105E9F113
:103C100034F4892B29F1015099F780E04CC08230AF
:103C2000910509F44DC00397B1F720918C02223021
:103C300090F330918D02E22FE150FF0BCF0143E072
:103C4000880F991F4A95E1F7815F9D4F830F911D62
:103C5000FC0185891813DFCF215020938C022AC0E4
:103C600080918D028230B8F2E0918C0248E0E49FAE
:103C7000F0011124E15FFD4FE80FF11D9489191344
:103C8000CACF815080938D0215C080918C028B30F9
:103C900010F6E0918D0258E0859F90011124295E75
:103CA0003D4FE20FF32FF11D95891913B4CF8F5FAC
:103CB00080938C0281E0DF91CF911F910F91089545
:103CC00080918D02863008F0A6CFE0918C0298E0BA
:103CD000E99FF0011124E15FFD4FE80FF11D968986
:103CE000191399CF8F5FCECF0F931F93CF93DF938D
:103CF00081E080938F02EFE0F2E087E792E0158A9F
:103D0000168A178A108E118E128E138E148E389684
:103D10008E179F07A1F786E080938C0283E0809343
:103D20008D0281E080935702C2E380E00E94F81D7B
:103D3000811103C081E00E94F81D80918C022091C6
:103D40008D0238E0839FC0011124815F9D4F820F57
:103D5000911D21E0FC01258BC15039F786E080934D
:103D60008C0283E080938D021092570210925F02C2
:103D700010924F0210925802109256021092600256
:103D800010925E021092500210924E021092130294
:103D900080910F029091100283369105B0F582E078
:103DA0000E94951D0E94D43380FD09C00E94D43327
:103DB00066E070E00E9440368D5F0E94951D809104
:103DC0000F0290911002892B01F1C0E003E010E096
:103DD0000E94D433B8010E944036C817190609F072
:103DE0002CF48AE00E94951DCF5FF2CF0E94D4335D
:103DF000B8010E944036892B41F489E00E94951D4C
:103E0000882319F081E08093130280918C0290E066
:103E100020918D0230E0BC0143E0660F771F4A9588
:103E2000E1F7615F7D4FFB01E20FF31F41E0458B3E
:103E3000FC0153E0EE0FFF1F5A95E1F7E95EFD4FDD
:103E4000DF01A20FB31F55964C93A3E0880F991F73
:103E5000AA95E1F7895F9D4FDC01A20FB31F55962C
:103E60004C93D9011196EB01CA0FDB1F4D8B2150EA
:103E70003109620F731FEB014D8BEF01CA0FDB1F7E
:103E80004D8BE20FF31F458BA80FB91F55964C932E
:103E9000280F391FF901458BDF91CF911F910F91A9
:103EA0000895EFE0F2E01182108210928E021382E8
:103EB00012820E94741EE4E9F2E089E0808381E0CE
:103EC0008183128216861586108A1786128A118AB5
:103ED000148A138A1582168217821086118612861A
:103EE0000895CF93C82F80E0C11106C00E94D4333B
:103EF0006FE070E00E9440368093170290911902A3
:103F000089130CC0C1110AC0811104C08EE08093D6
:103F1000170204C08E30E1F410921702E0911702EC
:103F2000E0931902EE3008F0A6C1F0E0E656F04E3C
:103F30000C945436AA1FCD1FEB1F05201F203D20D7
:103F4000572075208F20AD20C720E5200321212197
:103F50008F5FDDCF8AEA9AE290931B0280931A0268
:103F600082EA9AE290931D0280931C0282EE99E20B
:103F700090931F0280931E0282E299E290932102A5
:103F8000809320028AE0809318028AE199E290935C
:103F9000230280932202CF9108958AEA9AE29093B5
:103FA0001B0280931A0282EA9AE290931D02809388
:103FB0001C028AE598E290931F0280931E028AE910
:103FC00097E290932102809320028FE08093180261
:103FD00082E997E2DCCF8AEA9AE290931B0280930F
:103FE0001A0282EA9AE290931D0280931C0282EDEB
:103FF00096E290931F0280931E0282E196E29093D4
:1040000021028093200284E1BECF8AE096E2909361
:104010001B0280931A0282E096E290931D02809325
:104020001C0282E495E290931F0280931E0282E8B4
:1040300094E2909321028093200289E1C7CF8AE71E
:1040400094E290931B0280931A0282E794E2909389
:104050001D0280931C0282EB93E290931F028093D7
:104060001E0282EF92E290932102809320028EE161
:10407000809318028AEE92E28ACF82EE92E29093C7
:104080001B0280931A028AED92E290931D028093A4
:104090001C028AE192E290931F0280931E028AE53D
:1040A00091E2909321028093200283E2E1CF82E5A6
:1040B00091E290931B0280931A028AE491E290931A
:1040C0001D0280931C028AE890E290931F02809365
:1040D0001E028AEC9FE1909321028093200288E2E5
:1040E0008093180282EC9FE152CF8AEB9FE190937C
:1040F0001B0280931A0282EB9FE190931D02809332
:104100001C0282EF9EE190931F0280931E0282E3C5
:104110009EE190932102809320028DE2E1CF8AE21A
:104120009EE190931B0280931A0282E29EE190939B
:104130001D0280931C0282E69DE190931F028093F2
:104140001E0282EA9CE1909321028093200282E386
:10415000809318028AE99CE11ACF82E99CE190934E
:104160001B0280931A028AE89CE190931D028093BF
:104170001C028AEC9BE190931F0280931E028AE04E
:104180009BE1909321028093200287E3E1CF82E0BC
:104190009BE190931B0280931A028AEF9AE190931D
:1041A0001D0280931C028AE39AE190931F02809380
:1041B0001E028AE799E190932102809320028CE30A
:1041C0008093180282E799E1E2CE8AE699E1909322
:1041D0001B0280931A0282E699E190931D0280935C
:1041E0001C0282EA98E190931F0280931E0282EEE5
:1041F00097E1909321028093200281E4809318023A
:104200008AED97E1C4CE82ED97E190931B028093F3
:104210001A028AEC97E190931D0280931C028AE0B7
:1042200097E190931F0280931E028AE496E1909397
:1042300021028093200286E48093180282E496E1B2
:10424000A6CE8AE396E190931B0280931A0282E342
:1042500096E190931D0280931C0282E795E1909372
:104260001F0280931E0282EB94E1909321028093BF
:1042700020028BE4E1CF8AEA94E190931B028093C1
:104280001A0282EA94E190931D0280931C0282EE4E
:1042900093E190931F0280931E0282E293E1909338
:1042A00021028093200280E5A9CFFB01019000202C
:1042B000E9F73197AF01461B570BDC01ED91FC91FB
:1042C0000280F381E02D09948F929F92AF92BF926A
:1042D000EF92FF920F931F93CF93DF93CDB7DEB78B
:1042E000A1970FB6F894DEBF0FBECDBF009190022C
:1042F0001091910290E0F8019687858794878387D3
:1043000070E0708B67879A0150E040E019A27E014F
:10431000F1E2EF0EF11C8AE0882E912CA12CB12C39
:10432000CA01B901A50194010E94D734605DF7016B
:1043300062937F01211531054105510589F73097B9
:1043400021F0BF01C8010E945521A1960FB6F89433
:10435000DEBF0FBECDBFDF91CF911F910F91FF90B8
:10436000EF90BF90AF909F908F9008950F931F9301
:10437000CF93DF93CDB7DEB72A970FB6F894DEBFA1
:104380000FBECDBF009190021091910290E0F80114
:10439000968785879487838770E0708B6787E42F83
:1043A000F0E0EE0FFF1FEC51FD4E65917491CE01D0
:1043B00001960E948834009721F0BC01C8010E9438
:1043C00055212A960FB6F894DEBF0FBECDBFDF9100
:1043D000CF911F910F910895EF92FF920F93CF937A
:1043E000C82F7B01FB018181853071F1B8F48430E5
:1043F00001F1F70180818230A8F1CE5F4EE16C2F90
:104400008DE60E94B621F701408150E06C2F83E7D2
:10441000CF910F91FF90EF900C9464218730D9F0E9
:10442000883039F76C2F70E008E028E044E252E170
:1044300006C06C2F70E008E028E04CE352E183E610
:1044400090E00E94D115D5CF6C2F70E008E028E0F5
:1044500044E352E1F4CF6C2F70E008E028E04CE236
:1044600052E1EDCFCF910F91FF90EF9008954091E1
:1044700094024A3008F049E050E062E084E60E948D
:104480006421409195024A3008F049E050E069E02B
:1044900084E60E946421409196024A3008F049E087
:1044A00050E060E184E60E94642141E062E08CE635
:1044B0000E94B62142E069E08CE60E94B62143E00A
:1044C00060E18CE60E94B62169E972E088E10E9411
:1044D000EC216BE972E080E20E94EC216DE972E070
:1044E00088E20E94EC216FE972E080E30C94EC21F9
:1044F0000F931F93CF93DF93CDB7DEB76E970FB6B1
:10450000F894DEBF0FBECDBF0091900210919102D2
:1045100090E0F801968785879487838770E0708B99
:104520006787E42FF0E0EE0FFF1FEC5BFD4E659117
:104530007491CE0101960E948834009721F0BC014D
:10454000C8010E9455216E960FB6F894DEBF0FBECB
:10455000CDBFDF91CF911F910F910895CF93DF933E
:1045600020919302222341F0409192026CE380E07B
:10457000DF91CF910C947822EC0140E06CE380E075
:104580000E947822AE016CE38CE3DF91CF910C9412
:104590006421EF92FF920F93CF93C82F7B018091FC
:1045A000150200E320E244E251E181110AC080914A
:1045B000AD0200E320E244E650E1863010F044EA28
:1045C0005FE064E070E084E090E00E94D11583E653
:1045D000E816F104F1F445E368E088E20E947822ED
:1045E00046E360E188E20E9478224AE268E188E2DC
:1045F0000E9478224CE260E288E20E94782243E640
:1046000050E060E284E6CF910F91FF90EF900C9420
:1046100064218091140290911502992309F181116E
:104620001BC04AE164E380E50E94B62149E268E0EC
:1046300088E20E9478224BE260E188E20E947822C0
:104640004AE268E188E20E9478224CE260E288E275
:104650000E947822A701D5CF815080931402E6CF23
:10466000811122C04AE164E380E50E94B6210E94E4
:10467000EF17813019F1E0F0823011F1833011F140
:104680004FE2CB3010F5EC2FF0E0E75BFC4D0C94E3
:104690005436642364236423772377237723792391
:1046A0007B237B237D237F23815080931402DFCFE4
:1046B00045E268E088E20E947822E2CF46E2F9CF44
:1046C00047E2F7CF48E2F5CF4DE268E188E20E9489
:1046D00078224AE260E188E20E9478224AE260E2BF
:1046E00088E2CF910F91FF90EF900C94782241E3F4
:1046F000ECCF40E3EACF42E3E8CF4EE2E6CF43E33C
:10470000E4CF0C948F340E94791C82FF48C02D980E
:104710000E94791C84788438E1F40E94721C88EC31
:1047200090E00E94741C2F9882E090E00E948F34E9
:104730008F3F29F06FEF82E090E00E94973484EF82
:1047400091E00E94741C2F9A0E94791C847884380E
:10475000D9F30E94791C84718431E1F40E94721CA7
:1047600088EC90E00E94741C2E9882E090E00E94F9
:104770008F34882329F060E082E090E00E94973433
:1047800084EF91E00E94741C2E9A0E94791C84711F
:104790008431D9F388EC90E00E94741CB4CF0C945F
:1047A000721C1F920F920FB60F9211248F939F933A
:1047B0008091E1009091E100937F9093E10083FF6D
:1047C0000FC01092E90091E09093EB001092EC0082
:1047D00092E39093ED001092A60198E09093F00080
:1047E00082FF22C093E09093E9009091F200992318
:1047F00019F09AE39093E80090918701992341F092
:1048000090918701915090938701911101C05D9A19
:104810009091A501992341F09091A5019150909319
:10482000A501911101C0289A84FF18C08091E2006F
:104830008E7E81608093E2008091E1008F7E809384
:10484000E100809188018E7E8061809388019F9134
:104850008F910F900FBE0F901F90189580FFF7CF8C
:104860008091E2008E7E80618093E2008091E10081
:104870008E7E8093E100809188018E7E8160E5CFFD
:104880001F920F920FB60F921124CF92DF92EF92E8
:10489000FF920F931F932F933F934F935F936F93C9
:1048A0007F938F939F93AF93BF93EF93FF93CF9398
:1048B000DF93CDB7DEB76C97DEBFCDBF1092E900B6
:1048C0008091E80083FF25C068E0CE0145960E94F4
:1048D000E91882EF8093E8008D8987FF39C09091B5
:1048E000E80090FFFCCF982F907609F034C19E89A4
:1048F0004F89588D2F89F88C911131C0803861F51E
:10490000809189018093F1001092F1008EEF8093E5
:10491000E8006C960FB6F894DEBF0FBECDBFDF91F6
:10492000CF91FF91EF91BF91AF919F918F917F9127
:104930006F915F914F913F912F911F910F91FF9038
:10494000EF90DF90CF900F900FBE0F901F901895B3
:104950009EEF9093E800C7CF1092F100D5CF913031
:1049600059F48111D3CF4130510581F680918901ED
:104970008D7F80938901CACF933049F48111C6CFCE
:104980004130510519F6809189018260F2CF95304E
:1049900041F48091E80080FFFCCF20682093E30081
:1049A000B5CF963009F0A9C00B8D1C8D22E0109276
:1049B000E9001092850110928401F2122EC010922B
:1049C0008301109282010E94B8181F8299E0998396
:1049D000FA8291E09E8390EA98879AEF99872091D6
:1049E000840130918501275F3F4F3C832B838D836A
:1049F0001092E900109285011092840110938301B6
:104A00000093820149E050E0BE016F5F7F4F80E07C
:104A10000E9492180E94B81879CF109383010093D6
:104A200082010E945018DC0112960D911C91011513
:104A3000110509F451C1D801ED91FC910480F58173
:104A4000E02DBE016B5E7F4FC8010995009709F00C
:104A50003EC1F80100851185EACFF3E0FF120EC0D8
:104A60008F89882309F440C0823061F440E860E116
:104A70008AE29CE00E941D27811148CF81E2809349
:104A8000EB0047CF813029F440E86BE08EE19CE0F9
:104A9000F1CF833099F70E945018DC011296ED9007
:104AA000FC908E010F5F1F4F6801E114F10479F053
:104AB000D701ED91FC910680F781E02DB801C70187
:104AC0000995080F111DF701E084F184EECFD8019C
:104AD0001C92F60101900020E9F73197BF016C1993
:104AE0007D0940E0C601C6CF68E07CE0FB0144914F
:104AF00050E080E80E94921809CF973009F4BECFA9
:104B0000983021F481E08093F10000CF993009F0D2
:104B1000FDCE837009F0B2CFEEE3F1E081E031E049
:104B200096E32191222371F08093E9003093EB000A
:104B3000DF0111972C912093EC009093ED008F5F93
:104B4000873079F78EE78093EA001092EA008F8928
:104B50008093A601DBCE8B8D9C8D1092E900109284
:104B60008501109284019093830180938201898D45
:104B7000811192C08E899D89913A49F4813209F060
:104B80007DCF47E050E064E071E080E0B3CF913248
:104B900009F074CF833269F48F89988DB0E0A0E07A
:104BA0008093000190930101A0930201B09303014F
:104BB000ADCE803269F48091E80082FFFCCF67E0DF
:104BC00084E091E00E94E9188BEF8093E8009ECE8C
:104BD000823209F09BCE8F8980930B01EEEFFFE7C5
:104BE000859194918B3F9C4D51F1E0E0F8E08091EC
:104BF000040190910501A0910601B0910701803B4D
:104C00009440A105B105F1F480910B0180FD1AC01B
:104C1000EE3F8AE0F80789F587E797E7918380837D
:104C2000809160008093860188E19BE00FB6F89444
:104C3000A895809360000FBE9093600067CEEEEF62
:104C4000FAE0D5CF808191818737974709F05ECE12
:104C5000A8958091600088618093600080918601B2
:104C600080936000EE3F2AE0F20789F08091FE0A0F
:104C70009091FF0A9183808349CE8081918187370B
:104C8000980751F29093FF0A8093FE0AC5CF1092C5
:104C9000FF0A1092FE0A3ACE0E945018DC011296CA
:104CA0000D911C910115110509F4E8CED801ED9183
:104CB000FC910190F081E02DBE016B5E7F4FC80139
:104CC0000995811123CEF80100851185EBCF1816C7
:104CD00019060CF41BCED2CEF1E0FF12BECE6CE072
:104CE0007CE004CF1F920F920FB60F9211242F93E6
:104CF0003F938F939F93AF93BF9380919101909136
:104D00009201A0919301B091940130917D0123E033
:104D1000230F2D3758F50196A11DB11D20937D015C
:104D20008093910190939201A0939301B093940189
:104D300080917E0190917F01A0918001B0918101CD
:104D40000196A11DB11D80937E0190937F01A093D8
:104D50008001B0938101BF91AF919F918F913F915D
:104D60002F910F900FBE0F901F90189526E8230FDC
:104D70000296A11DB11DD2CF1F920F920FB60F92B6
:104D800011242F933F934F935F936F937F938F9350
:104D90009F93AF93BF93EF93FF938091790190918D
:104DA0007A01A0917B01B0917C01892B8A2B8B2BFE
:104DB00009F440C08091780181110BC088B190E462
:104DC000892788B980917701882319F088B18058A4
:104DD00088B98091790190917A01A0917B01B0917D
:104DE0007C01181619061A061B069CF4809179019D
:104DF00090917A01A0917B01B0917C010197A1096A
:104E0000B1098093790190937A01A0937B01B093CB
:104E10007C01FF91EF91BF91AF919F918F917F9115
:104E20006F915F914F913F912F910F900FBE0F9017
:104E30001F9018950E94AE1BECCFEF92FF920F933C
:104E40001F93CF93DF93F82E192FE62E042F81E0C6
:104E5000860F880F0E94641883E00E946418CF2D8B
:104E6000D12FEC0EFD2EF11CCE15DF05B9F007FF9A
:104E700013C0FE0184910E946418182F80E00E94E4
:104E80006418812321968111EFCFDF91CF911F917B
:104E90000F91FF90EF9008958881EDCF81E0F5CFDD
:104EA000E7EAF1E01382128288EE93E0A0E0B0E03E
:104EB00084839583A683B78388E491E0918380837C
:104EC0008FEF9FEF95878487ECEEF6E013821282D6
:104ED00086E691E09183808384E895E190930602D1
:104EE0008093050280E090E890930402809303028F
:104EF00046983E9A47983F9AE7EDF6E01382128271
:104F00008AE591E09183808387ED92E096838583A3
:104F100080E890E09087878380E490E092878187A3
:104F200085E0848B81E0838B16861586108A178630
:104F30001486138621E030E0328B218B148298E2B4
:104F4000E5E1F1E0AEEAB2E001900D929A95E1F769
:104F50001092D602109298021092970280939302B8
:104F6000EFE0F2E01782108611861286ECE0F2E0A4
:104F7000108283E08183E9E0F2E0108282E08183A5
:104F80001282E7E0F2E0108281830895CF93DF93ED
:104F9000CDB7DEB72A970FB6F894DEBF0FBECDBFF0
:104FA000789484B5826084BD84B5816084BD85B504
:104FB000826085BD85B5816085BD80916E00816010
:104FC00080936E00109281008091810082608093B6
:104FD00081008091810081608093810080918000B8
:104FE0008160809380008091910082608093910025
:104FF0008091910081608093910080919000816008
:10500000809390008091C10084608093C100809162
:10501000C10082608093C1008091C1008160809353
:10502000C1008091C30081608093C3008091C00063
:1050300082608093C0008091C20081608093C20032
:1050400080917A00846080937A0080917A008260F7
:1050500080937A0080917A00816080937A008091B9
:105060007A00806880937A001092A60110928901DC
:10507000109288018091D70081608093D70080EAE8
:105080008093D80089B5806189BD89B5826089BD6A
:1050900009B400FEFDCF61E070E080E090E00E9486
:1050A000C9198091D8008F7C80618093D80080914D
:1050B000E000807F8093E0008091E1008E7E80930D
:1050C000E1008DE08093E200559A209A81EC809374
:1050D0007C0085B1806F85B984B1877E84B984B145
:1050E000876E84B95E9A5F988AB1806D8AB9769A24
:1050F0006E9881B3806F81BB899880B38D7080BBBF
:1051000080E58CBD81E08DBD85E090E00E94741C3F
:105110005F9A85E090E00E94741C5E985C98EBEECC
:10512000FCE088EF9CE024912EBD00000DB407FE4A
:10513000FDCF31968E179F07B1F75C9A81E8809377
:105140006400809165008160809365000E94401D2D
:105150000E94791C87FF15C05C9885EA8EBD00000F
:105160000DB407FEFDCF5C9A2E982F982D98809154
:10517000640080628093640081E083BF889513BEE1
:10518000FCCF0E94832382E090E00E948123882349
:1051900009F48EC00E94861C81E090E00E94812369
:1051A000182F147081FF0EC011112E9821EF3FEFC0
:1051B0003A8329830E94791C86FF7DC02E9A2F9AFC
:1051C0000E94721C0E94431D82E480930C01809116
:1051D00064008E7F8093640080917A008064809365
:1051E0007A0080917A0086FDFCCF009178001091C2
:1051F00079000E94A419AB01BC01C801B0E0A0E095
:10520000DC01992788278C019D01040F151F261F9B
:10521000371FC901B8012091640021602093640008
:10522000611571058105910511F00E947F340E947E
:1052300083230E94431D0E94811C8FEF9FEF909358
:10524000B4018093B3018CEE96E09093AA02809310
:10525000A9028AE08093AD021092AB021092AC02D8
:1052600087ED96E090939102809390020E94511FE7
:10527000F4E02F2E312CE7E08E2E912C8FB7F8948E
:10528000409191015091920160919301709194012C
:105290008FBF109197011983112309F471C01092E7
:1052A000970180E090E0892B49F30E940000E3CF52
:1052B0000E94811C71CF112331F089819A8104975A
:1052C00011F42E9A2F9881E00E94C21500E128E582
:1052D0004BE35CE069817A8184E190E00E94D11522
:1052E0000E94401D8FE090E00E94741CA981BA8149
:1052F0001196BA83A983599709F05CCF112311F055
:105300002F9A2D9880E991E00E94741C0E94721CD3
:1053100081E090E00E94812380FF54CF8AE090E0FA
:105320000E9481239FEF980F9E3F08F04BCF22E30E
:1053300030E030938D0120938C0128E330E03093EE
:105340008F0120938E010BE010E01A830983682FF0
:105350008CEE96E00E948C1C89819A810E948123A8
:1053600009811A810F5F1F4F1A83098301311105CB
:1053700071F70E94401D88EE93E00E94741C22CFBA
:1053800080919801242F281B822F90910C012917BE
:1053900048F48F5F891708F084CF81E083BF889538
:1053A00013BE7FCF31E030939701409398018091F5
:1053B00095019091960101969093960180939501A5
:1053C00080918B0180938A010E94791C80938B01CC
:1053D000E7EDF2E0498141114FEF00244193419301
:1053E000419341930394D1F710928F0110928E0153
:1053F00010928D0110928C011092AC02809190015C
:10540000823009F4D3C1B8F4882309F446C081304E
:1054100009F442C183E08093AC02609197027091DD
:1054200098026436710510F063E670E0809117020F
:105430000E94C9222FC0833009F4B3C5843051F7CC
:1054400060919702709198026436710510F063E6DE
:1054500070E0809117020E94C9228091140281118C
:1054600019C088E00E94021D81110FC084E00E94D3
:10547000021D81110AC080E20E94021D811105C037
:1054800080E40E94021D882329F082E0809390012D
:105490001092D60269E081E121C782E08093AC02DC
:1054A00000E220E848E25DE070E060E090E080E04B
:1054B0000E94D11528E048E05DE060E270E088E7F6
:1054C00090E00E94D1158091AD0208E028E086307E
:1054D00008F06EC04AEA5AE269E370E086E190E0C3
:1054E0000E94D11528E040E05DE066E170E090E0C8
:1054F00080E00E94D11580910B02882309F464C0DA
:1055000043E26CE38AE30E94782248E16CE380E0A6
:105510000E94B62180910B028111B2C089E092E015
:105520000E945E1D0E94551D882359F000910902BA
:105530000983023009F06FC00E94851D81E08093CD
:105540000B028091AD0281508093AD0281112DC07C
:105550008091D6028F5F8A3011F40C946833809367
:10556000D6028091AC022091D6024AE0489FC00149
:10557000112487559D4F820F911DDC0115968C914A
:10558000882381F069E170E0813011F40C946C3370
:1055900062E370E0823011F00C946C3382E390E0AF
:1055A0000E94561CBAE0B093AD020E94401D79CE15
:1055B00042EA5AE269E370E086E190E00E94D11588
:1055C00028E048EF5CE091CF41E16CE282E60E9486
:1055D000B6214CE064E382E60E94B6218091AB02E2
:1055E0008823A9F042E164E38DE40E94B62147E1FB
:1055F0006CE382E60E94B62160910902660F660F95
:10560000660F645D49E18AE50E94B6217ECF43E1E1
:1056100064E388E4EACF1981113099F48091AB02F8
:10562000882329F00E94811C1092AB028ACF0E942D
:10563000861C0E94851D09810093AB021092D60240
:1056400080CF198111117DCF0E94851D0E94511FAD
:1056500081E080939202809393020E94711F8FE0F9
:10566000809314021092150280910F029091100203
:10567000909312028093110284E080939001DECF18
:105680000E94551D811105C00E944C1D882309F4FC
:1056900058CF10920B0255CF8091AD0200E320E26B
:1056A00044E650E1863010F044EA5FE064E070E0E8
:1056B00084E090E00E94D11524E932E03A83298306
:1056C0007CE9E72E72E0F72EF9018681853011F42E
:1056D0000C9470333296EE16FF06B9F7A981BA81A1
:1056E00016968C911697843011F40C947C33129694
:1056F000BA83A983EA16FB0689F748E068E088E2E6
:105700000E94B6218091AB0244E1811101C045E1C4
:1057100064E180E30E94B62146E16CE180E30E94EF
:10572000B6214FE064E280E30E94B6216091070257
:10573000660F660F660F6C5E49E188E20E94B62133
:1057400087E092E00E945E1D0E94551D8823A9F00B
:1057500080910702823041F1813029F40E94851D39
:10576000109290016BCF811108C08091AB02882309
:1057700089F00E94811C1092AB020E944C1D811185
:1057800013C080910F02909110020E94AE220E94DD
:105790003722A2C50E94861C0E94851D81E080934D
:1057A000AB021092D602E9CF82E067CF88E00E9478
:1057B000021D882341F010920702B1E0B0939001DE
:1057C0001092D602DECF80E40E940D1D882309F4DA
:1057D00043C070E060E081E090E00E945F17898341
:1057E00080E20E940D1D882339F070E060E08FEFA9
:1057F0009FEF0E945F17898380E10E940D1D88231F
:1058000039F061E070E090E080E00E945F178983EA
:1058100080E80E940D1D882339F06FEF7FEF90E044
:1058200080E00E945F1789830981002309F4A7C1E2
:10583000E02FE150EA3008F0A2C1F0E0EE5DF34D58
:105840000C9454362E2C952DE42D2D2E692E702E71
:105850007D2E852E8D2EDD2C1982C2CF3FE0A32E0A
:1058600032E0B32ECC24C394D12C5BE0752E6CE0D7
:10587000662EEC2C8501085F1F4F1C830B831A8753
:10588000098701E010E0552453945C0C9501205FDA
:105890003F4F3A83298344244A944C0CC60123E0A9
:1058A000880F991F2A95E1F7DC01A15FBD4FBE83E8
:1058B000AD83B8E04B9EC0011124FC01E15FFD4FB8
:1058C000F887EF83F02EA985BA8556968C918A3099
:1058D00009F043C080918C028E1570F5BE2DB81B67
:1058E0008B2F843068F580918D028F1538F5EF2D60
:1058F000E81B8E2F843020F50E94D433B1010E9422
:1059000040360397E9F080918C028E1508F478C038
:10591000E81608F097C0E985FA85968D913009F070
:1059200091C0968B581205C080918D028F1509F495
:1059300082C0E981FA8175C08E19D3CF8F19DACF71
:105940000E94D433B1010E9440368130910509F4A0
:10595000C0C0D4F5892B09F4A6C00F5F1F4F29855D
:105960003A852F5F3F4F3A8729870730110509F0A5
:10597000A9CF3FEFC31AD30AAB80BC804CE0C4165A
:10598000D10409F076CF90E080E030E0FC01E35DE7
:10599000FD4F26E041914B3038F04B3009F03AE0B2
:1059A000DF0111970AE00C932150A1F70896883582
:1059B000910561F73A3009F0E2C088E080939202E5
:1059C00081E0809393025CC18230910509F491C01B
:1059D000039719F6E985FA858789813009F0BDCFEB
:1059E000F394868B80918C028E1105C080918D027C
:1059F0008F1509F496C0A985BA8557967C92ADCFCC
:105A0000A985BA851E969C911E97913009F080CF8A
:105A100056969C93481204C080918D028F1529F0F0
:105A2000F501E00FF11F758A98CFEF81F885E00F3F
:105A3000F11F658A92CF28E0529EF0011124E15FA8
:105A4000FD4FF5CFE0918D02EF1588F4A985BA8559
:105A500055969C915597913051F4FA9456969C9393
:105A60008E1102C0EF15C9F0E985FA85DCCFFE166C
:105A700008F073CFA985BA8557969C9157979130B6
:105A800009F06BCFF39456969C938E1102C0EF15DC
:105A900021F0E985FA85778A60CF2D813E812E0F2E
:105AA000311DF901C6CFA985BA851E968C911E9726
:105AB000813009F052CF56968C9380918C02F5017B
:105AC000E00FF11F4812AFCF80918D028F11ABCF45
:105AD000B0CFE985FA85868D813009F03ECF868B7F
