:100000000C9484150C94AC150C94AC150C94AC1594
:100010000C94AC150C94AC150C94AC150C94AC155C
:100020000C94AC150C94AC150C941E240C948D24DB
:100030000C94AC150C94AC150C94AC150C94AC153C
:100040000C94AC150C94AC150C94AC150C94AC152C
:100050000C94AC150C94AC150C94AC150C94BF26F8
:100060000C94AC150C94AC150C94AC150C94AC150C
:100070000C94AC150C94AC150C94AC150C94AC15FC
:100080000C9409270C94AC150C94AC150C94AC157D
:100090000C94AC150C94AC150C94AC150C94AC15DC
:1000A0000C94AC150C94AC150C94AC15594F552010
:1000B000484954205749544820414E47455200482A
:1000C00049545320414E442052554E5300554E44FE
:1000D00045525354414E44004C45415645532049E6
:1000E0004E20414E474552004E4F44532C20474925
:1000F00056455320504F54494F4E004143434550BD
:1001000054532C2052454C494320464F554E4400F1
:1001100041545441434B530041545441434B532C9D
:100120002044454620444F574E0057494C4C204EE2
:100130004F54204C495354454E0048495453204194
:100140004E442045534341504500484954532041B3
:100150004E442052554E53004749564553204120A6
:1001600052454C494300474956455320594F552065
:100170004120504F54494F4E00535445414C532059
:1001800046524F4D20594F55004953204146524148
:1001900049440041545441434B532C205354522062
:1001A000444F574E004E4F54204252415645204531
:1001B0004E4F554748004849545320414E44205221
:1001C000554E530053434152452C2044454620553B
:1001D00050004146524149442C2044454620555048
:1001E000004641494E54530041545441434B532C13
:1001F0002044454620444F574E0041545441434B00
:10020000532C20485020444F574E0059454C4C53D6
:10021000204241434B00594F5520524546555345C6
:100220000043414E27542054414C4B2057495448D9
:1002300020534C494D4553004255542C204E4F57A6
:1002400020574841543F00594F55204D41444520C7
:10025000495421004B455920464F554E44210047F3
:100260004F2046415354004341524546554C0044AB
:1002700041524B204C4F4F4D5300464C4F57455227
:10028000533F004D4554414C20434C414E4B494E49
:100290004700434F4C4400534C494D453F004D41AE
:1002A00058204C4556454C3A00524554524541540D
:1002B00020464F52204E4F57002E2E2E00594F559C
:1002C0002041524520544952454400594F55204140
:1002D000524520484F504546554C00594F552041F6
:1002E0005245205749534500594F5520415245200A
:1002F000534D41525400594F5520415245205354BB
:10030000524F4E4700544F4F205354524F4E472C9C
:100310002043414E275420455343415045004E4F02
:100320005254482056312E312E31004E4F20524526
:100330004C494320415641494C41424C4500544FA1
:100340004F205354524F4E472C2043414E275420A8
:100350005350415245004C45415645532C20504F77
:1003600054494F4E20464F554E4400454E454D5939
:10037000204C454156455300594F55204645454C64
:10038000205041494E00454E454D59205741495452
:100390005300454E454D59205641504F52495A45FC
:1003A0004400594F55204645454C205354524F4E1A
:1003B000474552004D454449554D2044454620553A
:1003C000500044454620555000535452205550008B
:1003D0004D454449554D20485020555000594F55E2
:1003E000204641494C45442E2E2054525920414725
:1003F00041494E3F004B4559204E45454445440038
:10040000594F55204645454C205745414B005041DA
:10041000494E20494E464C494354454400424F54AE
:1004200048204449442E2E205041494E20534841F3
:10043000524544004850205550004E4F20504F54D4
:10044000494F4E20415641494C41424C450045538D
:1004500043415045205355434345535346554C0063
:100460004641494C2C20594F55204645454C20507B
:1004700041494E00504F54494F4E20464F554E442F
:1004800020494E2043484553540052454C4943208F
:10049000464F554E4420494E20434845535400533F
:1004A0004849454C4420464F554E4420494E204330
:1004B000484553540053574F524420464F554E44DD
:1004C00020494E20434845535400454D505459202F
:1004D000434845535420464F554E4400454E454DE4
:1004E0005920454E434F554E54455200504F5449A4
:1004F0004F4E20464F554E440052454C49432046EE
:100500004F554E44004C49464520524553544F5296
:10051000454400534849454C4420464F554E442CD1
:100520002044454620424F4E555300504F434B45C3
:1005300054532046554C4C0053574F524420464F7D
:10054000554E442C2053545220424F4E5553005484
:100550004F57455220454E5452414E434500544F4B
:10056000574552204C4556454C0078004558504C54
:1005700041494E00415050524F4143480054485267
:1005800045415400434F4E54494E554500230041C8
:10059000424F5554004D2E204D454E5500532E20B0
:1005A0004F464600532E204F4E004F4646004F4EBA
:1005B0000053544152540052554E004241434B00A7
:1005C00053504152450052454C494300534F554EFC
:1005D0004400414354494F4E0054414C4B00415458
:1005E0005441434B004F5054494F4E5300504F54C9
:1005F000494F4E0052454C494300534849454C44ED
:100600000053574F5244004445460053545200484B
:1006100050000000000000003E5B4F5B3E3E6B4F11
:100620006B3E1C3E7C3E1C183C7E3C181C577D5784
:100630001C1C5E7F5E1C00183C1800FFE7C3E7FF30
:100640000018241800FFE7DBE7FF30483A060E26C3
:1006500029792926407F050507407F05253F5A3C1B
:10066000E73C5A7F3E1C1C08081C1C3E7F14227F5E
:1006700022145F5F005F5F06097F017F0066899536
:100680006A606060606094A2FFA29408047E04081F
:1006900010207E201008082A1C08081C2A08081EA2
:1006A000101010100C1E0C1E0C30383E3830060E88
:1006B0003E0E06000000000000005F000000070082
:1006C0000700147F147F14242A7F2A12231308643E
:1006D0006236495620500008070300001C224100E2
:1006E0000041221C002A1C7F1C2A08083E08080022
:1006F00080703000080808080800006060002010C2
:100700000804023E5149453E00427F40007249497B
:1007100049462141494D331814127F10274545455C
:10072000393C4A494931412111090736494949367D
:10073000464949291E000014000000403400000012
:100740000814224114141414140041221408020144
:100750005909063E415D594E7C1211127C7F494970
:1007600049363E414141227F4141413E7F4949490D
:10077000417F090909013E414151737F0808087F03
:1007800000417F41002040413F017F081422417F0A
:10079000404040407F021C027F7F0408107F3E41A2
:1007A00041413E7F090909063E4151215E7F0919F9
:1007B0002946264949493203017F01033F40404011
:1007C0003F1F2040201F3F4038403F631408146300
:1007D00003047804036159494D43007F41414102BC
:1007E00004081020004141417F04020102044040FE
:1007F000404040000307080020545478407F2844BC
:1008000044383844444428384444287F38545454A5
:100810001800087E090218A4A49C787F08040478B4
:1008200000447D40002040403D007F1028440000EF
:10083000417F40007C047804787C080404783844C4
:10084000444438FC1824241818242418FC7C080478
:100850000408485454542404043F44243C40402099
:100860007C1C2040201C3C4030403C442810284444
:100870004C9090907C4464544C44000836410000F5
:1008800000770000004136080002010204023C2605
:1008900023263C1EA1A161123A4040207A385454CC
:1008A0005559215555794121545478412155547851
:1008B0004020545579400C1E5272123955555559E5
:1008C000395454545939555454580000457C41000A
:1008D00002457D420001457C40F0292429F0F028A2
:1008E0002528F07C545545002054547C547C0A093A
:1008F0007F4932494949323248484832324A4848A9
:10090000303A4141217A3A42402078009DA0A07DB2
:1009100039444444393D4040403D3C24FF24244870
:100920007E4943662B2FFC2F2BFF0929F620C08818
:100930007E090320545479410000447D41304848E9
:100940004A32384040227A007A0A0A727D0D193103
:100950007D2629292F28262929292630484D40205F
:10096000380808080808080808382F10C8ACBA2F3B
:10097000102834FA00007B000008142A14222214E4
:100980002A14089500220095AA005500AAAA55AA83
:1009900055AA000000FF00101010FF00141414FFEF
:1009A000001010FF00FF1010F010F0141414FC00E1
:1009B0001414F700FF0000FF00FF1414F404FC14EB
:1009C0001417101F10101F101F1414141F001010E4
:1009D00010F0000000001F101010101F1010101059
:1009E000F010000000FF101010101010101010FF79
:1009F00010000000FF140000FF00FF00001F101790
:100A00000000FC04F414141710171414F404F40078
:100A100000FF00F714141414141414F700F714143E
:100A200014171410101F101F141414F4141010F0C5
:100A300010F000001F101F0000001F14000000FC39
:100A4000140000F010F01010FF10FF141414FF1425
:100A50001010101F00000000F010FFFFFFFFFFF05C
:100A6000F0F0F0F0FFFFFF0000000000FFFF0F0FAD
:100A70000F0F0F38444438447C2A2A3E147E020269
:100A80000606027E027E0263554941633844443CB7
:100A900004407E201E2006027E020299A5E7A59949
:100AA0001C2A492A1C4C7201724C304A4D4D303080
:100AB00048784830BC625A463D3E494949007E016B
:100AC00001017E2A2A2A2A2A44445F444440514A8A
:100AD000444040444A51400000FF0103E080FF00D1
:100AE0000008086B6B083612362436060F090F060D
:100AF000000018180000001010003040FF01010035
:100B00001F01011E00191D1712003C3C3C3C000057
:100B100000000000B00000A170E150964F26900F39
:100B20001D070C009669004AE44A004844400080D2
:100B30006810000F99FB8F9DBDBBFB77D4D4DF1FDE
:100B40001A1AFE7F5D5DFF805A0000A0A4AA001063
:100B5000BA3400FF5953F3FF9B9B9EFFB9B996FF30
:100B60009595D19FF4940FFC295F91FF1838F8FFF9
:100B70009294FFFF95D5F7BFB5DDD7F18F81F1F7DF
:100B800088C8F779C6467909FD9B090196F8008265
:100B9000818280507162007756560076763700A2C7
:100BA000B77301077206007827500073347400771A
:100BB0005176007F55F7004771100032477200737D
:100BC00064730015A2750061679400009F6060F473
:100BD000F2F6F2F0F89C8E8783878E9CF8F0000086
:100BE000FEFF0303030303070EFCF80000FEFF03F0
:100BF00003030303070EFCF80000FFFF00000000E2
:100C0000000000FFFF0000FEFF8383838383C7EEA5
:100C10007C380000F8FC0E07030303070EFCF80005
:100C2000003F7FE0C08080C0E07F3FFFFF01010107
:100C300001010101FFFF0000FFFF0C0C0C0C1C3E2A
:100C400077E3C100007FFFC0C0C0C0C0E0703F1F9D
:100C500000001F3F70E0C0C0C0E0703F1F00007F79
:100C6000FFC1C1C1C1C1E3773E1C00001F3F70E05E
:100C7000C0C0C0E0703F1F000000000001FFFF0186
:100C8000000000D5F08D14A1C881CFD9F1AF2000AC
:100C900008244E4E4A4E240808244E4E4E4A24083C
:100CA000B0C8040242C141414141414141C2424CAC
:100CB00030031C2040890608101117109058370087
:100CC0000000003826212020202025232020232456
:100CD00026223E0000000000E0EFEF0000000000D0
:100CE00080F3E700000000000FE7F30000000000C1
:100CF0000079F30C0C0C0C0CFCFC0C0C0C0C0C0C0C
:100D00000000F0F00C0C0C0C0C0CF0F00000FCFCE3
:100D1000000000000000FCFC0000FCFC8C8C8C8CB3
:100D20008C8C0C0C0000FCFC0C0C8C8C8C8C707073
:100D300000000000000000000000000000000000B3
:100D4000000000000080C060202060408080C0E083
:100D5000F0F8F8FCFCFCFCFCFCFCFCF8F8F8F0E01B
:100D6000C080800000008080C0602000E2CBCB9972
:100D7000BD3DFD0000000000FFFF000000808080FE
:100D800080808707181818989898878780809F9F79
:100D900086061F1F06061F1F80809F9F999999999D
:100DA0001919181800009F9F8000010101819E1EE3
:100DB0000080800000000080800000000000000033
:100DC0000010180C060100000000000000010307DD
:100DD000070F0F8FDF7F3F1F07070303070F1F3F1B
:100DE0003F4F478783810100000000009FC7D3D990
:100DF0009CBCBD00000000001F1F00FEFE010101A1
:100E0000010101FEFE0000FFFF31313131313101BE
:100E10000100000000000000FFFF0101313131310D
:100E20000E0E0000FEFE313131FEFE0000FFFF001D
:100E300000FFFF03060C18FFFF0000000000000089
:100E40000000000800001000000008000040000042
:100E5000000242010000000040000000000000000D
:100E60000010800000010100400000009ECEE4F16F
:100E7000F7F7F70000000000000000000003030384
:100E80000303030000000003030000000000000053
:100E9000000000000000000003030000000000004C
:100EA0000000000003030000000303000003030030
:100EB0000003030000000003030000000000000026
:100EC0000000000000000000000000000000000022
:100ED000000000000100000000000001000002000E
:100EE000000000000004000000022000068E0E1E1C
:100EF0005EDEDE070605040100080A0B0C0D091072
:100F00001FFF3000F8FF00002F771C3F7DFDED9F95
:100F1000F37D3F0000000101000000FF0000000021
:100F20000000FF8181818181818181FF01010101B7
:100F30000101FFFF808080808080FF81818181812D
:100F40008181FFFF81818181818181007050781CC6
:100F5000061208000C1E3C3C1E0C00007C464A4A4F
:100F6000467C00E0B8A8A8A8A8B8E000103C3E76EF
:100F70003C100000103C7E363C1000080B000202C2
:100F80000200000904000001020200000524001014
:100F900001052401010104240206052406000107BD
:100FA00005810310004009040100020A0000000747
:100FB0000502024000000705830240000004030907
:100FC0000412010002EF02014041233680000101BA
:100FD00002030141726475696E6F204C4C430041FD
:100FE000726475696E6F204C656F6E6172646F001C
:100FF00003FF0202020202020202020202020202D3
:101000000202020202020202020202020202FF03C2
:1010100000FF000000000000804020201010101091
:10102000101010102020C000000000000000FF0081
:1010300000FF00000000003BCC00009669418109E0
:10104000390101827C840403000000000000FF00DD
:1010500000FF0000000000000102E418080000A1E9
:1010600061010934C2010000000000000000FF001F
:1010700000FF0000000000001C3360E0C0202020C2
:10108000202040C0C0271800000000000000FF0022
:10109000C0FF404040404040404040404040404011
:1010A0004040404040404040404040404040FFC001
:1010B00003FF020202020202020202020202020212
:1010C0000202020202020202020202020202FF0302
:1010D00000FF000000000000008040402020202091
:1010E0002020202040408000000000000000FF0081
:1010F00000FF0000000000769900002CD28202124E
:1011000072020204F8080906000000000000FF0057
:1011100000FF0000000000000304C831100001427D
:10112000C202126984030000000000000000FF00FA
:1011300000FF0000000000001C3360E0C020202100
:10114000202040C0C1261800000000000000FF0061
:10115000C0FF404040404040404040404040404050
:101160004040404040404040404040404040FFC040
:1011700003FF020202020202020202020202020251
:101180000202020202020202020202020202FF0341
:1011900000FF0000000000000080404020202020D0
:1011A0002020202040408000000000000000FF00C0
:1011B00000FF00000000007699000028D888084849
:1011C00048080850F010130C000000000000FF0059
:1011D00000FF0000000000000304C83110000142BD
:1011E000C202126984030000000000000000FF003A
:1011F00000FF0000000000001C3360E0C020202140
:10120000202040C0C1261800000000000000FF00A0
:10121000C0FF40404040404040404040404040408F
:101220004040404040404040404040404040FFC07F
:1012300000000000000000FFFF00000000000000B0
:101240008080808080808080010101010101010196
:1012500080808080808080FFFF8080808080808090
:1012600001010101010101FFFF0101010101010172
:10127000002C3038001C0C340020546E6E542000BA
:10128000003C4E5E4A623C00001E224242261E0086
:1012900000060E1C182040005E054F0538052B0582
:1012A00013050505F904EC04DC04CA04B5049F0425
:1012B0008A04740460044E043A0434041D040E04C9
:1012C0000004F503DD03D003C903C203B403A20382
:1012D0009203860378036B0356033E032B031E031E
:1012E0000503F602E802DB02CB02BD02B902A90245
:1012F0009E029702920283027A026F0267025F02E5
:10130000540247023802210216020B02FA01E801D8
:10131000E101D201C401B601A5019301890179015E
:10132000660158014A013A012A0118011001FB0027
:10133000E800D800CD00BF00AC0012060F060B0677
:1013400007060106FA05F405ED05E505DE05D905F4
:10135000D205CC05C605C005BB05B705B105AE0570
:10136000AA05A4059D0595058F058D0584057D05B8
:1013700074056C056A0503FF020202020202020202
:1013800002020202020282428242020202020202BD
:1013900002020202FF0300FF0000000004CC380438
:1013A00008046424246447C0030E38C00000800091
:1013B000F7000000FF0000FF00E010C86825A2B998
:1013C000AD850585ADB9A22469CA14EF0000F70008
:1013D000FB000000FF0000FF00073803A62646942C
:1013E0006800C00068944426A603B807000007BD43
:1013F00000000000FF0000FF0000000000030401E7
:101400002AEAE92A0A01041318FEFB1C0000007FE7
:1014100000000000FF00C0FF40404040404040400E
:1014200040404040404040404040404040404040BC
:1014300040404040FFC003FF0202020202020202DB
:1014400002020202020282428242020202020202FC
:1014500002020202FF0300FF0000000004CC380477
:101460000804A424246447C0030E38C00000800090
:10147000EF000000FF0000FF00C02090D04B44723E
:101480005A0A0A0A5A724449D3962CCF0000EF0038
:10149000F7000000FF0000FF000F70074C4C8D2983
:1014A000D1018001D129894C4C07700F0000077BC6
:1014B00000000000FF0000FF00000000010608031C
:1014C00054D4D3541403081619FCFB1C0000007FED
:1014D00000000000FF00C0FF40404040404040404E
:1014E00040404040404040404040404040404040FC
:1014F00040404040FFC000104C3B2E741C00001CBC
:10150000742E3B4C100003FF020202020202020290
:1015100002020202020202020202020202020202AB
:1015200002020202FF0300FF000000000000C020D2
:1015300010088810488408041820C000000000002B
:1015400000000000FF0000FF00000000000304187E
:10155000C497810001859D8181463A010000000009
:1015600000000000FF0000FF000000000080000FEE
:10157000986E03328C5030518E2867408080C000B6
:1015800000000000FF0000FF00001008160907031C
:1015900000B4FE110804040408B3FC000103040BAA
:1015A00004080000FF00C0FF404040404040404071
:1015B000404040404040404040404040404040402B
:1015C00040404040FFC003FF02020202020202024A
:1015D00002020202020202020202020202020202EB
:1015E00002020202FF0300FF000000000000C02012
:1015F00010088810488408041820C000000000006B
:1016000000000000FF0000FF00000000000304983D
:101610004457C10001859D818146BA010000000048
:1016200000000000FF0000FF0000000000000007B5
:101630000CF701328C5030518E34C3800000800092
:1016400000000000FF0000FF000020102C130E0619
:1016500001B4FE110804040408B3FC0003070916D2
:1016600008100000FF00C0FF4040404040404040A4
:10167000404040404040404040404040404040406A
:1016800040404040FFC00000603A2E500000000083
:10169000502E3A600000890440800102209103FF2F
:1016A000020202020202020202020202020282425A
:1016B000824222224282020202020202FF0300FF51
:1016C0000000000004CC38040804A424246447C0AB
:1016D000030E38C0040B040000000000FF0000FFF0
:1016E00000000000008366984457E9E040829E8134
:1016F00083463C0F00808A540850A040FF0000FF42
:10170000000000008245A8D7AC54A485C4632030F3
:101710009BEC0C060552291709050201FF0000FF8A
:10172000000000010109051422E1E934180A151A24
:1017300014FCFB1C0000000000000000FF00C0FFC4
:101740004040404040404040404040404040404099
:10175000404040404040404040404040FFC003FFC8
:101760000202020202020202020202020202020259
:10177000020282820202020202020202FF0300FF50
:10178000000000001030E0102010909090901E019A
:101790000E39E000112E100000000000FF0000FFD5
:1017A00000000000000F9860105CA6800009790717
:1017B0000C18F03F8040C5AA84A850A0FF0000FF8D
:1017C000000000000816A15EB1519397D16E22323D
:1017D0009AED06030229140B04020100FF0000FF2A
:1017E00000000004060B051522E1E93418142A3420
:1017F00028F8F7380000000000000000FF00C0FFDC
:1018000040404040404040404040404040404040D8
:10181000404040404040404040404040FFC00C14E9
:10182000483B2E4C100000104C2E3B48140C080472
:1018300040800102201003FF0202020202020202A3
:1018400002020202020282428242020202020202F8
:1018500002020202FF0300FF0000000004CC380473
:101860000804A424246447C0030E38C0000000000C
:1018700000000000FF0000FF0000000000836698E9
:101880004457E9E040829E8183463C0F00808040BF
:1018900080000000FF0000FF000000008245A8D784
:1018A000AC54A485C46320309BEC0C06057E81F902
:1018B00007000000FF0000FF0000000101090514FF
:1018C00022E1E934180A151A14FCFB1C00000F0170
:1018D00000000000FF00C0FF40404040404040404A
:1018E00040404040404040404040404040404040F8
:1018F00040404040FFC003FF020202020202020217
:1019000002020202020202020202020202020202B7
:1019100002020202FF0300FF000000001030E0108E
:101920002010909090901E010E39E0000000000001
:1019300000000000FF0000FF00000000000F9860A2
:10194000105CA680000979070C18F03F8040C0A009
:10195000C0000000FF0000FF000000000816A15EAC
:10196000B1519397D16E22329AED0603023FC0FC2B
:1019700003000000FF0000FF00000004060B051537
:1019800022E1E93418142A3428F8F7380000070057
:1019900000000000FF00C0FF404040404040404089
:1019A0004040404040404040404040404040404037
:1019B00040404040FFC000104C3B2E4C1000001037
:1019C0004C2E3B4C100000244A200452240003FFFC
:1019D0000202020202020202020202020282828267
:1019E000020202020202020202020202FF0300FFDE
:1019F000000000007088060104F8003E410001C2AA
:101A00003C0000000000000000000000FF0000FF9C
:101A1000000000000001364880203101012121E151
:101A2000020408F00000000000000000FF0000FFBA
:101A30000000000000804030060D080814C4121297
:101A4000D2124D800000000000000000FF0000FFE7
:101A5000000000000B34102010E0E030103B0018B4
:101A60003FF0E81F0000000000000000FF00C0FF82
:101A70004040404040404040404040404040404066
:101A8000404040404040404040404040FFC003FF95
:101A90000202020202020282420202028242226226
:101AA000A20202020202020202020202FF0300FF7D
:101AB00000000000007C820100215E808FB080C0A9
:101AC000300F00000000000000000000FF0000FFD9
:101AD0000000000000001D2240901C00001010704B
:101AE000010284780000000000000000FF0000FFF9
:101AF0000000000000804030030604040AE20909E7
:101B0000E90966800000000000000000FF0000FFFF
:101B100000000000153A102010E0E030103B000CEF
:101B20001FF8F40F0000000000000000FF00C0FFDD
:101B300040404040404040404040404040404040A5
:101B4000404040404040404040404040FFC00000D6
:101B5000543937480000000048363954000003FF6C
:101B60000202020282028282820202020202020255
:101B7000020202020202020202020202FF0300FF4C
:101B8000000000804021320E010181828284060221
:101B90000202C44C4890400000000000FF0000FF1B
:101BA00000001E09040C9261105CA6000009790770
:101BB0000C18F03F8070A900B890A000FF0000FF53
:101BC000000000000016A940B6498191CD6A2A3272
:101BD0009AE90C060300030002010000FF0000FF69
:101BE00000000004060B051522E1E934180A151A55
:101BF00014FCFB1C0000000000000000FF00C0FF00
:101C000040404040404040404040404040404040D4
:101C1000404040404040404040404040FFC003FF03
:101C20000202020242824242C28282020202020294
:101C3000020202020202020202020202FF0300FF8B
:101C4000000000C0201019870000404141C283817C
:101C5000010162A62448A00000000000FF0000FF70
:101C600000000F040206C93008AED38080043C0394
:101C7000068C781F80701840A830A000FF0000FF7D
:101C800000000000008B74009B448080D6692535DD
:101C900099EC06030201030003010000FF0000FFAE
:101CA00000000004060B051522E1E93418142A345B
:101CB00028F8F7380000000000000000FF00C0FF17
:101CC0004040404040404040404040404040404014
:101CD000404040404040404040404040FFC000083D
:101CE000503A2E5000000000502E3A5008000020BC
:101CF0001A242458040003FF020202020202020214
:101D000002020202020202020202020202020202B3
:101D100002020202FF0300FF0000000000008060DA
:101D200018102040A01E040808D0E0C000000000E9
:101D300000000000FF0000FF000000000002058816
:101D4000708C020012127202040BF68F0000000069
:101D500000000000FF0000FF00000000207E972E22
:101D60004021DF0098C20A1A029D60B091FE000077
:101D700000000000FF0000FF000000007C7310095D
:101D80000BFBFD1C77711818FCFF01000000000020
:101D900000000000FF00C0FF404040404040404085
:101DA0004040404040404040404040404040404033
:101DB00040404040FFC003FF020202020202020252
:101DC00002020202020202020202020202020202F3
:101DD00002020202FF0300FF00000000000080601A
:101DE00018102040A01E040808D0E0C00000000029
:101DF00000000000FF0000FF0000000000020508D6
:101E0000708C020012127202040BF50F0000000029
:101E100000000000FF0000FF000000000078ECBEA2
:101E20004121DF0098C20A1A029D6022FC000000D6
:101E300000000000FF0000FF000000007C7310099C
:101E40000AFBFD1C777108081CFFF203010000006B
:101E500000000000FF00C0FF4040404040404040C4
:101E60004040404040404040404040404040404072
:101E700040404040FFC00000547B2E58600000608E
:101E8000582E7B54000003FF0202020202820282EB
:101E90000202020202020202020202020202020222
:101EA00002020202FF0300FF00007886E1100DC06D
:101EB0006A349810509010101020C00000000000EC
:101EC00000000000FF0000FF00000007010006996D
:101ED0004447C10001859D8181423A010000000014
:101EE00000808000FF0000FF0000000000000007ED
:101EF0000CF7414B388CC65CA93618080D32080522
:101F000004020100FF0000FF00000020101008087C
:101F100004B5FA130904040408B3FC00000000002F
:101F200000000000FF00C0FF4040404040404040F3
:101F300040404040404040404040404040404040A1
:101F400040404040FFC003FF0202020202020202C0
:101F50000202020202020202020202020202020261
:101F600002020202FF0300FF0000C0300884680480
:101F7000A8D0604040404040408000000000000089
:101F800000000000FF0000FF0000033C0F00186786
:101F9000111C0600051674040408EB040000000080
:101FA00000000000FF0000FF000000000000001E15
:101FB00031DD072C60B29A526629B0101A64100AFB
:101FC00008050300FF0000FF0000002010100808B3
:101FD00004F5FA130905040811E6F80000000000F2
:101FE00000000000FF00C0FF404040404040404033
:101FF00040404040404040404040404040404040E1
:1020000040404040FFC000104C3B2E483F00003F86
:10201000482E3B4C10000804508C310A201003FF5E
:102020000202020202020202020282028282020210
:10203000020202020202020202020202FF0300FF87
:102040000000000000C060F008E81401020409323A
:10205000C2040810E000000000000000FF0000FFC4
:10206000000000000007091020438418E000F04F32
:10207000201E0B070300000000000000FF0000FF0F
:10208000000000000000000000000001030006083E
:10209000E00000000000000000000000FF0000FF62
:1020A00000000000000000000000000038C0020135
:1020B000000000000000000000000000FF00C0FF62
:1020C0004040404040404040404040404040404010
:1020D000404040404040404040404040FFC003FF3F
:1020E0000202020202020202020202820282820250
:1020F000020202020202020202020202FF0300FFC7
:102100000000000000C0E0D008E814000102043123
:10211000C2048850E000000000000000FF0000FF43
:102120000000000000070D1320438418E000F04F6A
:1021300020100F070300000000000000FF0000FF58
:102140000000000000000000000000010300060481
:1021500008F000000000000000000000FF0000FF89
:102160000000000000000000000000384084020071
:10217000010000000000000000000000FF00C0FFA0
:10218000404040404040404040404040404040404F
:10219000404040404040404040404040FFC0000E72
:1021A0001428540A0A04040A0A5428140E0003FFCF
:1021B00002020202020202020202020202020202FF
:1021C000020202020202020202020202FF0300FFF6
:1021D000000000808040402020101070F0F0F0D00F
:1021E000F07010102020404080800000FF0000FFB1
:1021F00000000000010102020404080808080808A1
:10220000080808040402020101000000FF0000FFAA
:10221000000000000000000000B4000000006700A3
:10222000000000D80000000000000000FF0000FFD8
:102230000000000000000000001B00000000120071
:10224000000000DB0000000000000000FF00C0FFF5
:10225000404040404040404040404040404040407E
:10226000404040404040404040404040FFC003FFAD
:10227000020202020202020202020202020202023E
:10228000020202020202020202020202FF0300FF35
:10229000000000808040402020101070F0F0F0F02E
:1022A000D07010102020404080800000FF0000FF10
:1022B00000000000010102020404080808080808E0
:1022C000080808040402020101000000FF0000FFEA
:1022D000000000000000000000DC000000003300EF
:1022E000000000A80000000000000000FF0000FF48
:1022F00000000000000000000015000000001300B6
:10230000000000BF0000000000000000FF00C0FF50
:1023100040404040404040404040404040404040BD
:10232000404040404040404040404040FFC00008E6
:102330001C54140800000008145C14080000081461
:1023400040824102281003FF02020202020202023E
:1023500002020202C232C2020202020202020202AD
:1023600002020202FF0300FF0000008080404020C4
:1023700020101076F1F0F0D3D470101020204040DF
:1023800080800000FF0000FF000000000101020249
:10239000C42410888884844444C444C4C4C8D2611A
:1023A000C1000000FF0000FF000000406050584ED8
:1023B0004120201090102222A424252525150C064A
:1023C00001000000FF0000FF00000000000000000E
:1023D00000000000031C700F00000000000000005F
:1023E00000000000FF00C0FF40404040404040402F
:1023F00040404040404040404040404040404040DD
:1024000040404040FFC003FF0202020202020202FB
:1024100002020202C232C2020202020202020202EC
:1024200002020202FF0300FF000000808040402003
:1024300020101076F1F0F0F3D470101020204040FE
:1024400080800000FF0000FF00000000010102E2A8
:10245000100848442222121272D2F2F2F47812E1E9
:1024600001000000FF0000FF0000000000F847200E
:102470001010086888111112D21212120A060300F5
:1024800000000000FF0000FF00000000000000004E
:1024900000000000031C700F00000000000000009E
:1024A00000000000FF00C0FF40404040404040406E
:1024B000404040404040404040404040404040401C
:1024C00040404040FFC000083C561408000000088F
:1024D00014563C08000003FF02020202020202023C
:1024E00002020202FA02020202FA020202020202DC
:1024F00002020202FF0300FF000000008080C040D3
:1025000040C0C0F00F000000000FF000000000000D
:1025100000000000FF0000FF000000010204048929
:102520008B4B3F03000000000000033C4080800014
:1025300000000000FF0000FF00000000000001029A
:102540008244242404ACAC54540464C484020201C4
:1025500000000000FF0000FF00000000000000007D
:1025600003444C58808A2A5505C060201F00000093
:1025700000000000FF00C0FF40404040404040409D
:102580004040404040404141414040404040404048
:1025900040404040FFC003FF02020202020202026A
:1025A00002020202FA02020202FA0202020202021B
:1025B00002020202FF0300FF000000008040C06032
:1025C00020E0E0F8070000000007F800000000002D
:1025D00000000000FF0000FF000000010204844929
:1025E0004B2B1F01000000000000011E2040408016
:1025F00000000000FF0000FF0000000000000001DC
:10260000E1120A0A025656AAAA0262C28201010017
:1026100000000000FF0000FF0000000000000000BC
:1026200000414346808595AA82C060201F000000BB
:1026300000000000FF00C0FF4040404040404040DC
:10264000404040404040404040404040404040408A
:1026500040404040FFC000081C54360900000008FC
:10266000145C3609000003FF0202020202020202A9
:1026700002020202028282828282828202020202BA
:1026800002020202FF0300FF000000000000000041
:10269000F80C261309000000003038000123320432
:1026A00008F00000FF0000FF000000000000000034
:1026B000030C121614141414101410101010100817
:1026C00006030000FF0000FF000000C060309848D3
:1026D000280404040484C4040408189020408000E2
:1026E00000000000FF0000FF0000003F409BB8B06A
:1026F000A0A0A080A083838080808383A080613E8F
:1027000000000000FF00C0FF40404040404040400B
:1027100040404040404040404040404040404040B9
:1027200040404040FFC003FF0202020202020202D8
:102730000202020202020202020202020202020279
:1027400002020202FF0300FF000000000000000080
:10275000F0184C2612010101016171010246640862
:1027600010E00000FF0000FF00000000000000007B
:10277000030C121614141414101410101010100856
:1027800006030000FF0000FF000000E030984C242A
:102790001402020202C2E20202048CC81020C0002D
:1027A00000000000FF0000FF0000003F4099B8B8A3
:1027B000B0A0A080A081818080808181A080603FC6
:1027C00000000000FF00C0FF40404040404040404B
:1027D00040404040404040404040404040404040F9
:1027E00040404040FFC02424CB300CD3242403FFBE
:1027F0000202020202020202020202828282828239
:10280000828282020202020202020202FF0300FF2F
:102810000000000000C038040211111050488898D0
:10282000A8B8B8B99ACC380000000000FF0000FF3B
:1028300000080C0A0B090804040202020404040440
:10284000040404020100000000000000FF0000FF7B
:10285000000000E030984C24140202020282C202FE
:102860000202040C881020C000000000FF0000FFDE
:102870000000003F6099B8B8B0A0A0A080A38380FA
:102880008080808383A080603F000000FF00C0FF45
:102890004040404040404040404040404040404038
:1028A000404040404040404040404040FFC003FF67
:1028B0000202020202020202020202828282828278
:1028C000828282020202020202020202FF0300FF6F
:1028D0000000000000C03804021111084844849C24
:1028E000B4BCBCBD9EC4380000000000FF0000FF67
:1028F000000000003E110804040202020404040463
:10290000040404020100000000000000FF0000FFBA
:10291000000000F018CC26120A01010101C1E101FA
:1029200001010286C408106080000000FF0000FF63
:102930000000003F609CBCBCB8B0A0A080A3818018
:102940008080808381A080603F000000FF00C0FF86
:102950004040404040404040404040404040404077
:10296000404040404040404040404040FFC042A9BD
:1029700002481240954203FF0202020202020202D2
:102980000202020202020202020202020202020227
:1029900002020202FF0300FF00000000000000002E
:1029A0000000000000000000000000000000000027
:1029B00000000000FF0000FF000000000000000019
:1029C0000000000000000000000000000000000007
:1029D00000000000FF0000FF000000F018CC2612ED
:1029E0000A01010101C1E10101010286C408106070
:1029F00080000000FF0000FF0000003F609CBCBCA6
:102A0000B8B0A0A080A381808080808381A08060F6
:102A10003F000000FF00C0FF4040404040404040B9
:102A200040404040404040404040404040404040A6
:102A300040404040FFC003FF0202020202020202C5
:102A40000202020202020202020202020202020266
:102A500002020202FF0300FF00000000000000006D
:102A60000000000000000000000000000000000066
:102A700000000000FF0000FF000000000000000058
:102A80000000000000000000000000000000000046
:102A900000000000FF0000FF000000E030984C2420
:102AA0001402020202C2E2020202048CC81020C018
:102AB00000000000FF0000FF0000003F6099B8B870
:102AC000B0A0A0A080A181808080808181A0806052
:102AD0003F000000FF00C0FF4040404040404040F9
:102AE00040404040404040404040404040404040E6
:102AF00040404040FFC00070686878787000006017
:102B00005050707060009D2711241FBECFEFDAE097
:102B1000DEBFCDBF11E0A0E0B1E0E0E1FEE602C023
:102B200005900D92AE36B107D9F726E0AEE6B1E0DA
:102B300001C01D92A23FB207E1F715E1C4E8D5E15B
:102B400004C02197FE010E940037C338D107C9F79E
:102B50000E9413280C9406370C94000080916E019B
:102B60000895CF93DF93E82FF0E070E0DF0123E0DA
:102B7000AA0FBB1F2A95E1F7A05FBD4FA60FB71F95
:102B800055962C915597213019F5EF0193E0CC0F14
:102B9000DD1F9A95E1F7C85FDD4FC60FD71F2D895E
:102BA0002230B0F454962C915497223088F483E06C
:102BB000EE0FFF1F8A95E1F7E85EFD4FE60FF71F66
:102BC0008589823028F481E056969C91923008F0F5
:102BD00080E0DF91CF910895E9EDF2E0A0E0B8E068
:102BE00000800EBC8111012C1197A0FDFDCF019238
:102BF000B9F70DB408954F925F926F927F928F92C2
:102C00009F92AF92BF92CF92DF92EF92FF920F937B
:102C10001F93CF93DF9330E0F901E80FF91F1E16E1
:102C20001F060CF09BC0803891050CF097C0FB018B
:102C3000E00FF11D1E161F060CF090C060347105E8
:102C40000CF08CC0DB0177FF04C0AA27BB27A61BB2
:102C5000B70BA770BB27FB0177FD3796C3E0F5954F
:102C6000E795CA95E1F777FF07C0319768E070E014
:102C7000EB01CA1BDB0BDE01802E869486948694C2
:102C8000912C077019F0DFEF8D1A9D0ABF018A01A0
:102C9000AF015695542F442757954795480F591F14
:102CA00047525D4F860E971EE8E0F0E03F016A1A3A
:102CB0007B0A6F3FEFEF7E070CF443C07C01D0E04E
:102CC000C0E05A01E0E8AE0EB11CF7FC2EC06F3F29
:102CD000760709F454C0F801EC0FFD1FE4916A0176
:102CE000CC0EDD1EF0E02F010A2E01C0440C0A9428
:102CF000EAF7F6015080452840821097B1F067301E
:102D0000710599F0F801EC0FFD1FE4916501CC0EFF
:102D1000DD1EF0E02F01062C02C0559447940A9462
:102D2000E2F7F6015080452840822196FFEFEF1A26
:102D3000FF0AC217D3072CF4F0E8EF16F10409F0EC
:102D4000C4CF6F5F7F4F020F131F40585F4F86162F
:102D5000970621F06830710509F0ABCFDF91CF9174
:102D60001F910F91FF90EF90DF90CF90BF90AF90A9
:102D70009F908F907F906F905F904F9008951097E5
:102D800009F0C0CFD2CF8F929F92AF92BF92CF92D5
:102D9000DF92EF92FF920F931F93CF93DF93D82F81
:102DA000C62F08E028E048E652E170E060E090E0DD
:102DB00080E00E94FB158D2F8250990B5C016C0105
:102DC00023E0CC0CDD1C2A95E1F728E040E652E137
:102DD00070E060E0C6010E94FB158C2F8250990BB9
:102DE0007C014C0133E0880C991C3A95E1F728E00E
:102DF00048E552E1B40190E080E00E94FB1528E034
:102E000040E552E1B401C6010E94FB1511E0C12F5B
:102E1000D0E0CA15DB05BCF493E0CC0FDD1F9A951A
:102E2000E1F708E028E048E452E170E060E0CE011C
:102E30000E94FB1528E040E452E1B401CE010E945B
:102E4000FB151F5FE4CF11E0C12FD0E0CE15DF05E9
:102E5000BCF483E0CC0FDD1F8A95E1F708E028E0A1
:102E600048E352E1BE0190E080E00E94FB1528E0BB
:102E700040E352E1BE01C6010E94FB151F5FE4CF93
:102E8000DF91CF911F910F91FF90EF90DF90CF9046
:102E9000BF90AF909F908F900895482FA5E9B2E022
:102EA0002DE932E0FD0180E09781941308C09681FE
:102EB000993028F4811103C09F5F968381E0329698
:102EC0002E173F0789F7811123C030E020E01796C5
:102ED0009C911797992311F0491314C016969C9151
:102EE0001697993078F4F901EE0FFF1FE556FD4F64
:102EF0009F5F9083220F331FF901EB56FD4F4783ED
:102F000081E008952F5F3F4F129624303105F9F686
:102F10000895DF92EF92FF920F931F93CF93DF9369
:102F20008C01D0908D02ED2DF0E0AF01480F591FBC
:102F300090918E02E92EF12CE701C60FD71FDA011E
:102F400033E0AA0FBB1F3A95E1F7A05FBD4FAC0F6E
:102F5000BD1F55968C91882319F123E0EE0FFF1FBA
:102F60002A95E1F7E05FFD4FEE0DFF1D2589233027
:102F700010F021E0258B0D0D00938D02690F6093F9
:102F80008E02833068F0552793E0440F551F9A95C1
:102F9000E1F7405F5D4FC40FD52FD11D91E09D8BB0
:102FA000DF91CF911F910F91FF90EF90DF900895E7
:102FB000E5E9F2E030E020E09781891741F02F5FEA
:102FC0003F4F329624303105B9F780E00895A901CA
:102FD0004D5F5F4FFA01EE0FFF1FEB56FD4F8081F3
:102FE000811101C081E08150440F551FFA01EB5659
:102FF000FD4F8083811106C0220F331FF901EB566C
:10300000FD4F178281E0089585E00E94D817811155
:1030100018C090919702992339F02AE020939802E2
:1030200091509093970208958AE08093980220919E
:1030300095022150330B37FD20E02093950281E06B
:10304000211180E008958091A3029091A402209123
:10305000A9023091AA024091A5025091A602B9019D
:10306000640F751F6817790770F0E091A702F0915F
:10307000A8026E177F0748F0840F951F82179307E9
:1030800030F083E0089580E0089581E0089582E0C3
:103090000895FC018091A601882311F13FB7F894AF
:1030A00082E08093E9002091F200822F90E01816D0
:1030B000190614F481E090E0882339F0289844E65A
:1030C0004093A5014091F1004083222339F02091E3
:1030D000F200211103C02BE62093E8003FBF0895C2
:1030E0008FEF9FEF08952FB7F89483E08093E90066
:1030F0009091E800892F807295FF04C09091F200B2
:1031000080E4891B2FBF089580919D0181110DC01E
:1031100082E08093990184E080939A0110929C014F
:1031200010929B0181E080939D0189E991E00895CF
:10313000CF93DF931F92CDB7DEB76983DC01ED91AA
:10314000FC910280F381E02D41E050E0BE016F5F11
:103150007F4F09950F90DF91CF91089583E0809381
:10316000E9008091F200882319F08AE38093E80057
:1031700008950E94731890E00895CF93DF931F92F3
:10318000CDB7DEB7FC018485958597FD08C02FEF8C
:103190003FEF358724870F90DF91CF910895CE01BF
:1031A00001960E944918019719F4898190E0F3CFA4
:1031B0008FEF9FEFF0CF0F931F93CF93DF931F926B
:1031C000CDB7DEB78C01FC018485958597FF0BC0D8
:1031D000CE0101960E944918019771F4898190E00F
:1031E000F80195878487F801848595850F90DF9194
:1031F000CF911F910F9108958FEF9FEFF1CFFC01B9
:103200008485958597FD0BC09FB7F89482E08093E5
:10321000E9008091F2009FBF90E0019608959FB76A
:10322000F89482E08093E9008091F2009FBF90E0E3
:103230000895409193015091940120919101309112
:10324000920142175307B4F49091E8009570E1F3AE
:103250009091E80092FD19C08093F1008091930154
:103260009091940101968F739927892B19F48EEF11
:103270008093E8008091930190919401019690933E
:1032800094018093930181E0089580E00895DF9296
:10329000EF92FF920F931F93CF93DF93D82E8A0163
:1032A000EB017B01E40EF51ECE15DF0559F0D7FECC
:1032B00012C0FE0184910E94191921968111F4CF48
:1032C0000FEF1FEFC801DF91CF911F910F91FF907A
:1032D000EF90DF9008958881EECF0F931F93CF93E7
:1032E000DF931F92CDB7DEB782E0898342E450E0DE
:1032F0006BE77FE080E80E9447190E948418DC0198
:1033000012960D911C910115110589F0D801ED91CE
:10331000FC910280F381E02DBE016F5F7F4FC801F9
:10332000099597FD04C0F80100851185ECCF8981CE
:103330000F90DF91CF911F910F910895615030F060
:103340002091F100FC0120830196F8CF289884E6B3
:103350008093A5010895AF92BF92CF92DF92EF9232
:10336000FF920F931F93CF93DF936C017B018B012F
:10337000040F151FEB015E01AE18BF08C017D1077F
:1033800059F06991D601ED91FC910190F081E02D09
:10339000C6010995892B79F7C501DF91CF911F915E
:1033A0000F91FF90EF90DF90CF90BF90AF90089576
:1033B0003FB7F89480917E0190917F01A0918001A8
:1033C000B091810126B5A89B05C02F3F19F0019649
:1033D000A11DB11D3FBFBA2FA92F982F8827BC016F
:1033E000CD01620F711D811D911D42E0660F771F97
:1033F000881F991F4A95D1F708958F929F92AF9297
:10340000BF92CF92DF92EF92FF926B017C010E94FC
:10341000D8194B015C01C114D104E104F104B9F0E5
:103420000E94D819681979098A099B09683E734076
:103430008105910580F321E0C21AD108E108F10865
:1034400088EE880E83E0981EA11CB11CE4CFFF908B
:10345000EF90DF90CF90BF90AF909F908F900895A6
:103460008F929F92AF92BF92CF92DF92EF92FF9294
:103470000F931F93CF93DF936C017B018A0180919F
:103480000C01882309F45CC08091A601882309F40B
:1034900057C08091980180FF05C08091E000826054
:1034A0008093E000E801B12C8AEFA82E93E0892EEA
:1034B0002AE3922E209711F4BB20D9F10E947318B1
:1034C00081110AC0AA94AA20D9F161E070E080E0DD
:1034D00090E00E94FD19EECF8C171D0611F00CF044
:1034E0008C2F9FB7F8948092E9002091E80025FD89
:1034F00002C09FBFDFCF282F30E0C21BD30BF701E4
:10350000815020F041914093F100FACFE20EF31E7A
:10351000BB2021F09092E800B12CEBCF8091E80025
:1035200085FDE7CF9092E800BB24B394209709F380
:10353000F3CF5D9884E680939701101611063CF056
:1035400081E090E0F6019383828310E000E0C801FF
:10355000DF91CF911F910F91FF90EF90DF90CF906F
:10356000BF90AF909F908F9008956F927F928F92AF
:103570009F92AF92BF92CF92DF92EF92FF920F9302
:103580001F93CF93DF934C017B01C22F102F98E044
:10359000A92EB12C642E669466946694712CCA018F
:1035A00087709927892B79F5D40117962D913C9135
:1035B000C7019927B9010E94EC36269DF001279D8D
:1035C000F00D369DF00D11248E0F9F1FD40115961E
:1035D000ED91FC91E80FF91F2081111112C0C095E7
:1035E000C223C083DF91CF911F910F91FF90EF9085
:1035F000DF90CF90BF90AF909F908F907F906F9013
:103600000895C22BEECFD0E04770C42ED12C83E0BA
:10361000660C771C8A95E1F79E0101C0220F4A953E
:10362000EAF7012FA301B701C4010E94B51AA30153
:10363000485F5F4FC5018C199D0902C0D595C7959C
:103640008A95E2F7A7CF5F926F927F928F929F92B7
:10365000AF92BF92CF92DF92EF92FF920F931F93A0
:10366000CF93DF93EC016A30F1F48D859E859C87C2
:103670008B878C892F853889820F932F911D988B8A
:103680008F8781E090E0DF91CF911F910F91FF90A4
:10369000EF90DF90CF90BF90AF909F908F907F90F2
:1036A0006F905F900895AB84BC84693031F429E059
:1036B000A20EB11CBC86AB86E4CF3DEFA3163FEF54
:1036C000B3060CF45DC08F819885A816B9060CF07E
:1036D00057C0CF84D8888DEFC8168FEFD8060CF46A
:1036E0004FC089859A85C816D9060CF049C060324A
:1036F00008F46FE780EE860F9FE9960F9A3118F471
:103700009FEFC91AD90A8C3011F08B3119F42FEFC1
:10371000C21AD20A869534E0839FC00111249C010D
:103720002D5E344F7901912C812C162F1170F701E9
:10373000E80DF91D549011112DC0352D3F70532EF9
:103740003501680C791C8C81882361F001E089893E
:103750009A89892B09F000E02FE0A601B301CE0180
:103760000E94B51A0989252DA601B301CE010E9438
:10377000B51A8FEF881A980A94E089169104B9F661
:103780008B8990E004962B853C85820F931F9C8744
:103790008B8777CF52948FE05822D2CF2091760139
:1037A000E0917401F0917501CF010296909375013B
:1037B00080937401222319F085919491089580815A
:1037C00091810895CF92DF92EF92FF92CF93DF9392
:1037D0000E94CE1B811520E8920791F48091710020
:1037E0008D7F8093710010929100469847981092B7
:1037F0007301DF91CF91FF90EF90DF90CF9008950C
:1038000021E020937301813020E8920751F48091E8
:1038100071019091720190937501809374010E94DF
:10382000CE1B97FD05C020917001222309F454C0DE
:1038300020916F01211150C021E020937701EC010C
:10384000DF77209709F04BC081E08093780146989C
:103850003FE9C32E3FE0D32EE12CF12CCAEFD0E09C
:10386000E0910502F09106020995811103C081E003
:103870008093780180917701882329F080917801E5
:10388000882309F43FC047980E94CE1B0097F1F1AE
:103890009C01DE010E94A535DC01CB0129E0B59534
:1038A000A795979587952A95D1F7109290002AE0D1
:1038B00020939100D0929900C09298008093790152
:1038C00090937A01A0937B01B0937C018091710069
:1038D0008260809371008DCF10927701B0CF9E01EE
:1038E00050E040E060E472E48FE090E00E945135E7
:1038F00069017A0181E0C81AD108E108F108109243
:103900007801AECF4699BFCF479ABECF8FEF9FEFDA
:10391000DC01CBCF9C01E1E7F0E090819D7F9083BB
:1039200010927601E7EFF1E0F0937501E0937401F6
:10393000F0937201E093710131832083738362837A
:1039400080E090E8958384830C94E21B2D9A08957F
:10395000BC0190E080E00C94FD198FB18095807FD0
:10396000669B88601C9B8460089510926E013E984F
:103970003F9808953E9A3F9A81E080936E010895A2
:10398000AF92BF92CF92DF92EF92FF920F931F936D
:10399000CF93DF936D3079F0C0918601D09187018C
:1039A0006A30B1F410928501109284012896D09368
:1039B0008701C093860181E090E0DF91CF911F9154
:1039C0000F91FF90EF90DF90CF90BF90AF90089550
:1039D000409184015091850185E0689FF001112498
:1039E000ED5EF94F9A01C12C80E1E82EA5E070E070
:1039F000CA1621F0CF0101967491FC0110E000E09D
:103A0000B72FB170DB2E20383105D0F4CE01800FF6
:103A1000911F80349105A0F461E081FD64E080FD98
:103A2000660F82FD6295887FE89ED0011124A20F67
:103A3000F62EA752BD4F8C91DD20A9F0862B8C93DA
:103A400076950F5F1F4F08301105D1F6C3942F5F95
:103A50003F4F86E0C812CACF4A5F5F4F509385013F
:103A600040938401A8CFF0948F21E9CF90918201F7
:103A7000982329F490918301982381E009F480E050
:103A800008951F93CF93DF93D82F109190020E9437
:103A9000361DC82F112359F0811106C0C0E08C2FAC
:103AA000DF91CF911F91089510929002F8CF882353
:103AB00029F082E080938F02C1E0F1CF0E94AD1C1B
:103AC0008D23D81304C080918F02882391F30E9424
:103AD000AD1C8D23D813E2CF80918F028823F1F2A1
:103AE000815080938F02DBCF80E00C94EC1582E351
:103AF00090E00E94A81C0E94AD1C8111F8CF08958F
:103B000088E00E94361D811103C080E20C94361DAE
:103B1000089584E00E94361D811103C080E40C9456
:103B2000361D0895CF93DF93EC0180E80E94361D87
:103B3000882329F08881882311F08150888380E1CF
:103B40000E94361D882331F088819981891710F4ED
:103B50008F5F8883DF91CF91089568E270E088E5F8
:103B600092E00C948A1C68E270E088EC90E00C947F
:103B70008A1C62E370E08CEB92E00C948A1C62E396
:103B800070E08AEF90E00C948A1C089590E080E049
:103B900008951F93CF93DF93D82F0E94803464E061
:103BA00070E00E94EC3681309105B1F12CF4C1E057
:103BB000892BB1F080E02CC08230910509F43FC020
:103BC000CBE00397B9F710E0612F8C2F0E94B1155D
:103BD00081112AC01F5F1730B9F7C150A1F718C073
:103BE00011E0612F8C2F0E94B115882359F098E0C5
:103BF000C99FB0011124605F7D4F610F711DFB01F2
:103C0000D58B06C01F5F173061F7CF5FCC3041F70F
:103C1000DF91CF911F910895C1E016E0612F8C2FA5
:103C20000E94B115882329F0F8E0CF9FB00111243C
:103C3000E2CF115099F7CF5FCC3079F7E9CFCBE0E5
:103C400016E0612F8C2F0E94B1158111EDCF11501C
:103C5000C1F7C150A9F7DCCF0F931F93CF93DF9328
:103C6000182F0AE0C4E0D0E00E948034BE010E9418
:103C7000EC3681309105E9F134F4892B29F10150BA
:103C800099F780E04CC08230910509F44DC003974C
:103C9000B1F720918D02223090F330918E02E22F05
:103CA000E150FF0BCF0143E0880F991F4A95E1F7E0
:103CB000805F9D4F830F911DFC0185891813DFCF15
:103CC000215020938D022AC080918E028230B8F25A
:103CD000E0918D0248E0E49FF0011124E05FFD4F88
:103CE000E80FF11D94891913CACF815080938E0279
:103CF00015C080918D028B3010F6E0918E0258E055
:103D0000859F90011124285E3D4FE20FF32FF11D96
:103D100095891913B4CF8F5F80938D0281E0DF9175
:103D2000CF911F910F91089580918E02863008F0F7
:103D3000A6CFE0918D0298E0E99FF0011124E05FA9
:103D4000FD4FE80FF11D9689191399CF8F5FCECFE4
:103D50000F931F93CF93DF9381E080939002E0E174
:103D6000F2E088E792E0158A168A178A108E118E83
:103D7000128E138E148E38968E179F07A1F786E049
:103D800080938D0283E080938E0281E080935802BD
:103D9000C2E380E00E942C1E811103C081E00E94DA
:103DA0002C1E80918D0220918E0238E0839FC001ED
:103DB0001124805F9D4F820F911D21E0FC01258B16
:103DC000C15039F786E080938D0283E080938E02A4
:103DD00010925802109260021092500210925902F2
:103DE000109257021092610210925F0210925102DB
:103DF00010924F02109214028091100290911102C1
:103E0000873E9340B0F582E00E94C91D0E94803435
:103E100080FD09C00E94803466E070E00E94EC36AC
:103E20008D5F0E94C91D8091100290911102892B13
:103E300001F1C0E003E010E00E948034B8010E946C
:103E4000EC36C817190609F02CF48AE00E94C91D47
:103E5000CF5FF2CF0E948034B8010E94EC36892BEC
:103E600041F489E00E94C91D882319F081E0809304
:103E7000140280918D0290E020918E0230E0BC010E
:103E800043E0660F771F4A95E1F7605F7D4FFB01C6
:103E9000E20FF31F41E0458BFC0153E0EE0FFF1FE3
:103EA0005A95E1F7E85EFD4FDF01A20FB31F55966B
:103EB0004C93A3E0880F991FAA95E1F7885F9D4F67
:103EC000DC01A20FB31F55964C93D9011196EB015B
:103ED000CA0FDB1F4D8B21503109620F731FEB019D
:103EE0004D8BEF01CA0FDB1F4D8BE20FF31F458B8C
:103EF000A80FB91F55964C93280F391FF901458B10
:103F0000DF91CF911F910F910895E0E1F2E01182CE
:103F1000108210928F02138212820E94A81EE5E97D
:103F2000F2E089E0808381E0818312821382178628
:103F30001686118A108A138A128A158A148A1682A2
:103F4000178210861186128613860895CF93C82F84
:103F500080E0C11106C00E9480346FE070E00E94D2
:103F6000EC368093180290911A0289130CC0C1118B
:103F70000AC0811104C08EE08093180204C08E3004
:103F8000E1F410921802E0911802E0931A02EE3068
:103F900008F0A6C1F0E0E153F04E0C940037DF1FAB
:103FA000022020203A20542072208C20AA20C420F5
:103FB000E220FC201A21382156218F5FDDCF8EEFC1
:103FC0009AE290931C0280931B0286EF9AE29093F0
:103FD0001E0280931D0286E39AE290932002809352
:103FE0001F0286E799E290932202809321028AE0E1
:103FF000809319028EE699E2909324028093230223
:10400000CF9108958EEF9AE290931C0280931B0249
:1040100086EF9AE290931E0280931D028EEA98E248
:104020009093200280931F028EEE97E290932202DB
:10403000809321028FE08093190286EE97E2DCCF15
:104040008EEF9AE290931C0280931B0286EF9AE215
:1040500090931E0280931D0286E297E290932002C5
:1040600080931F0286E696E29093220280932102BB
:1040700084E1BECF8EE596E290931C0280931B02F2
:1040800086E596E290931E0280931D0286E995E2F2
:104090009093200280931F0286ED94E29093220277
:1040A0008093210289E1C7CF8EEC94E290931C02A9
:1040B00080931B0286EC94E290931E0280931D0273
:1040C00086E094E29093200280931F0286E493E2BC
:1040D00090932202809321028EE1809319028EE355
:1040E00093E28ACF86E393E290931C0280931B02B3
:1040F0008EE293E290931E0280931D028EE692E27E
:104100009093200280931F028EEA91E29093220204
:104110008093210283E2E1CF86EA91E290931C0230
:1041200080931B028EE991E290931E0280931D0200
:104130008EED90E29093200280931F028EE190E238
:10414000909322028093210288E28093190286E1F3
:1041500090E252CF8EE090E290931C0280931B027B
:1041600086E090E290931E0280931D0286E49FE118
:104170009093200280931F0286E89EE19093220292
:10418000809321028DE2E1CF8EE79EE190931C02A5
:1041900080931B0286E79EE190931E0280931D028E
:1041A00086EB9DE19093200280931F0286EF9CE1B5
:1041B000909322028093210282E3809319028EEE73
:1041C0009CE11ACF86EE9CE190931C0280931B0227
:1041D0008EED9CE190931E0280931D028EE19CE186
:1041E0009093200280931F028EE59BE19093220220
:1041F0008093210287E3E1CF86E59BE190931C0247
:1042000080931B028EE49BE190931E0280931D021B
:104210008EE89AE19093200280931F028EEC99E140
:1042200090932202809321028CE38093190286EC02
:1042300099E1E2CE8EEB99E190931C0280931B02F0
:1042400086EB99E190931E0280931D0286EF98E120
:104250009093200280931F0286E398E190932202BC
:104260008093210281E4809319028EE298E1C4CE0A
:1042700086E298E190931C0280931B028EE198E104
:1042800090931E0280931D028EE597E19093200289
:1042900080931F028EE996E190932202809321027F
:1042A00086E48093190286E996E1A6CE8EE896E12F
:1042B00090931C0280931B0286E896E190931E0265
:1042C00080931D0286EC95E19093200280931F025B
:1042D00086E095E190932202809321028BE4E1CF66
:1042E0008EEF94E190931C0280931B0286EF94E181
:1042F00090931E0280931D0286E394E19093200226
:1043000080931F0286E793E190932202809321021B
:1043100080E5A9CFFB0101900020E9F73197AF01BB
:10432000461B570BDC01ED91FC910280F381E02DDF
:1043300009948F929F92AF92BF92EF92FF920F9348
:104340001F93CF93DF93CDB7DEB7A1970FB6F89445
:10435000DEBF0FBECDBF009191021091920290E09E
:10436000F801968785879487838770E0708B6787CD
:104370009A0150E040E019A27E01F1E2EF0EF11C3B
:104380008AE0882E912CA12CB12CCA01B901A5017B
:1043900094010E948335605DF70162937F012115CE
:1043A00031054105510589F7309721F0BF01C8015A
:1043B0000E948A21A1960FB6F894DEBF0FBECDBF32
:1043C000DF91CF911F910F91FF90EF90BF90AF9031
:1043D0009F908F9008950F931F93CF93DF93CDB746
:1043E000DEB72A970FB6F894DEBF0FBECDBF00919F
:1043F00091021091920290E0F80196878587948748
:10440000838770E0708B6787E42FF0E0EE0FFF1F6B
:10441000E65CFC4E65917491CE0101960E943435A4
:10442000009721F0BC01C8010E948A212A960FB68C
:10443000F894DEBF0FBECDBFDF91CF911F910F91DA
:104440000895EF92FF920F93CF93C82F7B01FB014A
:104450008181853071F1B8F4843001F1F7018081F8
:104460008230A8F1CE5F4DE16C2F8DE60E94EB21EA
:10447000F701408150E06C2F83E7CF910F91FF90BF
:10448000EF900C9499218730D9F0883039F76C2F50
:1044900070E008E028E048E752E106C06C2F70E0C9
:1044A00008E028E040E952E183E690E00E94FB1535
:1044B000D5CF6C2F70E008E028E048E852E1F4CF57
:1044C0006C2F70E008E028E040E852E1EDCFCF919A
:1044D0000F91FF90EF9008950F9380919802882399
:1044E00089F09091AD0291110DC081508093980296
:1044F00008E028E040E752E170E060E088E790E003
:104500000E94FB15409195024A3008F049E050E0C6
:1045100062E084E60E949921409196024A3008F0B8
:1045200049E050E069E084E60E94992140919702B9
:104530004A3008F049E050E060E184E60E949921A9
:1045400041E062E08CE60E94EB2142E069E08CE60B
:104550000E94EB2143E060E18CE60E94EB216BE9D5
:1045600072E088E10E9421226DE972E080E20E94FF
:1045700021226FE972E088E20E94212261EA72E062
:1045800080E30F910C9421220F931F93CF93DF931D
:10459000CDB7DEB76E970FB6F894DEBF0FBECDBFB6
:1045A000009191021091920290E0F8019687858720
:1045B0009487838770E0708B6787E42FF0E0EE0FBD
:1045C000FF1FE856FD4E65917491CE0101960E9441
:1045D0003435009721F0BC01C8010E948A216E96F3
:1045E0000FB6F894DEBF0FBECDBFDF91CF911F9104
:1045F0000F910895CF93DF9320919402222341F0ED
:10460000409193026CE380E0DF91CF910C94C4223F
:10461000EC0140E06CE380E00E94C422AE016CE358
:104620008CE3DF91CF910C949921EF92FF920F933D
:10463000CF93C82F7B018091160200E320E240E770
:1046400051E181110AC08091AF0200E320E240EB0A
:1046500050E1863010F040EF5FE064E070E084E00D
:1046600090E00E94FB1587EEE81683E0F806F1F46F
:1046700045E368E088E20E94C42246E360E188E204
:104680000E94C4224AE268E188E20E94C4224CE20D
:1046900060E288E20E94C42247EE53E060E284E6D2
:1046A000CF910F91FF90EF900C949921809115027A
:1046B00090911602992309F181111BC049E164E32D
:1046C00080E50E94EB2149E268E088E20E94C42272
:1046D0004BE260E188E20E94C4224AE268E188E29B
:1046E0000E94C4224CE260E288E20E94C422A70138
:1046F000D5CF815080931502E6CF811122C049E1C8
:1047000064E380E50E94EB210E942318813019F1B7
:10471000E0F0823011F1833011F14FE2CB3010F52F
:10472000EC2FF0E0EA56FC4D0C940037B123B12396
:10473000B123C423C423C423C623C823C823CA2344
:10474000CC23815080931502DFCF45E268E088E2F8
:104750000E94C422E2CF46E2F9CF47E2F7CF48E217
:10476000F5CF4DE268E188E20E94C4224AE260E1AE
:1047700088E20E94C4224AE260E288E2CF910F916F
:10478000FF90EF900C94C42241E3ECCF40E3EACFDA
:1047900042E3E8CF4EE2E6CF43E3E4CF0C943B356F
:1047A0000E94AD1C82FF48C02D980E94AD1C8478E9
:1047B0008438E1F40E94A61C88EC90E00E94A81CBA
:1047C0002F9882E090E00E943B358F3F29F06FEFF9
:1047D00082E090E00E94433584EF91E00E94A81CA3
:1047E0002F9A0E94AD1C84788438D9F30E94AD1CA6
:1047F00084718431E1F40E94A61C88EC90E00E9450
:10480000A81C2E9882E090E00E943B35882329F076
:1048100060E082E090E00E94433584EF91E00E94E6
:10482000A81C2E9A0E94AD1C84718431D9F388ECA7
:1048300090E00E94A81CB4CF0C94A61C1F920F926B
:104840000FB60F9211248F939F938091E100909166
:10485000E100937F9093E10083FF0FC01092E90085
:1048600091E09093EB001092EC0092E39093ED00B6
:104870001092A60198E09093F00082FF22C093E08E
:104880009093E9009091F200992319F09AE39093A4
:10489000E80090919701992341F0909197019150F0
:1048A00090939701911101C05D9A9091A501992370
:1048B00041F09091A50191509093A501911101C0F3
:1048C000289A84FF18C08091E2008E7E81608093D8
:1048D000E2008091E1008F7E8093E1008091980159
:1048E0008E7E8061809398019F918F910F900FBE73
:1048F0000F901F90189580FFF7CF8091E2008E7E79
:1049000080618093E2008091E1008E7E8093E100DF
:10491000809198018E7E8160E5CF1F920F920FB635
:104920000F921124CF92DF92EF92FF920F931F9379
:104930002F933F934F935F936F937F938F939F93A7
:10494000AF93BF93EF93FF93CF93DF93CDB7DEB7D2
:104950006C97DEBFCDBF1092E9008091E80083FF25
:1049600025C068E0CE0145960E949E1982EF809393
:10497000E8008D8987FF39C09091E80090FFFCCF57
:10498000982F907609F034C19E894F89588D2F89D0
:10499000F88C911131C0803861F580919601809337
:1049A000F1001092F1008EEF8093E8006C960FB644
:1049B000F894DEBF0FBECDBFDF91CF91FF91EF9195
:1049C000BF91AF919F918F917F916F915F914F9127
:1049D0003F912F911F910F91FF90EF90DF90CF901B
:1049E0000F900FBE0F901F9018959EEF9093E800C8
:1049F000C7CF1092F100D5CF913059F48111D3CFA8
:104A00004130510581F6809196018D7F809396010A
:104A1000CACF933049F48111C6CF4130510519F600
:104A2000809196018260F2CF953041F48091E80048
:104A300080FFFCCF20682093E300B5CF963009F0CB
:104A4000A9C00B8D1C8D22E01092E90010929401F8
:104A500010929301F2122EC01092920110929101C5
:104A60000E946D191F8299E09983FA8291E09E83DA
:104A700090EA98879AEF9987209193013091940159
:104A8000275F3F4F3C832B838D831092E900109268
:104A9000940110929301109392010093910149E0C7
:104AA00050E0BE016F5F7F4F80E00E9447190E9477
:104AB0006D1979CF10939201009391010E9484188F
:104AC000DC0112960D911C910115110509F451C1DB
:104AD000D801ED91FC910480F581E02DBE016B5E63
:104AE0007F4FC8010995009709F03EC1F801008584
:104AF0001185EACFF3E0FF120EC08F89882309F4F5
:104B000040C0823061F440E860E18FED9FE00E9498
:104B10006A27811148CF81E28093EB0047CF813033
:104B200029F440E86BE083ED9FE0F1CF833099F703
:104B30000E948418DC011296ED90FC908E010F5FAC
:104B40001F4F6801E114F10479F0D701ED91FC9158
:104B50000680F781E02DB801C7010995080F111DE6
:104B6000F701E084F184EECFD8011C92F6010190A8
:104B70000020E9F73197BF016C197D0940E0C601BB
:104B8000C6CF6DEB7FE0FB01449150E080E80E94CE
:104B9000471909CF973009F4BECF983021F481E04E
:104BA0008093F10000CF993009F0FDCE837009F0B9
:104BB000B2CFEEE3F1E081E031E096E321912223F0
:104BC00071F08093E9003093EB00DF0111972C9195
:104BD0002093EC009093ED008F5F873079F78EE79C
:104BE0008093EA001092EA008F898093A601DBCEC1
:104BF0008B8D9C8D1092E90010929401109293017C
:104C00009093920180939101898D811192C08E8938
:104C10009D89913A49F4813209F07DCF47E050E017
:104C200065E071E080E0B3CF913209F074CF833258
:104C300069F48F89988DB0E0A0E080930101909392
:104C40000201A0930301B0930401ADCE803269F458
:104C50008091E80082FFFCCF67E085E091E00E9450
:104C60009E198BEF8093E8009ECE823209F09BCE96
:104C70008F8980930C01EEEFFFE7859194918B3F34
:104C80009C4D51F1E0E0F8E0809105019091060122
:104C9000A0910701B0910801803B9440A105B105A6
:104CA000F1F480910C0180FD1AC0EE3F8AE0F80714
:104CB00089F587E797E791838083809160008093EF
:104CC000950188E19BE00FB6F894A8958093600069
:104CD0000FBE9093600067CEEEEFFAE0D5CF8081F3
:104CE00091818737974709F05ECEA8958091600043
:104CF0008861809360008091950180936000EE3F11
:104D00002AE0F20789F08091FE0A9091FF0A9183D0
:104D1000808349CE808191818737980751F29093A3
:104D2000FF0A8093FE0AC5CF1092FF0A1092FE0A76
:104D30003ACE0E948418DC0112960D911C91011547
:104D4000110509F4E8CED801ED91FC910190F081B4
:104D5000E02DBE016B5E7F4FC8010995811123CE06
:104D6000F80100851185EBCF181619060CF41BCE3F
:104D7000D2CEF1E0FF12BECE61EC7FE004CF1F92F5
:104D80000F920FB60F9211242F933F938F939F93FF
:104D9000AF93BF938091890190918A01A0918B017B
:104DA000B0918C0130917D0123E0230F2D3758F510
:104DB0000196A11DB11D20937D01809389019093DF
:104DC0008A01A0938B01B0938C0180917E01909118
:104DD0007F01A0918001B09181010196A11DB11DBB
:104DE00080937E0190937F01A0938001B093810115
:104DF000BF91AF919F918F913F912F910F900FBED7
:104E00000F901F90189526E8230F0296A11DB11D43
:104E1000D2CF1F920F920FB60F9211242F933F9370
:104E20004F935F936F937F938F939F93AF93BF93B2
:104E3000EF93FF938091790190917A01A0917B018A
:104E4000B0917C01892B8A2B8B2B09F440C0809177
:104E5000780181110BC088B190E4892788B98091CD
:104E60007701882319F088B1805888B98091790139
:104E700090917A01A0917B01B0917C0118161906DE
:104E80001A061B069CF48091790190917A01A091F9
:104E90007B01B0917C010197A109B109809379014F
:104EA00090937A01A0937B01B0937C01FF91EF91E5
:104EB000BF91AF919F918F917F916F915F914F9132
:104EC0003F912F910F900FBE0F901F9018950E9449
:104ED000E21BECCFEF92FF920F931F93CF93DF93E0
:104EE000F82E192FE62E042F81E0860F880F0E94DE
:104EF000191983E00E941919CF2DD12FEC0EFD2E28
:104F0000F11CCE15DF05B9F007FF13C0FE01849137
:104F10000E941919182F80E00E94191981232196E7
:104F20008111EFCFDF91CF911F910F91FF90EF9003
:104F300008958881EDCF81E0F5CFE7EAF1E01382B3
:104F4000128288EE93E0A0E0B0E084839583A6838C
:104F5000B78388E491E0918380838FEF9FEF9587FB
:104F60008487EEEEF6E01382128286E691E091836A
:104F700080838EEA95E1909306028093050280E09B
:104F800090E8909304028093030246983E9A4798D3
:104F90003F9AE9EDF6E0138212828AE591E091836F
:104FA000808389ED92E09683858380E890E0908706
:104FB000878380E490E09287818785E0848B81E01D
:104FC000838B16861586108A17861486138621E031
:104FD00030E0328B218B148298E2E5E1F1E0A0EB26
:104FE000B2E001900D929A95E1F71092D8021092DA
:104FF0009A021092990280939402E0E1F2E0178203
:10500000108611861286ECE0F2E0108283E0818344
:10501000E9E0F2E0108282E081831282E7E0F2E0D0
:10502000108281830895CF93DF93CDB7DEB72A979F
:105030000FB6F894DEBF0FBECDBF789484B5826002
:1050400084BD84B5816084BD85B5826085BD85B52C
:10505000816085BD80916E00816080936E001092AA
:105060008100809181008260809381008091810025
:1050700081608093810080918000816080938000B6
:105080008091910082608093910080919100816075
:105090008093910080919000816080939000809136
:1050A000C10084608093C1008091C10082608093C0
:1050B000C1008091C10081608093C1008091C300D4
:1050C00081608093C3008091C00082608093C000A3
:1050D0008091C20081608093C20080917A008460D8
:1050E00080937A0080917A00826080937A00809128
:1050F0007A00816080937A0080917A008068809342
:105100007A001092A6011092960110929801809157
:10511000D70081608093D70080EA8093D80089B55A
:10512000806189BD89B5826089BD09B400FEFDCF6B
:1051300061E070E080E090E00E94FD198091D8006D
:105140008F7C80618093D8008091E000807F809385
:10515000E0008091E1008E7E8093E1008DE08093FD
:10516000E200559A209A81EC80937C0085B1806F93
:1051700085B984B1877E84B984B1876E84B95E9A1B
:105180005F988AB1806D8AB9769A6E9881B3806F84
:1051900081BB899880B38D7080BB80E58CBD81E038
:1051A0008DBD85E090E00E94A81C5F9A85E090E0AC
:1051B0000E94A81C5E985C98E3E8FCE080E99CE013
:1051C00024912EBD00000DB407FEFDCF31968E1741
:1051D0009F07B1F75C9A81E8809364008091650035
:1051E0008160809365000E94741D0E94AD1C87FF42
:1051F00015C05C9885EA8EBD00000DB407FEFDCF9A
:105200005C9A2E982F982D988091640080628093EC
:10521000640081E083BF889513BEFCCF0E94D02339
:1052200082E090E00E94CE23882309F488C00E9487
:10523000BA1C81E090E00E94CE23182F147081FFE9
:105240000EC011112E9821EF3FEF3A8329830E945F
:10525000AD1C86FF77C02E9A2F9A0E94A61C0E9432
:10526000771D82E480930001809164008E7F80939B
:10527000640080917A00806480937A0080917A0043
:1052800086FDFCCF00917800109179000E94D8191A
:10529000AB01BC01C801B0E0A0E0DC019927882780
:1052A0008C019D01040F151F261F371FC901B8016E
:1052B00020916400216020936400611571058105CF
:1052C000910511F00E942B350E94D0230E94771D7A
:1052D0000E94B51C8EEE96E09093AC028093AB02D8
:1052E0008AE08093AF021092AD021092AE0289ED77
:1052F00096E090939202809391020E94851FE4E0D1
:105300002E2E312C7AE0772E1AE08FB7F894409148
:10531000890150918A0160918B0170918C018FBF3E
:1053200000918F010983002309F471C010928F014D
:1053300080E090E0892B49F30E940000E3CF0E94B7
:10534000B51C77CF112331F089819A81049711F42C
:105350002E9A2F9881E00E94EC1500E128E543ED9C
:105360005BE069817A8184E190E00E94FB150E94F4
:10537000741D8FE090E00E94A81CA981BA8111964B
:10538000BA83A983599709F062CF112311F02F9A9C
:105390002D9880E991E00E94A81C0E94A61C81E043
:1053A00090E00E94CE2380FF5ACF8AE090E00E94D6
:1053B000CE239FEF980F9E3F08F051CF22E330E0BD
:1053C000309385012093840128E330E030938701F6
:1053D000209386010BE010E01A830983682F8EEE7C
:1053E00096E00E94C01C89819A810E94CE23098187
:1053F0001A810F5F1F4F1A8309830131110571F75D
:105400000E94741D88EE93E00E94A81C28CF809112
:105410009001242F281B822F90910001291748F416
:105420008F5F891708F084CF81E083BF889513BE12
:105430007FCF31E030938F014093900180918D01B7
:1054400090918E01019690938E0180938D018091B1
:105450008301809382010E94AD1C80938301E9ED5A
:10546000F2E0898181118FEF0024819381938193F0
:1054700081930394D1F710928701109286011092C4
:105480008501109284011092AE02809188018230D1
:1054900009F4E4C1C0F4882309F448C0813009F458
:1054A00053C183E08093AE026091990270919A0299
:1054B000683E93E0790710F067EE73E08091180280
:1054C0000E94152330C0833009F4CEC5843049F7DB
:1054D0006091990270919A02683E83E0780710F01B
:1054E00067EE73E0809118020E94152380911502E7
:1054F000811119C088E00E94361D81110FC084E01F
:105500000E94361D81110AC080E20E94361D811161
:1055100005C080E40E94361D882329F082E0809334
:1055200088011092D80269E081E159C70E94803455
:10553000E3EFFEE0E49190917B008E2F880F880FBF
:1055400080729F7D892B80937B00E770E064E093FD
:105550007C0080917A00806480937A0080917A0048
:1055600086FDFCCF809178008091790082E0809365
:10557000AE0200E220E843EF5CE070E060E090E023
:1055800080E00E94FB1528E043ED5CE060E270E003
:1055900088E790E00E94FB1506E121E140EA5CE02B
:1055A0006AE270E090E080E00E94FB158091AF021B
:1055B00008E028E048E95CE0863010F040E95CE073
:1055C00066E170E090E080E00E94FB1580910B02A4
:1055D000882309F451C043E26CE38FE30E94C422A4
:1055E00080910B028111A4C089E092E00E94921D7B
:1055F0000E94891D882359F0009109020983023015
:1056000009F061C00E94B91D81E080930B02809176
:10561000AF0281508093AF0281112BC08091D802DC
:105620008F5F8A3011F40C9414348093D8028091E7
:10563000AE022091D802789EC001112485559D4F5D
:10564000820F911DDC0115968C91882381F069E110
:1056500070E0813011F40C94183462E370E0823011
:1056600011F00C94183482E390E00E948A1C10938D
:10567000AF020E94741D5CCE41E16CE282E60E94A2
:10568000EB214CE064E382E60E94EB218091AD02C5
:105690008823A9F042E164E38DE40E94EB2147E115
:1056A0006CE382E60E94EB2160910902660F660FAF
:1056B000660F645D48E18AE50E94EB2191CF43E1EA
:1056C00064E388E4EACF0981013099F48091AD0266
:1056D000882329F00E94B51C1092AD0298CF0E9439
:1056E000BA1C0E94B91D09810093AD021092D80224
:1056F0008ECF098101118BCF0E94B91D0E94851F99
:1057000081E080939302809394020E94A61F8FE011
:10571000809315021092160280911002909111024E
:10572000909313028093120284E080938801DECF6D
:105730000E94891D811105C00E94801D882309F4E3
:1057400066CF10920B0263CF8091AF0200E320E29C
:1057500040EB50E1863010F040EF5FE064E070E035
:1057600084E090E00E94FB1525E932E03A8329832A
:105770006DE9E62E62E0F62EF9018781853011F49D
:105780000C941C343296EE16FF06B9F7A981BA8143
:1057900017968C911797843011F40C942834129634
:1057A000BA83A983EA16FB0689F748E068E088E235
:1057B0000E94EB218091AD0244E1811101C045E1DD
:1057C00064E180E30E94EB2146E16CE180E30E940A
:1057D000EB214FE064E280E30E94EB21609107023D
:1057E000660F660F660F6C5E48E188E20E94EB214F
:1057F00087E092E00E94921D0E94891D8823A9F0F3
:1058000080910702823041F1813029F40E94B91D54
:10581000109288016BCF811108C08091AD0288235E
:1058200089F00E94B51C1092AD020E94801D81116A
:1058300013C080911002909111020E94FA220E94DE
:105840006C22CBC50E94BA1C0E94B91D81E08093D6
:10585000AD021092D802E9CF82E067CF88E00E94C3
:10586000361D882341F010920702B1E0B093880101
:105870001092D802DECF80E40E94411D882309F4F3
:1058800043C070E060E081E090E00E948917898366
:1058900080E20E94411D882339F070E060E08FEFC4
:1058A0009FEF0E948917898380E10E94411D882310
:1058B00039F061E070E090E080E00E948917898310
:1058C00080E80E94411D882339F06FEF7FEF90E060
:1058D00080E00E94891789830981002309F4A8C107
:1058E000E02FE150EA3008F0A3C1F0E0E658F34DB4
:1058F0000C940037862CED2D3E2E862EC92ED02EF0
:10590000DF2EE72EEF2E352D1982C2CF30E1832E08
:1059100032E0932EAA24A394B12C0BE05CE0652E18
:10592000EA2C9401285F3F4F3C832B833A872987D9
:10593000CC24C394D12C552453945A0CC4014096C2
:105940009A83898344244A944A0CC50123E0880F32
:10595000991F2A95E1F7DC01A05FBD4FBE83AD839F
:10596000B8E04B9EC0011124FC01E05FFD4FF887B9
:10597000EF83FC2CA985BA8556968C918A3009F064
:1059800043C080918D028E1570F5BE2DB81B8B2FF4
:10599000843068F580918E028F1538F5EF2DE81B65
:1059A0008E2F843020F50E948034B1010E94EC36A5
:1059B0000397E9F080918D028E1508F479C0E816FE
:1059C00008F098C0E985FA85968D913009F092C06B
:1059D000968B581205C080918E028F1509F483C0F2
:1059E000E981FA8176C08E19D3CF8F19DACF0E9460
:1059F0008034B1010E94EC368130910509F4C1C0B8
:105A0000DCF5892B09F4A7C0FFEFCF1ADF0A29853F
:105A10003A852F5F3F4F3A87298737E0C316D10475
:105A200009F0A7CF8FEFA81AB80A8B809C809CE062
:105A3000A916B10409F074CF90E080E030E0FC01D9
:105A4000E25DFD4F26E041914B3030F04B3009F0E4
:105A50003AE0DF0111977C922150A9F7089688352A
:105A6000910569F73A3009F0E3C088E0809393022A
:105A700081E08093940262C18230910509F491C063
:105A8000039711F6E985FA858789813009F0BCCF43
:105A9000F394868B80918D028E1105C080918E02C9
:105AA0008F1509F496C0A985BA8557960C93ACCF8B
:105AB000A985BA851E969C911E97913009F07FCFDB
:105AC00056969C93481204C080918E028F1529F03F
:105AD000F401EC0DFD1D058B97CFEF81F885EC0DE2
